:040000050800C4BD6E
:020000040800F2
:10C00000004F0020BDC4000809C500088DC6000807
:10C0100011C5000815C5000819C500086E11FBAF51
:10C020008F9E939B089996970101000051C50008C7
:10C0300021C50008B48E0108BBC50008CBC50008A7
:10C0400005C5000805C5000805C5000805C50008A8
:10C0500005C5000805C5000805C5000805C5000898
:10C0600005C5000805C5000805C5000805C5000888
:10C0700005C5000805C5000805C5000805C5000878
:10C0800005C5000805C5000805C5000805C5000868
:10C09000F947010805C5000805C5000805C50008E1
:10C0A00005C5000805C5000805C5000805C5000848
:10C0B00005C5000805C5000805C5000805C5000838
:10C0C00005C5000805C5000805C5000805C5000828
:10C0D00005C5000805C50008C142010805C50008DE
:10C0E00005C5000805C5000805C50008FFFFFFFFDE
:10C0F000FFFFFFFFFFFFFFFFFFFFFFFFFFFFFFFF50
:10C10000FFFFFFFFFFFFFFFFFFFFFFFFFFFFFFFF3F
:10C11000FFFFFFFFFFFFFFFFFFFFFFFFFFFFFFFF2F
:10C12000FFFFFFFFFFFFFFFFFFFFFFFFFFFFFFFF1F
:10C4000010B5054C237833B9044B13B10448AFF38E
:10C4100000800123237010BD2804002000000000CC
:10C420001CAD010808B5034B1BB103490348AFF32A
:10C43000008008BD000000002C0400201CAD010895
:10C44000A3F5803A704700BF174B002B08BF134B72
:10C450009D46FFF7F5FF00218B460F461348144A0F
:10C46000121A0CF049FC0E4B002B00D098470D4BD4
:10C47000002B00D098470020002104000D000D483B
:10C48000002802D00C48AFF3008004F0A6FC200086
:10C49000290004F04FFE0CF0E3FB00BF0000080091
:10C4A00000000000D90D0108004F002028040020E2
:10C4B0009C2A0020000000000000000072B60A481C
:10C4C0000A4901600A6882F30888094880470949D7
:10C4D000094A0A4B9A42BEBF51F8040B42F8040BBA
:10C4E000F8E762B60648804708ED00E000C00008A3
:10C4F000693B010844AD010800000020240400202D
:10C5000049C40008FFF7FEBF084800470848004735
:10C5100008480047084800470848004708480047BF
:10C5200008480047084800470848004709C5000870
:10C530008DC6000811C5000815C5000819C50008FA
:10C5400051C5000821C50008BBC50008CBC50008BF
:10C550001EF0040F0CBFEFF30880EFF30980816930
:10C5600011F8021CD9B901B590E80F10E047BDE8F9
:10C5700000508CE80300194B93E80600914208BF75
:10C58000704719B12CE9F00FC1F838C01A60906BF0
:10C59000B0E8F00F80F309886FF0020E7047104A80
:10C5A00013689942FAD801B552F821C00FC8E04784
:10C5B000BDE80050CCF80000704701B509F04EF816
:10C5C000BDE80140EFF3098CD5E701B509F00EF89D
:10C5D000BDE80140EFF3098CCDE70000EC0200203C
:10C5E00038A90108034613F8012B002AFBD1181AB9
:10C5F0000138704708B5EFF3088400F00F030D2BE6
:10C6000001D1EFF30984E3699A0554BF04F12005D1
:10C6100004F12405C30658BF483505F057FFEFF372
:10C62000098005F053FFEFF3088005F04FFFEFF3AB
:10C63000148005F04BFF284605F048FF606905F0BF
:10C6400045FFA06905F042FFE0690E4C05F03EFF92
:10C65000E06A05F03BFFA06A05F038FF206B05F0AB
:10C6600035FFE06B05F032FF606B05F02FFFA06B2C
:10C6700005F02CFF43220020034906F045F901F0A4
:10C68000D7FCFEE700ED00E0388F01087046FFF7A9
:10C69000B1FF704710B5EFF3108472B60023C1608C
:10C6A00082600360436084F3108810BD38B504468F
:10C6B000EFF3108572B64368C268D154436882684C
:10C6C00001339342436009D34FF030020CBF012085
:10C6D0000020094906F018F900236360D4E900033B
:10C6E000C01A4FF0350218BF0120034906F00CF9BB
:10C6F00085F3108838BD00BF858F010870B50446EA
:10C70000EFF3108672B609C8C01A4FF0420218BF84
:10C7100001200C4906F0F8F82368E268D55CA268AD
:10C7200001339342236009D34FF047020CBF01202D
:10C730000020044906F0E8F80023236086F31088FF
:10C74000284670BD858F0108EFF3108172B64268EC
:10C7500003689A4237BF8068D01A8018C01A81F3E4
:10C760001088704738B5EFF3108572B68468FFF70C
:10C77000EBFF85F31088013C201A38BDF8B515464B
:10C780000C460646FFF7E0FF854228BF05466719BD
:10C79000BC4201D12846F8BD3046FFF7AFFF04F890
:10C7A000010BF5E7F8B515460C460646FFF7DAFF2C
:10C7B000854228BF05466719BC4201D12846F8BD0D
:10C7C000304614F8011BFFF771FFF5E70D4B0E4AD9
:10C7D0001B68B0EB930F03D3012353705360704772
:10C7E00000EB5303013BB3FBF0F0022888BF0323A7
:10C7F0004FF000018CBFB0FBF3F00120517050608E
:10C80000704700BFD40100204404002070B50646E4
:10C8100008460D46FFF7E6FE01303C280DD82846B5
:10C82000FFF7E0FE441C2246294630460CF03CFA55
:10C830000023E0B286F83B3070BD3C24F3E7FF23D1
:10C840004FF001100B7070472DE9F04F047805464A
:10C8500084F080031F2B8A468BB004D800F03AFE88
:10C860000BB0BDE8F08F04F16003DBB25E2B02D8A1
:10C87000FFF7E5FFF4E70B4603F8014B05931D2C8A
:10C8800000F23585DFE814F01E009300A800E000F8
:10C89000340246026B0433051D05FA000B01330513
:10C8A000330533053305330520019D01B301C30171
:10C8B00018022E02320233053305330533053305E2
:10C8C0003305CE0143788D1C092B0AD8012B10D9D2
:10C8D000033B062B12D8DFE803F0171B2236474C28
:10C8E0005000FE2B61D0FF2B59D0F02B48D0F12BFC
:10C8F0004BD08AF8014004F10210B1E76A4928469A
:10C90000FFF784FF0446F4E704F0ECF80146F6E78D
:10C910000622284665490CF0C7F90624E9E7644B6E
:10C920001B69002BE5D093F8A52193F8A41141EAE7
:10C93000022193F8A62193F8A73141EA024151EA76
:10C940000361DCD1D5E75A4B1B69002BD1D093F89A
:10C95000A92193F8A81141EA022193F8AA2193F89A
:10C96000AB3141EA0241EAE7514BD96F0029C6D108
:10C97000BFE74F4BD3F88010F8E704F0C7F8C5E7DE
:10C98000312301248AF80230B3E740238B7042231D
:10C99000CB700F230B71002304244B71A9E74023B4
:10C9A0008B7000230224CB70A3E70423E9E74378CC
:10C9B00043B1012B0ED0FF233E488AF8013000F12D
:10C9C00001104DE74022837813F0010F3A4B14BF5A
:10C9D0005A611A610023EFE74378012B00F22081AE
:10C9E0000122364B1A70344B596821F4700159609A
:10C9F000596841F4401159604FF400511961596868
:10CA000021F070615960596841F0407159604FF4EC
:10CA100080411961596821F470215960596841F4C5
:10CA2000002159604FF480511961196821F00F01FC
:10CA30001960196841F0070119601A6113464FF037
:10CA400001108AF80130BAE700211C4B012019704F
:10CA5000194B5A6822F470025A605A685A605A6830
:10CA600022F070625A605A685A605A6822F4702242
:10CA70005A605A685A608AF80110A0E743788278B1
:10CA80000F4943EA02220F4B1B68B3FBF1F303216A
:10CA90000233B3FBF1F35343013BFDD19AE700238B
:10CAA00002208B704B708AE7C98F0108D18F010873
:10CAB000B48E010801000200000C01404404002073
:10CAC00040420F00D40100208378C1784278007979
:10CAD00013F0010B41EA0021687941EA0041A8798D
:10CAE00041EA006107D04FF40054A64812F0010F4C
:10CAF00014BF0461446113F0020707D04FF480446F
:10CB0000A04812F0020F14BF046144615EB2002E0F
:10CB100005DA0124D0099B4814BF0461446100294F
:10CB20003ED003F0040001909748984D814228BF01
:10CB3000014697488C46046896486968B4FBF0F053
:10CB4000B1FBF0F8910802918E4C510903F02003DB
:10CB50004FEA520E03914FEAD219BBF1000F04D0F5
:10CB6000E168C1F340318A4213D127B1A168C1F312
:10CB700000318E450DD1019909B1029949B90BB126
:10CB8000039931B9002E0BDAA16801F00101894542
:10CB900006D06968B1FBF0F1A1EB08018C45DCD847
:10CBA000784A7D48D36891689268C3F34033D201D4
:10CBB000D2B21343C1F3003243EA42038AF8013090
:10CBC000FDE6AB78407840EA0320EB7840EA03408A
:10CBD0002B7950EA036004D1FF2370488AF80130B2
:10CBE000EDE66F4B9860FFF7F1FD0023F5E7447821
:10CBF000811C002C08BF4FF48074204600F00AFD11
:10CC00000023E01D8AF80130C00801305BE0437862
:10CC1000634903F003020132C3F380030A774B77C1
:10CC200000230CE70124002325464FF480494B7074
:10CC30004378544E01F10208811C03F1FF3A13B905
:10CC400044EA0540BBE68B461BF8010B726810F006
:10CC50003F0708BF402722F070627260726843B2DB
:10CC6000002BABBF42F0407272607260C6F8109049
:10CC7000A8BFC6F814904246594607370193FF08EB
:10CC800000F0F4FC019BBAF1000F09D1726822F0A8
:10CC900070627260726842F040727260C6F81490FE
:10CCA000002B05F10105A8BFBB4453465946BABF46
:10CCB000B844E419ED19C0E7FF234B704278811C9A
:10CCC0000120013A03D2000440F0010077E60B781E
:10CCD00013F03F0308BF40230733DB080133194437
:10CCE0001844EEE7FF2340784B708EE7FF23A6E65B
:10CCF00042782B4B1A74C178827842EA01229A82D8
:10CD00000279417942EA0122DA82002325488AF831
:10CD1000013054E6431C0693214B82781B78C41CD7
:10CD2000012B019240F00C824FF00008464640462D
:10CD3000DFF87490CD1C89F80080CDF80C80019B41
:10CD4000002B33D1012811D1002E00F0DA81144BD1
:10CD5000154F9E8A0E2009A900F0D8FD022840F048
:10CD6000BF811EB13B78013E002BF3D0039B8AF8B4
:10CD700002008AF80130069BE41A059BE81A40EA93
:10CD800004401CE6000C0140C0C62D00001000E06D
:10CD9000D401002040420F00010006000100040001
:10CDA000440400200100050064040020234613F819
:10CDB000017BDFF880B217F0020F029300F02581AB
:10CDC000002E52D007F01103012BBBF814B01CD178
:10CDD000384609A900F09AFD022828D1BBF1000FBE
:10CDE00005D099F800300BF1FF3B002BF0D0029CEE
:10CDF00023789A0740F17281DF0600F16F810134D8
:10CE0000019B013B0193F3D19CE70E2009A900F09F
:10CE10007DFD02280AD1BBF1000F05D099F8003042
:10CE20000BF1FF3B002BF0D00026E0E700260128A5
:10CE3000DDD1099B1A0A2B706A701A0C1B0EAA709E
:10CE4000EB702A1D002E47D03B0644D53046794B67
:10CE50000835DB681A0A05F8043C05F8032C1A0C9F
:10CE60001B0E05F8022C05F8013C724B17F010025E
:10CE7000B3F814B007F001015ED0A0786278DB8AC5
:10CE800042EA0022E078049342EA0042207942EA32
:10CE900000620792621D029201BB664CB4F814B0A6
:10CEA00009A9384600F032FD022801462AD1BBF11B
:10CEB000000F05D099F800300BF1FF3B002BEFD0AD
:10CEC0005C4B9A69099B1340079A9A422ED041F015
:10CED0001000C0B28BE730461546C6E70021384641
:10CEE00000F014FD02280AD1BBF1000F3FF47FAF20
:10CEF00099F800300BF1FF3B002BEFD077E70128CA
:10CF0000CBD074E7A369099A012803EA0203D7D1B9
:10CF1000079A9342D4D0049B002BD1D0049A99F85D
:10CF20000030013A0492002BB8D0C9E701287FF401
:10CF30005EAF4FF000082BE0002936D0002EF8D16C
:10CF40000021384600F0E2FC02283A4B0AD1BBF13E
:10CF5000000F3FF469AF99F800200BF1FF3B002A66
:10CF6000EED044E701287FF442AF3E0640F1B080A6
:10CF70004FF000080646DB6804351A0A05F8043C41
:10CF800005F8032C1A0C1B0E05F8022C05F8013CC1
:10CF9000039B99F8002001330393019B013B002A76
:10CFA0007FF425AF029C0193C9E6384609A900F039
:10CFB000ADFC02281F4B0AD1BBF1000F3FF417AFA5
:10CFC00099F800200BF1FF3B002AEED00FE7012873
:10CFD0007FF40DAF3C060AD52A46DB68190A02F831
:10CFE000043B6970190C1B0EA970EB701546099B68
:10CFF00004351A0A05F8043C05F8032C1A0C1B0E1C
:10D0000005F8022C05F8013C93E72EB3BBF8143069
:10D010000E2009A9049300F079FC02280CD1049B8E
:10D02000002B3FF4E4AE99F80020013B002AEFD03A
:10D03000DDE600BF4404002001287FF4D8AE099B40
:10D0400004351A0A05F8043C05F8032C1A0C1B0ECB
:10D0500005F8022C05F8013CA278637817F0200F40
:10D0600043EA0223E27843EA0243227943EA026375
:10D0700004F1050202920993A04A03D00026012080
:10D08000936185E7968A384609A900F03FFC02289B
:10D0900008D1002E3FF4ABAE99F80030013E002BD2
:10D0A000F1D0C1E601287FF4BFAE390614D5804621
:10D0B000DBF80C3004351A0A05F8043C05F8032C9B
:10D0C0001A0C1B0E05F8022C05F8013C00265FE740
:10D0D0004FF0000806465BE78046F7E705348FE629
:10D0E00001287FF443AE099B04351A0A05F8043C75
:10D0F00005F8032C1A0C1B0E05F8022C05F8013C50
:10D1000034E6B8F1000F3FF431AE7C4B7C4F9E8A81
:10D1100000210E2000F0FAFB02287FF427AE002E3B
:10D120003FF424AE3B78013E002BF1D01EE623787D
:10D13000990712D5DA0610D40134019B013B019303
:10D14000019B002BF3D18AF801308AF80230069B4C
:10D15000E01A000440F0020031E40534EDE7DFF8A6
:10D160009CB19BF80030012B4FF0000340F0A480ED
:10D17000634C90F802802370C3780A1D58EA032894
:10D18000019200F09780077917F0020611D1431D34
:10D19000B045BBF814906AD100210E2000F0B6FB18
:10D1A000022839D1B9F1010936D32378002BF3D005
:10D1B00032E017F0010010D0BBF8146000213846AF
:10D1C00000F0A4FB022806D136B32378013E002BE1
:10D1D000F4D0002620E00128FBD14346DDF804907E
:10D1E000A8EB0306CDF804905A1EABB11AB917F09C
:10D1F000010F18BF0E27BBF81430384609A9039257
:10D20000029300F083FB0228039A1ED1029B1BB1FC
:10D210002178013B0029F0D0019B059A8AF8016032
:10D22000360A8AF803008AF80260981A2B799B075D
:10D230005BBFAC78ED7840F4802044EA05245CBF05
:10D24000013440EA8440FFF7BABB012809F1040920
:10D25000E2D1099B190A09F8043C09F8031C190CCE
:10D260001B0E09F8013C09F8021C1346B8E759786F
:10D270001A78043342EA012213F8021C42EA0142FE
:10D2800013F8011C42EA01620992384609A9029387
:10D2900000F03CFB0228029B08D1B9F1000FBBD083
:10D2A000227809F1FF39002AEFD0B5E70128B3D180
:10D2B00001366DE740468CE703204B708B70CB70D6
:10D2C000B4E70E4B1B78012B0FD1C278837809A9E4
:10D2D00043EA0223027943EA02434279002043EA07
:10D2E0000263099300F012FB0FE5FF230EE5FF2315
:10D2F0004FF001100B70FFF7B3BA00BF44040020D9
:10D3000064040020F8B505787F2D15D10C464FF048
:10D31000021604F8025B4578871C4D700DB9304643
:10D32000F8BD21463846FFF78FFA064407EB104751
:10D3300080B20444013DF1E7BDE8F840FFF784BA4C
:10D340001FB5642101240022324B334859619C836C
:10D350001A7098601A749A61FFF738FA2F4B9A691D
:10D3600042F004029A619A6902F004020092009A63
:10D370009A6942F008029A619A6902F008020192E1
:10D38000019A9A6942F010029A619A6902F01002B9
:10D390000292029A9A6942F020029A619B6903F014
:10D3A00020030393039B1E4B5A6822F470025A60B9
:10D3B0005A6842F440125A604FF400521A615A6897
:10D3C00022F070625A605A6842F040725A604FF41C
:10D3D00080421A615A6822F470225A605A6842F4F4
:10D3E00000225A604FF480521A611A6822F00F022C
:10D3F0001A601A6842F007021A601C611A6822F06B
:10D4000070621A601A6842F040721A6040221A6113
:10D4100004B010BD44040020404B4C0000100240FA
:10D42000000C014000230422C0F81031C0F8143170
:10D43000C0F80821C0F80C3170470346D0F80C0141
:10D4400010B5B8B10138C3F80C01D3F8140103EBDF
:10D4500080140C6000F1800133F81110013000F0ED
:10D4600003001160C3F814010120D3F80821013230
:10D47000C3F8082110BD70B50446D0F808010E4667
:10D480001D4630B30138C4F80801D4F81001402A11
:10D49000A8BF402204EB80100BF006FCD4F810115A
:10D4A000304604EB8111FFF72DFFD4F8102102F173
:10D4B000800324F81300012004EB82132B60D4F8BE
:10D4C0000C31013202F003020133C4F81021C4F818
:10D4D0000C3170BD7FB5037806460B70803B0D465E
:10D4E0000D2B00F28E80DFE803F007172239448C01
:10D4F0008C8C54626C71758303F0F4FA0646FFF766
:10D5000071F8C4B2687022463146A81C0BF0CCFBFF
:10D5100004F58030023008E002A805F0F3F8072295
:10D5200002A9681C0BF0C0FB374804B070BD02A80C
:10D5300005F0E8F804220024711C0DEB02000194B0
:10D540000BF0B2FB019B02A8029305F0C1F8204644
:10D5500005F0ECF801232D486B70E6E73E21A81C8E
:10D5600006F0A6FE044610B1012003F0B9FD6C7070
:10D57000CEE744780230214606F088FE012003F011
:10D58000AFFD0123E01800046B70184300F1011097
:10D59000CBE701234B70407820B903F0BDFD4FF07D
:10D5A0000210C2E70128F8D000234B70F7E70123EF
:10D5B0004B7005F061F810B9022008F063FE1448C2
:10D5C000B3E7407800F09AFE6870E8E700F000FFEB
:10D5D0006870F4E74478012003F08CFD2146B01C0C
:10D5E00000F0C2FE6870601C000440F00100CDE74E
:10D5F00000234B70407810B901F056FBCFE70120B3
:10D60000FAE74FF0011090E7090001000200050061
:10D610000200010028B3F0B40024124B4FF4804CF8
:10D620005E684FF400552346421E0F48ACB1013CE2
:10D63000DF074CBFC0F810C0C0F814C037464561C2
:10D64000013FFDD137460561013FFDD1013A571C2D
:10D650004FEA5303EAD1F0BC7047072411F8013BAD
:10D66000E6E7704744040020000C014010F03F0C36
:10D6700008BF4FF0400C0306F0B540F19D80144602
:10D680004FF400504A4D4B4B696858610A46013AC5
:10D69000FDD19A680E461861013EFDD1C2F3003EED
:10D6A000BCF1010F4FEACE1600F014810A46586112
:10D6B000013AFDD19A680F461861013FFDD1C2F3CE
:10D6C000003E4FEACE1EBCF1020F4EEA560E00F0AD
:10D6D00006810A465861013AFDD19A680E461861E2
:10D6E000013EFDD1C2F30032D201BCF1030F42EA88
:10D6F0005E0E00F0F7800A465861013AFDD19A6843
:10D700000E461861013EFDD1C2F30032D201BCF1D8
:10D71000040F42EA5E0E00F0E8800A465861013AC2
:10D72000FDD19A680E461861013EFDD1C2F3003268
:10D73000D201BCF1050F42EA5E0E00F0D9800A4624
:10D740005861013AFDD19A680E461861013EFDD13B
:10D75000C2F30032D201BCF1060F42EA5E0E00F0C5
:10D76000CA800A465861013AFDD19A680E4618618E
:10D77000013EFDD1C2F30032D201BCF1070F42EAF3
:10D780005E0E00F0BB800A465861013AFDD19A68EE
:10D7900018610139FDD1C2F30032D20142EA5E0EB6
:10D7A000BCF1080C04F801EB7FF46EAFF0BD00BFD4
:10D7B00044040020000C01400E464FF480444FF416
:10D7C0000052504B5868504B16F801EB05461EF0BE
:10D7D000010F0CBF5C611C615A61013DFDD1054622
:10D7E0001A61013DFDD1BCF1010FDFD01EF0020F27
:10D7F0000CBF5C611C6101465A610139FDD10146D3
:10D800001A610139FDD1BCF1020FCFD01EF0040F17
:10D810000CBF5C611C6101465A610139FDD10146B2
:10D820001A610139FDD1BCF1030FBFD01EF0080F02
:10D830000CBF5C611C6101465A610139FDD1014692
:10D840001A610139FDD1BCF1040FAFD01EF0100FE9
:10D850000CBF5C611C6101465A610139FDD1014672
:10D860001A610139FDD1BCF1050F9FD01EF0200FC8
:10D870000CBF5C611C6101465A610139FDD1014652
:10D880001A610139FDD1BCF1060F8FD01EF0400F97
:10D890000CBF5C611C6101465A610139FDD1014632
:10D8A0001A610139FDD1BCF1070F4FEADE113FF4D7
:10D8B0007DAF69B95C6101465A610139FDD101460C
:10D8C0001A610139FDD1BCF1080C7FF47DAFF0BDC8
:10D8D0001C61F0E74FEAD61E84F800E0F0BD4FEA85
:10D8E0009E1EF9E74FEA5E1EF6E74FEA1E1EF3E7BB
:10D8F0004FEADE0EF0E74FEA9E0EEDE74FEA5E0ECE
:10D90000EAE700BF44040020000C01402DE9F04785
:10D910004D4E864673788A46002B00F099804FF46E
:10D9200080424FF40050494B1EF0010F1A615861BC
:10D9300018614FF4005014BF1A615A61434A1EF037
:10D94000020F506110614FF4804014BF10615061AC
:10D950004FF400503D4A1EF0040F506110614FF427
:10D96000804014BF106150614FF40050374A1EF0E0
:10D97000080F506110614FF4804014BF1061506176
:10D980004FF400504FEA5E0303EB9E034FEADE04C0
:10D99000734423442D4A13F0010F4FF48043506128
:10D9A0004FF4804410614FF4005014BF1361536171
:10D9B000264B327F586118615C61586118611C61A7
:10D9C000586118615D6825F070655D605D685D6037
:10D9D0001C6114461AB1013C58611861FBD14FF427
:10D9E00000551A4B5D6198681D615D619C681D6101
:10D9F0005D61C0F3003C9868C4F30034C0F30030AC
:10DA0000800040EA440040EA0C0001281D6100F05B
:10DA10007881022800F0C381042800F0C0812132FF
:10DA2000013A5D611D61FBD14FF480415A68C0B27B
:10DA300022F070625A605A6842F040725A6059612E
:10DA40001961BDE8F08700BF44040020000C0140CC
:10DA50004FF480404FF400547368654A1D461061CE
:10DA60005461013DFDD114611C46013CFDD11EF005
:10DA7000010F14BF106150614FF400525C481C4606
:10DA80004261013CFDD102611A46013AFDD14FF4D9
:10DA900080441EF0020F14BF046144614FF400542F
:10DAA00053481D464FEA5E024461013DFDD10461C9
:10DAB0001C46013CFDD14FF480441EF0040F14BFFE
:10DAC000046144614FF4005449481D4602EB9E0234
:10DAD0004461013DFDD104611C46013CFDD14FF480
:10DAE00080441EF0080F14BF046144614FF40054D9
:10DAF0003F481D4672444FEADE074461013DFDD1B7
:10DB000004611C46013CFDD13A4412F0010F4FF470
:10DB100080424FF4005714BF02614261344A1846F4
:10DB200057610138FDD1184617610138FDD14FF416
:10DB300080401C4650615761013CFDD11C46176175
:10DB4000013CFDD110611C465761013CFDD11C46D2
:10DB50001761013CFDD1546824F07064546054682E
:10DB600054601061347FA44654B11846576101389F
:10DB7000FDD11D461761013DFDD1BCF1010CF4D171
:10DB80004FF400551A4A184655610138FDD1906886
:10DB90001F461561013FFDD11F465561013FFDD173
:10DBA000D2F808801F461561013FFDD11F4655611F
:10DBB000013FFDD19768194615610139FDD1C7F3C1
:10DBC000003C4FEA8C0CC8F300374CEA470CC0F31A
:10DBD00000304CEA000CBCF1010F25D0BCF1020F63
:10DBE00000F00E81BCF1040F00F00A81213401E045
:10DBF000000C0140194655610139FDD119461561E6
:10DC00000139FDD1013CF5D14FF4804153685FFAF1
:10DC10008CF023F070635360536843F0407353609B
:10DC200051611161BDE8F0871EF0020740F04C81A0
:10DC30004CB1184655610138FDD1184615610138BF
:10DC4000FDD1013CF5D14FF4804C20244FF4005518
:10DC50008A48426822F070624260426842F0407234
:10DC60004260C0F814C0DAF80020D1074CBFC0F8F9
:10DC700010C0C0F814C0194645610139FDD11946DC
:10DC800005610139FDD1013C17444FEA5202ECD144
:10DC90004FF48041794AF8074CBF116151614FF44C
:10DCA0000051764A184651610138FDD11161013B9E
:10DCB000FDD101201EF0800F0AD0714B71491B6805
:10DCC000714AA1FB031352689B0CB2FBF3F3F360A0
:10DCD000337C83B14FF480424FF400556749746838
:10DCE0004A6122464D61013AFDD122460D61013A59
:10DCF000FDD1013BF5D14FF48042604B1A61BDE884
:10DD0000F0871EF0020440F025811AB1013A5D61EE
:10DD10001D61FBD14FF4804720204FF40055574A36
:10DD2000536823F070635360536843F0407353604B
:10DD30005761DAF80030D9074CBF176157610138D5
:10DD40001C4455614FEA53031561F4D14FF48042EE
:10DD50004A4BE0074CBF1A615A614FF40052012050
:10DD6000464B5A611A611EF0800F0AD0444B454958
:10DD70001B68454AA1FB031352689B0CB2FBF3F3EB
:10DD8000F360337C002BB6D04FF480444FF4005145
:10DD90003A4A5461013B51611161FBD1ABE7757F98
:10DDA000002D00F082801EF0020640F01681002A4D
:10DDB00000F02C814FF40051304B013A5961196148
:10DDC000FBD15A6822F070625A605A6842F0407281
:10DDD0005A604FF480425A616DB10EF0020656B996
:10DDE0004FF4804421234FF40051244A5461013BF5
:10DDF00051611161FBD14FF48042204BC0B27DE7ED
:10DE0000767F002E42D01EF0020740F0D780002C13
:10DE100000F0EC804FF4005018491A464861013A6E
:10DE2000FDD11A460861013AFDD1013CF5D14FF40C
:10DE300080404A6822F070624A604A6842F040724C
:10DE40004A6048619EB10EF0020787B94FF48041E5
:10DE500021224FF4005409484161194644610139B7
:10DE6000FDD1194604610139FDD1013AF5D14FF4D4
:10DE70008042024B5FFA8CF040E700BF000C01408B
:10DE8000D401002083DE1B43001000E0002CC1D130
:10DE90004FF48041654B5A6822F070625A605A68AC
:10DEA00042F040725A605961E1E7002A82D14FF492
:10DEB00080415E4B5A6822F070625A605A6842F0A4
:10DEC00040725A60596196E74FF000092027C84612
:10DED000184655610138FDD1906819461561C0F3A7
:10DEE00000300139FDD18044013F4FEAC07040EA63
:10DEF0005909EDD1184655610138FDD19068156179
:10DF0000013BFDD188EA103818F0010F0CBF012049
:10DF10000820BAF1000F01D0CAF800906CB14FF49C
:10DF200000557268414913464D61013BFDD11346CE
:10DF30000D61013BFDD1013CF5D13C4B5A6822F00B
:10DF400070625A605A6842F040725A604FF48042E0
:10DF50005A61AFE64FF00008202447465D6198689B
:10DF6000013CC0F3003007444FEAC0701D6140EA35
:10DF70005808F3D15D6198681D6187EA103717F082
:10DF8000010F0CBF01200820BAF1000F01D0CAF820
:10DF9000008032B14FF40051244B013A59611961AC
:10DFA000FBD1224B5A6822F070625A605A6842F0E4
:10DFB00040725A604FF480425A61D4E621224FF4F5
:10DFC00000551A48194645610139FDD119460561C8
:10DFD0000139FDD1013AF5D119E721234FF400545D
:10DFE0001249013B4C610C61FBD1E0E60F4A5168DC
:10DFF00021F070615160516841F0407151604FF4FF
:10E0000080415161002F7FF432AF1FE74FF4804110
:10E01000064B5A6822F070625A605A6842F04072A9
:10E020005A605961002E7FF4E6AED9E6000C01403B
:10E03000BFF34F8F0549064BCA6802F4E0621343F1
:10E04000CB60BFF34F8F00BFFDE700BF00ED00E0E6
:10E050000400FA05F0B54FF0FF3300240127DFF884
:10E060004CC08C4203DB93FAA3F0C043F0BD0722FF
:10E070000025065D16F0010F1CBF07FA02FE45EAF7
:10E080000E05013A4FEA5606F4D2082283EA0563E8
:10E09000002B02F1FF324FEA4303B8BF83EA0C03BF
:10E0A00012F0FF02F4D10134DBE700BFB71DC10459
:10E0B000F0B500240127DFF850C0C04390FAA0F06B
:10E0C000944203DB90FAA0F0C043F0BD0723002583
:10E0D0000E5D16F0010F1CBF07FA03FE45EA0E05A0
:10E0E000013B4FEA5606F4D2082380EA0560002877
:10E0F00003F1FF334FEA4000B8BF80EA0C0013F091
:10E10000FF03F4D10134DBE7B71DC10400F0A4BB69
:10E110000023F0B50D46164689B0CDE906330593C8
:10E12000441C06AF05AB01934FF480733146009356
:10E1300028462346029707AA00F0ECFF38B9069A52
:10E140001AB12146059800F085FA09B0F0BD022801
:10E150000CD1069A1AB9079BF61A1D44E2E721462C
:10E16000059800F077FA0028F5D0EEE7012809D1EC
:10E17000069A2AB12146059800F06CFA0028E4D1ED
:10E180001320E2E704280DD0431FDBB2012BC9D8CE
:10E19000053818BF01204FF4B072034904F0B4FBF6
:10E1A0001620D2E71520D0E7D78F010810B540F22E
:10E1B0000112002104460AF09FFD00F085FF0023B4
:10E1C0002370BDE8104000F013BA00F011BA08B592
:10E1D00004F032FC431E5842584108BD08B50023E4
:10E1E0001A4600F013F9003818BF012008BDF0B539
:10E1F000044690F830000F462F28154685B02DD8DC
:10E20000C0F13006964228BF1646204432460AF036
:10E210004BFD94F830103144C9B22F2984F83010E6
:10E2200027D9002320461A4600F0F0F820B3002238
:10E2300003AB0093114602AB00F028F9D0B9029865
:10E24000214694F83020606300F004FA90B9636BC3
:10E2500094F8302037441344AD1B63632A46394693
:10E26000606B00F0F7F928B9626B14202A446263EE
:10E2700000E0002005B0F0BD1C20FBE708B507F06A
:10E28000D1FD054B62221B6804491B1A58425841B4
:10E29000BDE8084004F038BB74050020D78F0108A2
:10E2A00000F0DABA70B5084E044633680D46984758
:10E2B00040B9294620463369984700280CBF0320FF
:10E2C000012070BD0020FCE70000002010B500F127
:10E2D00008040322214607480AF025FD40B1032225
:10E2E000214605480AF01FFD00280CBF012003202D
:10E2F00010BD00BF2A9001082E90010870B5144D82
:10E3000004462E7836B185220020124904F0FCFA2A
:10E31000022070BD012801D98B22F5E707F082FDAC
:10E320000D4B4FF48272186031460C480AF0E4FC41
:10E3300001232B700A4B094803EB0414094B1C60A2
:10E34000636898470028E4D003232B70E1E700BFFF
:10E3500070050020D78F0108740500206C04002090
:10E36000000000206804002070B5154D04462B788D
:10E370000E46012B07D0A4220020124904F0C4FA53
:10E380000224204670BDFFF779FF0F4B21461B6822
:10E3900032469B680D4898471328044602D1022351
:10E3A0002B70EEE7142800D040B92878B222431E23
:10E3B00058420449584104F0A7FAE2E70323EFE783
:10E3C00070050020D78F0108680400206C0400202D
:10E3D00010B5094C207828B9C022084904F094FAF5
:10E3E000022010BDFFF74AFF054B06481B68DB689B
:10E3F000984700232370F4E770050020D78F0108A9
:10E40000680400206C0400200020704730B50546E9
:10E4100008461C462F2894BF0020012085B04722C3
:10E42000174904F071FA0C2205F1200101A80AF045
:10E430003BFC0CB9134B1C70134B029A9A420ED141
:10E4400003F17F73019803F5823303F28713984237
:10E4500013D0FC3BC31A5842584105B030BD284682
:10E4600004F0D6FA28B114B90122064B1A70032021
:10E47000F3E7002C18BF0320EFE70220EDE700BF11
:10E4800032900108B2050020089996972DE9F047CF
:10E49000DDF8208006460D4691461F4613B1B8F1BF
:10E4A000000F09D171220020404904F02DFA4FF0ED
:10E4B00002094846BDE8F0874FF0000AC3F800A003
:10E4C000C8F800A002F067FC0446F8B1022E0BD198
:10E4D000B9F1000F02D0364B9D4256D1354B344D29
:10E4E0001C684FF0000905E0032EF1D000244FF026
:10E4F0001C09254604F0C8F808B9012E52D0B9F11C
:10E50000000FD6D1002C49D1B822CCE702F045FC4F
:10E510000028EBD0012E0AD1B9F1000F02D0B5F1DD
:10E52000006F37D1234B4FF000651C68D9E7032EED
:10E53000DCD1214B1A69002AD8D00C3253781578D7
:10E5400045EA0325937845EA0345D37855EA036500
:10E550000DD15179137943EA0123917943EA0143BB
:10E56000D17953EA016302D1144B1C68B9E7517A9F
:10E57000137A43EA0123917A43EA0143D17A43EAC9
:10E580000163012BF0D01432D8E7544655464FF0C2
:10E590001B09AFE725464FF01A09ABE73D60C8F805
:10E5A000004086E74FF01C0983E700BF3290010866
:10E5B00000C0000858910108B48E0108F0A30108BA
:10E5C00070B506460C46154602F0E7FB48B1032E2F
:10E5D00007D1064B1B6923B129462046FFF714FFDC
:10E5E00008B9002070BD1D20FCE700BFB48E0108F3
:10E5F00038B50F4D2C783CB1DA2200200D4904F0DB
:10E6000083F90224204638BD3022FF210A480AF04F
:10E6100073FB01232B70094B1C70094B1C60094BC9
:10E620001C60094B1C60094B1C70094B1C70E9E70E
:10E63000B9050020329001087C050020B1050020BA
:10E64000AC050020B405002078050020B0050020AE
:10E65000B80500202DE9F04F724E15463278044679
:10E66000012A0F4685B008D00020EF226E4904F041
:10E670004BF9022005B0BDE8F08F6C4B197821B939
:10E680006B491A7008606B490860DFF8AC8198F834
:10E690000030002B70D1674A13685919A3421160EA
:10E6A00048D1DFF898A1DFF898B1DAF800003946D0
:10E6B000C0F13009A94528BFA94658444A460AF086
:10E6C000F3FADAF800004F4448442F28CAF8000053
:10E6D000A5EB09054C444BD9A0F1300358425841F1
:10E6E00040F21112504904F00FF9514A01235846E3
:10E6F0001268DAF80010FFF789FE524B187002AB6F
:10E70000DFF840914A4900930122096899F8000016
:10E7100003ABFFF7BBFE50B903F0C6FF70B1474B28
:10E7200047491A6899F80000FFF74AFF30B1032300
:10E7300033709FE70322434B1A70E0E798F800001C
:10E740004FF49A7280F00100374904F0DDF8029826
:10E7500000F05AF90028EAD1012388F80030374B3D
:10E7600037491A68324B186800F0B2F920B1DEE779
:10E7700098F80030002BF2D198F8003033B12A46D7
:10E780003946204600F0A4F90028D0D12D4B1B7843
:10E79000022B43D0032B03D0012B41D0002069E78B
:10E7A000294B187800283FF465AF284B18690028DA
:10E7B0003FF460AF00F10C025178137843EA012373
:10E7C000917843EA0143D17853EA01630BD1507940
:10E7D000137943EA0023907943EA0043D07953EA5E
:10E7E000006002D146E79C420CD35379107940EA8D
:10E7F0000320937940EA0340D37940EA03608442DE
:10E80000034601D91432D7E700283FF433AF2C4434
:10E810009C42C3D30223132033702BE70C4BF6E743
:10E820000C4BF4E7B905002032900108B805002030
:10E83000B405002078050020B0050020AC050020BC
:10E840007C050020B1050020B2050020B48E01082F
:10E8500000FC010800BC000810B50E4B1C783CB948
:10E86000204640F26B120C4904F04EF8022010BD15
:10E8700000221A70094B187808B100F0CBF9022C6D
:10E88000F5D0074B1B78032BF1D0002808BF2520BB
:10E89000EDE700BFB905002032900108B005002067
:10E8A000B10500202DE9F041DFF84480044698F8D6
:10E8B0000030104E104FCBB9104B32681B68104916
:10E8C0009B68386898470123054688F80030FF2187
:10E8D00032680B480AF010FA3368B4FBF3F003FB1C
:10E8E0001040241A3C602846BDE8F0810025EEE780
:10E8F000BC090020D0090020CC090020D409002048
:10E90000BC050020F8B5384F05463B685B69984761
:10E910003B6806469B6928469847044606B140B9BD
:10E9200040F235120020314903F0EEFF0224204668
:10E93000F8BDB6F5806F8CBF002001204FF49D72AA
:10E940002A4903F0E1FF4FF48060B0FBF6F070431A
:10E95000A0F580635842584140F23B12234903F02E
:10E96000D3FFA6428CBF002001204FF49E721F49A6
:10E9700003F0CAFFB4FBF6F006FB1040B0FA80F0DB
:10E9800040F23D124009194903F0BEFFB5FBF4F017
:10E99000174BB4F5806F04FB10501C6028BF4FF478
:10E9A0008064144B281A18603B68134E134D1B6A81
:10E9B00030602C6033B19847044618B13B685B68FF
:10E9C0009847B4E70E4B1B7833B13B683068DB687F
:10E9D000984704460028F1D1FF212A6809480AF027
:10E9E0008BF90024A3E700BFD40900208790010819
:10E9F000C4090020CC090020C0090020D009002053
:10EA0000DC090020BC050020F8B5254F04463D7800
:10EA100035B147220020234903F076FF02242AE083
:10EA200000282AD0436843B3836833B3C36823B351
:10EA3000036913B3436903B38369F3B1C369E3B1F2
:10EA40004FF48062FF2118480AF056F90122174B53
:10EA5000174E1A70174B34601D70174B1D60174B03
:10EA60001D60174B1D60174B1D60174B1D60236801
:10EA70009847044618B12046F8BD4D22CAE7134B0B
:10EA80001B784BB933681B699847054620B133683A
:10EA90002C465B689847EEE701233B70EBE700BF2D
:10EAA000DD09002087900108BC050020BC0900207A
:10EAB000D4090020C8090020CC090020D00900207A
:10EAC000C0090020C4090020D8090020DC0900206A
:10EAD0002DE9F74F454D834695F800800E46B8F175
:10EAE000010F144608D000207B22414903F00CFF9F
:10EAF000022003B0BDE8F08F3E4F3A7852B9FFF7DD
:10EB000001FF10B102232B70F3E73B4A87F8008026
:10EB1000C2F800B0DFF8E480374FD8F800003A6858
:10EB2000BBFBF0F1B2FBF0FC00FB11B100FB1C20C1
:10EB3000ABEB0101121A914204D05846FFF7B2FE26
:10EB40000028DFD1DFF8B8A03A68DAF80000BBFB94
:10EB5000F0F1B2FBF0FC00FB11B100FB1C20ABEBB1
:10EB60000101121A914236D1DFF89890D9F80020AD
:10EB7000D8F800100A445A4504D85846FFF792FEC8
:10EB80000028BFD16CB3204BDAF800101A680A4491
:10EB90005A4504D85846FFF7B5FE0028B2D1D9F837
:10EBA0000000D8F80020194B0244A2EB0B02A2424D
:10EBB00028BF2246ABEB00003146184401920AF010
:10EBC00073F8019A1248B2FA82F14909017093442C
:10EBD0001644A41ACAE75846FFF794FE0028C3D08B
:10EBE00090E72046C7F800B083E700BFDD090020AA
:10EBF00087900108C8090020D8090020D00900200A
:10EC0000C4090020CC090020C0090020BC05002058
:10EC1000BC09002070B5194E307830B9CC221849A3
:10EC200003F072FE0224204670BD012823D100208B
:10EC3000FFF738FE0546134B1B685B6898474FF497
:10EC400080620446FF2110480AF056F801220F4B5B
:10EC50001A7000230E4A9C4208BF2C4613700D4ABE
:10EC6000337013600C4A13600C4A13600C4A136033
:10EC70000C4A1360D7E70025DDE700BFDD0900205F
:10EC800087900108D4090020BC050020BC090020A1
:10EC9000C8090020CC090020D0090020C0090020AC
:10ECA000C4090020D809002010B5044603F040FC38
:10ECB000014B1C7010BD00BFDC0900204FF48060C8
:10ECC00070470000024B1878431E58425841704765
:10ECD000FD0D002008B50D4B187828B983220C498A
:10ECE00003F012FE022008BD0020187004F090FF0F
:10ECF00050B9084B1B780BB10020F4E702F04BF839
:10ED00000028F9D12520EEE71F20ECE7FD0D0020BB
:10ED1000DC900108FE0D002038B5174D2C783CB171
:10ED200062220020154903F0EFFD0224204638BD81
:10ED300022462146204604F069FFD0B9104B4FF41B
:10ED400080621C700F4B21461C700F4B0F481C70CB
:10ED50000F4B1C600F4B1C600F4B1C700F4B1C604B
:10ED60000F4B1C600F4B1C6009F0C6FF01232B707A
:10ED7000DCE71E24DAE700BFFD0D0020DC9001086F
:10ED8000FE0D0020FC090020F4090020FD090020F0
:10ED9000F0090020F8090020E8090020E40900201B
:10EDA000EC090020E00900202DE9F843634D0646F8
:10EDB0002B780C46012B08D0A2220020604903F0DA
:10EDC000A3FD02242046BDE8F883C0F309031BB16C
:10EDD000AB2200205A490CE0B2F5806F02D3C2F397
:10EDE000090008B1B222F4E7B2F5806F06D0B9226B
:10EDF0005349022403F088FD2C70E3E7514B1B7844
:10EE00007BB9514B187808B9C122F1E74F4B1B6809
:10EE10009E4204D34E4A126813449E4201D3C72235
:10EE2000D7E74C4A137843B14B4B4C491B680968F0
:10EE30000B449E4201D0CF22CBE7494B4949334492
:10EE40008B4203D8022320242B70BBE701234FF40D
:10EE500080671370404B06F178481E603F4BB8F551
:10EE60003C4F1F6050D201F098FF002852D03E4A1C
:10EE7000DFF8F890921BBA4228BF3A462146D9F8EB
:10EE80000000FFF715F93A4BC9F800009E4207D879
:10EE900038483A462146404409F006FF002491E7ED
:10EEA000354B9E4236D194F8FD2394F8FC3343EA67
:10EEB000022394F8FE2343EA024394F8FF2343EA33
:10EEC0000263984222D122463946304601F0EFFDD6
:10EED000F0B94FF0006001F0E1FD98B939464FF00C
:10EEE0000060244A01F0E3FD00280CBF0024202428
:10EEF00001F03EFE0122214B1A70002CCED00223DD
:10EF00002B705FE71024F3E72324F8E72724F6E7C4
:10EF10002024F4E722464FF48061304601F0C7FD1B
:10EF2000044600288ED1164B06F580669E42B5D366
:10EF300001F01EFE0122114B1A7043E7FD0D002067
:10EF4000DC900108FC090020F4090020F0090020F1
:10EF5000F8090020E8090020E4090020EC0900205D
:10EF6000FF43FFF7FE3F0100FCBB0008E009002063
:10EF7000FF030008FD09002000B80008FE0D002076
:10EF800000BC00084FF480607047000070B52E4D43
:10EF900004462B78012B06D00020FF222B4903F0DA
:10EFA000B3FC022070BDC0F3090040B140F207126B
:10EFB0000020264903F0A8FC02202870F2E7244A2A
:10EFC000137853B1234B24491B6809680B449C42B6
:10EFD00003D04FF487721D49ECE704F17843A3F5A1
:10EFE0004041B1F59E3F03D2022321202B70D9E787
:10EFF00001214FF480661170164AB3F53C4F14603E
:10F00000154A166017D201F0C8FE70B1B4F1006F56
:10F010000BD1204601F042FD88B9314620460F4A07
:10F0200001F045FD68B90020BCE7204601F036FD3F
:10F030000028F8D0D8E7232002232B70B2E7102055
:10F04000FAE72020F8E700BFFD0D0020DC90010862
:10F05000F4090020F0090020F809002000C0000891
:10F06000F8B5154D2B78012B07D0002040F2371250
:10F07000124903F049FC0220F8BD114E337843B128
:10F08000002040F23D120D4903F03EFC02202870A2
:10F09000F2E74FF000640B4F2046FFF777FF18B1FF
:10F0A000022322202B70E7E704F58064BC42F3D1F1
:10F0B00001233370E0E700BFFD0D0020DC90010864
:10F0C000FC09002000BC0008252208B500210948E1
:10F0D00009F012FE0023084A1360084A1370084A18
:10F0E0001370084A1370084A1370084A1380084ABC
:10F0F000137008BD070E0020300E00202D0E0020DA
:10F10000060E0020340E00202C0E0020000E0020E1
:10F11000350E00202DE9F74F984600239246954A78
:10F1200089460E9F4518117806463B6021B101784B
:10F130003A2940F0D68013708F4B1A78C2B18F4CA9
:10F14000002221461A70404611F8042B09F0ACFD4C
:10F1500022783B688A4913443B600B686078A47846
:10F160001B0C1B0440EA04200343134490440B602F
:10F17000824C0196019EAE4200F0B380019B13F8D1
:10F18000012B0D2A0193F5D03A2A1DD00A2AF1D07D
:10F190007C497D4B09781B78002900F0DC80D00683
:10F1A00002F00F0158BF0931E25C01F00F01114379
:10F1B000E15422780133DBB27348111D9942037088
:10F1C00040DA0023184610E025220021204609F0ED
:10F1D00093FD00236B4A13706B4A13706B4A1370D4
:10F1E000C8E714F80CC06044C0B25FFA83FC614504
:10F1F00003F10103F5DA002840F0B880634B197879
:10F2000001BB012119706378A17894F803B043EA37
:10F2100001235BBA98B26370C3F30723A370BBF1F9
:10F220000D0F0FD8DFE80BF0142F600E7C0E0E0EC2
:10F230000E0E070E0E146279237943EA0223544A14
:10F240005BBA13804F4A1378B3FA83F35B09C6E7BE
:10F250004F4B1B883BB14F490988994203D04E4917
:10F26000098899423AD1DFF818B14C4BDBF800C05D
:10F270000CEA030101438C453F4917D001234FF0AD
:10F28000020B0B701E440C9B3A68FF219A1A4046F1
:10F2900009F032FD3A4B3A681B68AD1B9B1A0D9A78
:10F2A000A9EB05051360CAF8005035E0002008708E
:10F2B00040463B4909F0F8FC21783A68374B0A444C
:10F2C0003A60DBF80020A07813406278884442EA74
:10F2D000002213430B44CBF80030B3E70122254B47
:10F2E0001A704FF0000BCEE70C9B3A68FF219A1A78
:10F2F000404609F001FD224A39681368AD1B5B1ACC
:10F300000D99A9EB05050B60637921791B0143EA8F
:10F310000133CAF800501360584603B0BDE8F08FBF
:10F320000C9B3A68FF219A1A404609F0E5FC144A02
:10F3300039681368AD1B5B1A0D99A9EB05050B60C5
:10F34000637921791B0443EA01634FF0020BCAF889
:10F3500000501360E0E7242B3FF674AF02F00F017A
:10F36000D20658BF09310901E1546BE74FF0040B95
:10F3700089E700BF350E00202C0E0020070E00206C
:10F38000300E00202D0E0020060E0020340E00202E
:10F39000000E0020040E0020020E00200000FFFFDF
:10F3A0000B0E0020024B0021186806F0E9B800BFE0
:10F3B000600E0020014B186806F0F6B8600E0020C1
:10F3C00008B506F02FFD064B40F269121B6805498F
:10F3D0001B1A58425841BDE8084003F095BA00BFD7
:10F3E000640E00205C91010838B5104C104D0FCD13
:10F3F0000FC40FCD0FC495E8030084E8030000F0AC
:10F4000037FB0C4801F08CF901F028F94FF4007239
:10F41000094B1860094B400A1A600122084B1A6018
:10F42000084B094A1860094B1A6038BD380E002095
:10F43000B091010841F60008702A0020382A002007
:10F44000342A0020302A00206C0E00202C2A0020B4
:10F450007047000010B50446FFF7A4FF054B3CB110
:10F460001A780AB902221A70BDE81040FFF7A2BF4D
:10F470001C70F9E76D10002008B5FFF793FF074BEC
:10F480001978074B1A788A4203D1022A04BF012255
:10F490001A70BDE80840FFF78DBF00BF6C10002058
:10F4A0006D1000202DE9F843064613380128454C1D
:10F4B00094BF002001204FF43A72434903F024FA2C
:10F4C00094F82030032B07D1BDE8F8434FF43B728A
:10F4D00000203D4903F018BA2368002B50D0A569DD
:10F4E000E269AA424CD325B16568A268AA1A5542BE
:10F4F000554105F0010294F8269084F82520002B50
:10F5000040D194F82770033F18BF0127002D3BD04E
:10F5100094F8248094F82330002B236908BF002539
:10F52000013333D0606840F20A32013018BF012045
:10F53000254903F0E9F9626823699B1A6269B2EB15
:10F54000432F8CBF0123002316B3032384F82030FC
:10F5500094F82030032B0CD194F821303BB1FEF706
:10F5600037FF00239E4208BF064684F82130174B20
:10F570001E70B9F1000F23D1BDE8F843FFF77CBF3F
:10F580000025B6E70127C1E7A846C3E70023DBE76C
:10F59000B9F1000F09D033B9002FD6D0B8F1000F60
:10F5A00008BF0426D1E70626CFE7002DCDD1B8F15C
:10F5B000000F01D00223C9E7002FC9D00123C5E7FE
:10F5C000BDE8F883380E00205C910108360E00205B
:10F5D00030B4194C94F82050032D06D130BC40F2C1
:10F5E00035220020154903F08FB9256805B9206040
:10F5F000A068013094F8270008BFA1600328A06923
:10F6000008BF84F82730904207D9E069904204D9B6
:10F610001AB1032030BCFFF745BF481C02D0A068D8
:10F620008842F6D1032B03D094F827109942F0D1E9
:10F630000020A261EEE700BF380E00205C910108B7
:10F640002DE9F041354C1D4607468846164600F028
:10F6500093FA94F82030032B1FD0B8F1020F16D183
:10F66000D4F80080B04518D1284601F04BF8064682
:10F67000284601F023F804463846FEF727FE3246B6
:10F68000034621464046BDE8F041FFF7A1BFB8F16F
:10F69000000F04D0B8F1010F1BD0BDE8F08138464F
:10F6A000FEF714FE0328F8D0284601F036F8830749
:10F6B000F3D43846FEF70AFE0746284601F022F842
:10F6C0000446284600F0FAFF3B46014622463046F3
:10F6D000D9E72368B342E0D194F8223033B1002354
:10F6E0004FF0FF322360A260A361D6E70C4D0FCD2F
:10F6F0000FC40FCD0FC495E8030084E80300FFF7A3
:10F7000051FE084B1A78012A04D1074A1278022ABE
:10F7100008BF1A70BDE8F041FFF74CBE380E00205C
:10F72000B09101086D1000206C100020F8B5414E1A
:10F73000414C0546FFF744FEFFF734FE327823784C
:10F740009A4203D1BDE8F840FFF734BE40F2F91207
:10F7500001203A4903F0D8F83378022B11D1384B05
:10F7600093F82030012B55D008D9023B012B05D945
:10F7700040F20B220020314903F0C6F84FF4FA732F
:10F7800004E0002B37D12278022A3BD14EF65F20CD
:10F790002C4A1168814203D80D4499421560D1D991
:10F7A00025783778012D08BF022335704FF0000609
:10F7B00008BF23701660FFF7FDFD022F16D1204C05
:10F7C00094F82030032B05D00123304684F82630EE
:10F7D000FFF768FE94F8200040F21112C31E584251
:10F7E0001649584103F090F800F068FA012D17D936
:10F7F000022D19D0F8BD012B04D12378022B0CD097
:10F80000002BC3D040F21B2200200C4903F07CF8EF
:10F810000023BBE744F62063B8E740F6C413B5E71E
:10F820000022094B1A60E5E7FFF7DEFD0122064BD7
:10F83000F8E700BF6C1000206D1000205C910108FB
:10F84000380E0020680E0020682A002008B5FFF757
:10F85000B7FD014B187808BD360E002008B506F03C
:10F86000E1FA094B1860002005F078FE074B18609C
:10F87000FFF7BAFD0023064A1370064A1370064AC2
:10F880001360064A136008BD640E0020600E00205D
:10F890006C1000206D100020680E0020682A0020E7
:10F8A00070B504460D461646FFF78AFD064B1B68E9
:10F8B0004BB1012001F01EFC324629462046BDE82E
:10F8C000704000F033BF70BD682A00202DE9F04180
:10F8D000054688461646FFF773FD534B1B68CBB1B0
:10F8E0000022524B524C1A6094F82030032B11D056
:10F8F000012001F0FFFB32464146284600F042FF5E
:10F9000094F82030032B05D094F8223023B163689B
:10F910009D423ED2BDE8F08140467102FEF7C2FC36
:10F920000328074620D094F8210040F2852241495F
:10F9300080F0010002F0E8FF681C18BF012040F2CF
:10F9400086223C4902F0E0FF6368013394F82730D7
:10F9500008BF6560032B636808BF84F827709D4269
:10F9600007D00320FFF79EFD94F82230002BD1D062
:10F97000CDE794F82730BB42F3D13846FEF7BEFC02
:10F980000028EFD10123E56084F8213084F822308B
:10F99000E8E7E3689D420AD0BCD22369013308BF7F
:10F9A00025612369AB4294BF23612561B2E7E36916
:10F9B000354403EB4623770294F82360E361E56066
:10F9C00026B10020BDE8F041FFF76CBD4FF4317265
:10F9D0000120184902F098FF40F2C522154994F819
:10F9E000210002F091FF39464046FEF7BDFC132886
:10F9F000054610D1FEF7ECFC0123054684F8216092
:10FA000084F8233084F82430FFF722FD6369284608
:10FA10003B446361D6E7142803BF0123354684F8CD
:10FA2000243084F82460F1E7682A0020680E002062
:10FA3000380E00205C910108002203461146104652
:10FA40001847000070B5064607480D46FCF7CAFD8A
:10FA500004462DB136B902460349284609F024F977
:10FA6000204670BD0024FBE7D891010870470000D4
:10FA700037B5304C304A234613F81F0F4FF08061E2
:10FA8000002814BF1846104600F0FEFC2B48FFF774
:10FA9000D3FF0022034614F8145F294827499542F2
:10FAA00018BF204600F032FF2648FFF7C5FF0022AE
:10FAB00003462449244800F029FFFFF7C7FE40B160
:10FAC0002248FFF7B9FF002203462049204800F0F2
:10FAD0001DFF41211F4B204A204802F0B7FC58B1BE
:10FAE0001F48FFF7A9FF1E49034600221D4800F0EA
:10FAF0000DFF002100F0E0FD4FF00063009303F5DF
:10FB00004043019301F049F980B100984FF48062BD
:10FB1000019909F0B9F8044640B91348FFF78CFF82
:10FB2000224603461049114800F0F0FEFFF79EFF01
:10FB300003B030BDB48E01084492010859FE00089C
:10FB400050920108CD0101085C9201081DFF0008D8
:10FB500068920108B2100020B01000206E10002042
:10FB600055000108E996010845FA00087492010859
:10FB70000020704700207047F7B507460C46FFF796
:10FB8000F7FF20B904F0BAF918B1022C0AD103B07A
:10FB9000F0BD04F0BBF90028F7D102F075FD002894
:10FBA000F3D1F4E7002C6FD1012338460DF10701A2
:10FBB0008DF80730FFF7DEFF10BB4FF0FF353B4EEF
:10FBC0000B223846316809F05FF800B93579013405
:10FBD000102C06F10806F3D16B1C1DD00F2D4CD84C
:10FBE000DFE805F008150E1E272B2D313337393D80
:10FBF0003F43454901F0D1F810B1012002F0D6FB96
:10FC00009DF80730002BC2D0FFF736FCBFE7E22299
:10FC10000020274902F078FE00238DF80730EFE737
:10FC2000244B1C6823689847236998476368984762
:10FC3000E6E7012002F008FDE2E70020FAE70120F4
:10FC400002F008FDDCE70020FAE7012002F008FDE1
:10FC5000D6E70020FAE7002002F05EFCD0E70120A2
:10FC6000FAE7012002F002FDCAE70020FAE70120CE
:10FC700002F05EFCC4E70020FAE74FF4887200202F
:10FC80000B4902F041FEBBE7012C80D10B22384624
:10FC9000094908F0F9FF00287FF479AF02F050FE1F
:10FCA00003B0BDE8F040FFF7E7BB00BF08970108CD
:10FCB00080920108F0A30108E996010808B501F057
:10FCC0006AF820B1FFF7C2FD08B9FEF7B1F901F0FB
:10FCD00064F820B102F0B2FB30B1FEF7A9F9054A91
:10FCE00013680133136008BD02F01CFC0128F6D133
:10FCF000F3E700BFB41000202DE9F04FA5B004AE2B
:10FD00000746884691460021802230462E9C9A461E
:10FD100008F0F2FF3146631E7E3413F8012F1AB14A
:10FD20009C4201F8012BF8D13546DFF81CB12B7845
:10FD3000402B0ED05BB9AD1B53464A464146384670
:10FD40000195009602F0ABFD25B0BDE8F08F0135BE
:10FD5000EDE76B78562B33D8412B01D83B4C37E07D
:10FD6000423B142BFAD801A252F823F015FE0008EA
:10FD70005DFD000827FE00085DFD00085DFD000830
:10FD80005DFD00081BFE00085DFD00085DFD00082C
:10FD90005DFD00085DFD0008CBFD00085DFD00086D
:10FDA0005DFD00085DFD00085DFD000833FE0008F4
:10FDB0005DFD000821FE00080FFE00082DFE000872
:10FDC000623BDAB2142ACCD9C8E700F0A3FE04469D
:10FDD0002846FCF707FC03902046FCF703FC039A37
:10FDE000034611180239294424A8884229D9023A25
:10FDF000A91CE818039308F065FF039B21461A46E7
:10FE0000284608F051FF2B78002B90D193E700F0A3
:10FE100069FEDCE700F06AFED9E700F06BFED6E78A
:10FE200000F06CFED3E700F06DFED0E700F06EFE50
:10FE3000CDE79BF82A30064C064A002B08BF144633
:10FE4000C6E7154477E700BFB48E0108D0920108D9
:10FE5000DE8E0108D6920108F7B50F4600B1F1B960
:10FE6000104B4502560231462A460093384600237D
:10FE700002F033FD0C4B04462A46314600930346FC
:10FE80003846FFF739FF094B044400932A462346BE
:10FE90003146384602F021FD204403B0F0BD002079
:10FEA000FBE700BF0F930108DF930108E29301080D
:10FEB0002DE9F7430A9C9846009405460E461746DE
:10FEC0004FF0020902F009FD124B3A463146009309
:10FED000044608EB0003CDF80490284602F0DFFC4E
:10FEE0000B9B04443A4631460093284608EB040332
:10FEF00002F0F3FC084B044400933A46314628468E
:10FF0000CDF8049008EB040302F0C9FC204403B0D0
:10FF1000BDE8F0830F940108AB9401082DE9F74F79
:10FF20000D4692460446FFF791FC064600F09AFD06
:10FF30000746304600F0AAFD06460CB1002D4BD115
:10FF4000264B4FEA442B4FEA4A2A5A46514601971C
:10FF5000009328460023FFF7ABFF214B0446009394
:10FF60005A4603465146284602F0B7FC4FF00108B6
:10FF70001C4F044407F114096EB9022301931A4B74
:10FF80005A46009351462346284602F088FC2044F6
:10FF900003B0BDE8F08F4F45EFD0B8F1000F0AD1A4
:10FFA00002230193114B5A4600935146234628469B
:10FFB00002F075FC0444F3070AD53B685A460093E7
:10FFC00051462346284602F088FC4FF000080444BE
:10FFD000C6F347060437CFE70020D9E705940108A8
:10FFE0000B940108F4960108AB94010812940108DF
:10FFF00070B4049E044D054C002E08BF2C4604949A
:020000040801F1
:1000000070BCFFF755BF00BF159401084BA701084E
:100010002DE9F04186B00DF10C0804460D4640462E
:100020000D991F46164602F000FC00F118030DEB77
:100030000300002300F80C3C0C9B32460093294639
:100040003B462046CDF80480FFF732FF06B0BDE8FE
:10005000F081000000232DE9F04F87B00E46029397
:1000600008B1002975D13C4B1B78012B6ED0022BB7
:100070003A4B14BF4FF000089846394B44025502E2
:100080002946224600933046002302F026FC354BD9
:1000900007460193344B22462946009303463046D7
:1000A000FFF706FF314B07441B8822460193304B74
:1000B0002946009330463B46FFF7AAFF07EB000AAC
:1000C000B8F1000F0AD02B4A534600922946224627
:1000D0003046CDF80480FFF7EBFE824402A802F020
:1000E00011FA804670B3029A62B3234A53460092D3
:1000F00029462246304602F0F0FB0027DFF87CB0AC
:1001000082440DF10C090AF10A02B2F5007F19D2FE
:100110000A225946484608F0C7FD029A484652F856
:10012000271002F069FB0A23224601932946534611
:100130003046CDF8009002F0B2FB0137FAB290459C
:100140008244E0D8504607B0BDE8F08FDFF8308039
:1001500093E79A46F6E700BFB21000202294010808
:100160002E9401086E10002037940108B010002072
:100170003C9401084194010848940108548D0108F9
:10018000179401082DE9F0410024984647F6300302
:1001900005460E46174686B00D990DF10E000393E5
:1001A0000494ADF814408DF8164002F025FB03AB23
:1001B00001930C9B3A4600933146434628468DF8FE
:1001C0001640FFF775FE06B0BDE8F0812DE9F0435B
:1001D0000D46664B85B0560247023A4631460093BB
:1001E0002846002302F079FB614B04463A4631462B
:1001F000009303462846FFF77FFD5E4B04443A46D2
:100200003146009328462346FFF776FD044402F06A
:1002100033FA594B3A46314601900093284623461B
:10022000FFF7E6FE044402F02FFA544B3A463146FB
:100230000190009328462346FFF7DAFE044402F0BB
:100240002BFA4F4B3A4631460190009328462346FD
:10025000FFF7CEFE044402F027FA4A4B3A463146F5
:100260000190009328462346FFF7C2FE044402F0A3
:1002700065F9454B3A46314601900093284623469E
:10028000FFF7B6FE414B04443A46314600932846F8
:10029000234602F022FB3E4B044400933A46234699
:1002A00031462846FFF728FD044400F03BFC08B324
:1002B0004FF006090DF108084A463649404608F055
:1002C000F3FC354B3A46314600932846234602F06C
:1002D00004FB044400F056FD04220146404602F0AF
:1002E000C8FA23463A4631462846CDE9008902F04D
:1002F000D6FA0444294B3A46009331462346284611
:1003000002F0EBFA044400F00DFC58B100F024FCBC
:10031000234B019000933A46234631462846FFF787
:1003200031FF044400F01EFC1E4B3A46314601905A
:10033000009328462346FFF725FF1B4B04441B6808
:100340003A460193194B3146009328462346FFF75E
:100350005FFE174B044400933A4623463146284635
:10036000FFF7CAFC204405B0BDE8F08353940108B0
:10037000AE940108BE940108CB940108D6940108FC
:10038000E9940108FC9401081995010826950108D3
:10039000409501085E8D0108589501086D9501088A
:1003A000D7950108E6950108B4100020F4950108DE
:1003B000029601087047704710B55402084622465D
:1003C000002108F099FC204610BD000008B5034646
:1003D00008463BB94FF40072034908F065FC4FF43E
:1003E000007008BD0020FCE7C014002008B50346DB
:1003F00008463BB94FF40072034908F055FC4FF42E
:10040000007008BD0020FCE7C916002083185B02BD
:10041000B3F5806F70B506460D46144607D9002027
:1004200040F263220A4902F06FFA002070BD4FF4D7
:1004300000720021284608F05FFC36B9054B2846BB
:100440001A680549520108F02FFC6002EEE700BF70
:1004500088970108BC140020BC1000204300013321
:10046000B3F5007F05D340F239120020044902F0B1
:100470004BBA044A02F81010090AD154704700BF61
:1004800088970108C01400202DE9F84F4FF0000BA9
:100490008A46DFF88C914FF40072002106464846E8
:1004A00008F02AFC5F4D4FF4007200215E4808F00E
:1004B00023FCC02259465D48C5F800B008F01CFC7A
:1004C0004FF4806259465A4808F016FC594B5A4A74
:1004D00083F800B0594B5A4CDFF868815A4F1A60C4
:1004E0005A494FF400724846C4F800B0C8F800B04A
:1004F000C7F800B008F0D8FB99F80C3099F80B2039
:100500000AF5803A42EA0322BAFBF2F341F25A0AB0
:1005100099F80D200AFB02F199426AD94FF4AB72A7
:1005200058464B4902F0F0F999F80D300AFB03F3F5
:10053000B3F5803F4FF0000264D389F8132089F8A7
:100540001420C3F3072289F82120C3F3074289F856
:10055000222089F820301A0E89F8232099F80D20DE
:10056000DFF8C8A0B3FBF2F35B0003F2FF13C3F3A1
:1005700047223849C3F3474389F8162050463022B2
:1005800089F8173008F090FB99F8172099F8163081
:10059000012043EA02230422C8F80020DAF80820E8
:1005A0005B02CAF81430CAF8203002EB4302DAF8D2
:1005B0002C304FF6FF711A443A60F8221A4B28602B
:1005C0001A70FF225A70FFF749FF2B68202201336F
:1005D0002B60002320491648236008F065FB0B229E
:1005E0003146134808F060FB236801332360BDE8FF
:1005F000F88F4FF6917A0AFB02F29A4298D240F2B3
:1006000059128DE7C3F3072189F8133089F81410C4
:1006100089F8202089F8212089F822209CE700BF52
:10062000C9160020C0160020C0140020CC180020DD
:10063000BC100020C8160020B7030108C416002013
:10064000BC1400208C190020B81000200B98010861
:10065000889701082C9A01080B9A010810B5144BD1
:10066000DC7C187D54EA002006D0DC7A1B7B44EA4F
:1006700003244443204610BD93F8210093F8204002
:1006800044EA002493F8220044EA004493F823004B
:1006900054EA006405D0DA7A1B7B42EA03235C4308
:1006A000E8E740F289122046024902F02DF9E1E71D
:1006B000C916002088970108C1727047427F037FE6
:1006C00043EA0223827F43EA0243C27F53EA026382
:1006D00011D0837EC07E094A43EA0020517B831EED
:1006E000D07A127B40EA022205480068B0FBF2F0A3
:1006F00001FB030070474FF0FF307047C916002020
:10070000B8100020427F037F43EA0223827FC07F2C
:1007100043EA024343EA00607047C07A7047000032
:10072000014B1860704700BFC41600202DE9F04748
:1007300089460446154600214846520208F0DCFA74
:1007400000270F4E06F1C00A3846B368844207EB13
:1007500053270ED3A7420CD9A7EB0408A84528BFFE
:10076000A846201A42464946336898474444A5EBB8
:10077000080515B10C365645E6D1BDE8F08700BF37
:10078000CC1800202DE9F74F4FF00008044615461D
:1007900040464FF00C0BDFF85090DFF850A0D9F82E
:1007A00000205FFA88F39A4202D803B0BDE8F08FC8
:1007B0000BFB03A39E68844200EB56260DD3B44284
:1007C0000BD2371BAF4228BF2F46201A3A465B6830
:1007D0000191984701993C44ED1B08F10108002D57
:1007E000E3D03046DBE700BF8C190020CC18002096
:1007F000F0B50346007885B0E52811D088B12028EF
:100800000ED0114F5E1E03F10A0416F8015F10228C
:100810003946684608F048FAA5F16103192B02D859
:10082000002005B0F0BD1F2D01D8052DF8D16A4676
:10083000002312F8011B8D42F2D00133102BF8D1A6
:10084000B442E2D10120ECE7DA97010883185B0299
:10085000B3F5806F2DE9F74F884608D94FF41F7222
:100860000020274903B0BDE8F04F02F04DB8B0FAC0
:1008700080F4244B6409560203EB402ADFF8889089
:10088000770901EB441B0AEB4415BC4207D33246FF
:100890004146504603B0BDE8F04F08F005BA2022AB
:1008A0005946284608F0F0F9B8B10B2259462846B7
:1008B00008F0EAF92A4601905B4602215846D9F829
:1008C00000C0E0479BF80020E52A0BD15B462A4692
:1008D00001212846D9F800C0E04701340BF1200B74
:1008E0002035D2E7019B002BF7D05846FFF780FF59
:1008F0000028F2D05B462A4600215846EAE700BFAE
:1009000088970108BC100020C41600202DE9F74F7D
:100910001C46DFF824818A4691468346FFF768FF2C
:1009200040F29512454901F0EFFF98F80C2098F835
:100930000B7047EA022798F80D207A43531E234490
:10094000B3FBF2F74CB300233D4D7A1E2E689A425A
:10095000286815D84FF6FF71FFF780FD2B6801332B
:100960002B60384A13681F2B19D94FF4D572002019
:10097000324901F0C9FF0025284603B0BDE8F08FD9
:10098000411C89B201920093FFF768FD2968009B22
:100990000131019A29600133D9E72646E1E72A4D62
:1009A0002A4905EB4315013313602846202208F03D
:1009B0007BF90B225946284608F076F9C6F3074121
:1009C00023482975310E69750168C4F307222C7715
:1009D0006A77AE76C4F30742C6F30726240E0F29C2
:1009E000AA77EC77EE7602D94FF4DC72BFE70C24DD
:1009F000184E194ABAF1000F18BF5646B9F1000F48
:100A000018BF4A464C43154B013103EB040CCCF89C
:100A100004201E5198F80C4098F80B30104A43EA15
:100A2000042398F80D40016063437B43CCF8083001
:100A30001378013313709FE7C916002088970108C7
:100A4000C0160020BC140020BC100020EB97010849
:100A50008C190020B9030108B5030108CC18002047
:100A6000C8160020272808B503D8054B53F82000E6
:100A700028B90020F722034901F046FF024808BDCB
:100A800010A201085C9A0108AD94010827289ABFBA
:100A9000014B185C01207047B0A2010810B5EFF3BC
:100AA000108472B603F0B6F884F3108810BD10B548
:100AB000EFF3108472B603F0C9F884F3108810BD08
:100AC00000F17843B3F5003F09D201F178410139D3
:100AD0000844B0F5003F2CBF0020012070470020E3
:100AE00070470000004870470E1A00200048704709
:100AF000AC19002000487047BF190020004870471B
:100B0000ED19002000487047B619002000487047D2
:100B10003F1A002000487047E01900200048704745
:100B2000541A002008B50C210848FFF7C9FF50B13E
:100B30004FF00063064A196A914205D1586A054B85
:100B4000C31A5842584108BD0020FCE720000008A5
:100B5000939D939B08999697014B1868704700BF27
:100B600090190020014B1868704700BF98190020A9
:100B7000002370B5154E164D164C4BF6FC314FF058
:100B8000006033602B602360FFF79AFF30B14BF6B3
:100B9000FC314FF00060FDF75DFA30600E490F4800
:100BA000FFF78EFF20B10C490C48FDF753FA28607F
:100BB0004FF480610A48FFF783FF28B14FF480614A
:100BC0000748FDF747FA206070BD00BF901900206C
:100BD0009819002094190020FC3B010000C0000877
:100BE00000FC01082DE9F041FFF7C2FF5A4803F06D
:100BF00091F905F0F3FA052200210446574808F060
:100C00007BF821220021564808F076F821220021A5
:100C1000544808F071F809220021534808F06CF894
:100C2000052200214D4808F067F804250026DFF86A
:100C300028814B4FB81958F8041B01F0DDFD013D28
:100C4000064415F0FF05F6B2F4D1BD550426DFF8D1
:100C50001C81444F781958F8041B01F0CDFD013E6A
:100C6000054416F0FF06EDB2F4D17E553E4D4049E5
:100C7000284601F0C1FDC0B22E5405F07DFA374D73
:100C800001460422284608F00FF8C4F30F32092A5F
:100C9000C4F307332E7188BF5733364E98BF3033B5
:100CA000DBB23370C4F30323092B8CBF57333033CB
:100CB000737001F037FC0128C4F303153FD145F0F0
:100CC000080530222C4B04F00F041A7032225A709F
:100CD0003522092D8CBF57353035092C8CBF573440
:100CE00030349A70F47037220024DA701C7131228B
:100CF0002146B5702148347107F0FEFF17491F489F
:100D000008F002F81B491D4807F0FEFF14491B4874
:100D100007F0FAFF1449194807F0F6FF1748FBF7E8
:100D200061FCC0B2164B421C52001A7003222546C9
:100D30005A70124AE1B2884206D8BDE8F08105F047
:100D400071FA0028BBD0BCE712F8011BDD70997066
:100D500001340233EEE700BF9C190020AC190020DB
:100D6000BF190020ED190020B6190020441A0020F8
:100D700008999697B11900203F1A00200E1A0020FA
:100D8000541A002008B5FFF7CDFE10B14FF00063F4
:100D9000986A08BD70470020704701207047000026
:100DA00010B50A4C0221206805F050F8084A136873
:100DB000591C1160074A5343B3F1553F05D82068C9
:100DC0000121BDE8104005F041B810BDC01A002057
:100DD000BC1A0020ABAAAAAA70477047704700004F
:100DE00038B50E4C237843B103F090F8054680B92E
:100DF000022005F047FA25700BE003F087F848B1B0
:100E0000074B1B68DB69984718B905F03BFA0123CB
:100E1000237038BD2378002BFBD0E5E7C51A0020EE
:100E2000F0A30108704770472DE9F84F01F050FA20
:100E300002F034FF002003F053F8934C002003F03D
:100E400059F8002003F058F8FCF77AFA20884FF49C
:100E50009572451E68428D49684101F055FDE36E6B
:100E600003B1984705F0EEF9894B1B6813B1DB68B5
:100E700003B19847E468A10702D5012000F0A6F964
:100E8000E20702D50120FDF70FFFFFF7ABFEFFF7EA
:100E900081FF07F033FA01F045FBB0FA80F040091A
:100EA000FEF7D8FA002007F037FA01210024DFF816
:100EB000E4810022784B794888F8001005F0E8F8C2
:100EC000032105F0F9F816274FF00B0A25462646B0
:100ED000DFF8CCB14FF0FF32002140F63F2004F0A4
:100EE000E5FF83051FFA80F907D56E4B1B7813B118
:100EF000012003F06BFD03F0D7FC19F0040F02D0C2
:100F0000022005F0BFF919F0100F13D0032005F0EF
:100F1000B9F9002002F0FCFF002007F0FDF90020E5
:100F200002F0DEFF002002F0E5FF002002F0E4FF07
:100F3000FFF778FF19F0200F02D0032005F0A2F987
:100F400019F4006F01D001F018FC19F0080F01D05E
:100F5000FFF769FF19F0010F13D05A20FEF7E6FBE7
:100F600098F80030052B0CD8DFE803F0745074605B
:100F70000B03002088F8000002F0CAFF002007F0F1
:100F8000CBF919F0020FA5D0FFF72AFFFFF726FFD4
:100F9000454B1B7883B1454B1A78511E012963D804
:100FA000002E64D0012A4FF0000602D13E4A16708E
:100FB0001E70304602F094FF9BF8003083B13C4B2A
:100FC0001A78511E012954D8002C56D0012A4FF00E
:100FD000000402D18BF800401C70204602F08CFF08
:100FE000344B1A78002A3FF475AF334A1178481E03
:100FF000012844D8002D45D001294FF0000501D12A
:101000001D701570284602F075FF63E7BAF1000FF6
:1010100002D0BAF1010AB4D1012007F07DF903230F
:1010200016274FF0000A88F80030AAE707F096F973
:1010300030B1012002F06CFF022388F80030A0E7F5
:101040000FB1013F9DD10027012002F061FF88F818
:10105000007096E707F082F90028EDD116274FF0CF
:101060000B0A88F800008CE700260F4BA0E701264A
:101070009FE700248BF80040AFE70124ADE700258F
:101080001D70BFE70125BDE7B48E0108E3A201088A
:101090008C2800208C1E002068A30108A10D0108E7
:1010A000C41A00208D1E0020B91A00202100002043
:1010B00022000020B81A002020000020024B04214A
:1010C000186804F0C3BE00BFC01A00200122024B02
:1010D0001A70024B18707047B91A002021000020C6
:1010E0000122024B1A70024B18707047B81A002088
:1010F000200000200122024B1A70024B187070472A
:10110000C41A002022000020024B4FF4006118682E
:1011100004F09CBEC01A0020014B1870704700BF3D
:101120008D1E0020024B4FF40071186804F08EBE33
:10113000C01A002008B5084A084B9A6002F0F6FE73
:1011400003F05EFD0021064A064804F059FE064BF6
:10115000186003F069FDFEE700C0000800ED00E044
:1011600044A30108290E0108C01A0020FF2307B577
:10117000332069468DF800308DF801308DF802304B
:101180008DF803308DF804308DF805308DF8063079
:101190008DF80730FCF73EFA012003B05DF804FB40
:1011A000094B5A6822F470025A605A685A605A68A9
:1011B00022F070625A605A685A605A6822F47022AB
:1011C0005A605A685A607047000C0140014B187011
:1011D000704700BF981E0020002310B5DCB2A24269
:1011E00000D810BDDC0021FA04F4C4540133F5E743
:1011F00070B505460E46642431462846FCF786FB4A
:10120000022803D1013C14F0FF04F5D170BD13B5E1
:101210000C46014668460422FFF7DEFF0146052022
:10122000FFF7E6FF012810D10F2001A9FFF7E0FF2B
:1012300001280AD10E2001A9FFF7DAFF019B2360E4
:10124000431E5842584102B010BD0020FBE7042263
:1012500013B50C4601460DEB0200FFF7BDFF01463A
:101260000520FFF7C5FF012802D0002002B010BD05
:10127000042221460DEB0200FFF7AEFF01460D20D0
:10128000FFF7B6FF0128F0D100210E20FFF7B0FFD5
:10129000431E58425841E9E7014B1860704700BFB0
:1012A0002400002008B5FCF74BF8164B01205A68C3
:1012B00022F470025A605A6842F440125A604FF4A5
:1012C00000521A615A6822F070625A605A6842F0FD
:1012D00040725A604FF480421A615A6822F47022B8
:1012E0005A605A6842F400225A604FF480521A61E0
:1012F0001A6822F00F021A601A6842F007021A6098
:10130000186108BD000C014008B5FFF749FF012036
:1013100008BD13B500F00C000C4640F0020001A916
:10132000FFF766FF019B2360431E5842584102B0FD
:1013300010BD0000082837B505460C4603D10E4BFA
:101340001B688B4215D0042221460DEB0200FFF7EB
:1013500043FF014605F00C00FFF74AFF012803D1C7
:10136000082D04BF044B1C60431E5842584103B073
:1013700030BD0120FBE700BF901E00201E2108B5F4
:101380000020FFF7D7FF003818BF012008BD00007C
:1013900037B504460D4604F0B5FF08B904F07F40A8
:1013A00004F0F00101430820FFF7C4FFD8B124B9CD
:1013B000104B5A68AA421AD05D60042229460DEBF0
:1013C000020004F00C04FFF707FF014644F001009F
:1013D000FFF70EFF012808D100210E20FFF708FFBC
:1013E000431E5842584103B030BD0020FBE70120A6
:1013F000F9E700BF901E002038B504460D460020D6
:101400000549FFF7C5FF30B129462046FFF7FFFE2B
:10141000003818BF012038BD5200002338B50446FB
:101420000D4600200549FFF7B3FF30B1294620469D
:10143000FFF70DFF003818BF012038BD5200002310
:1014400037B504460D4600200949FFF7A1FF60B1FA
:10145000204601A9FFF7DBFE38B10120019BE40023
:1014600004F0180423FA04F42C7003B030BD00BF5C
:101470005000002338B504460D4600200749FFF709
:1014800087FF50B1E30003F01803204605FA03F18B
:10149000FFF7DDFE003818BF012038BD50000023E3
:1014A0002DE9F74F14468E1800EB0209A6EB04084D
:1014B000A9EB040564B9012003B0BDE8F08F4146F3
:1014C0002846FFF7BDFF08B90020F5E7013CEDE72E
:1014D00015F00307F3D1DFF898A0032C0BD8BC421A
:1014E00008EB070105EB0700E5D0FFF7A9FF01377F
:1014F0000028F4D1E8E7C5F30906C6F58066B442D2
:1015000051464FF0000038BF24F00306FFF740FFBC
:101510000028D9D0042229460DEB0200FFF75CFE1B
:1015200001460520FFF764FE0128CDD100210F20E0
:10153000FFF75EFE0128C7D14FF0000B4FEA960976
:1015400009F1FF39CB4508EB8B0108D30E20FFF7DB
:101550004FFE0128B8D13544B044A41BBDE70F208D
:10156000FFF746FE0128AFD10BF1010BEAE700BF00
:10157000520000232DE9F34715460F46A0EB010862
:101580003C4608EB07066DB9012002B0BDE8F087C4
:10159000304621780137FFF76DFF08B90020F4E7E6
:1015A000013DEDE7B307F3D1DFF888A0032D0CD898
:1015B0002544361BA54206EB0400E5D014F8011BB8
:1015C000FFF758FF0028F5D1E8E7C6F30907C7F58C
:1015D0008067BD4251464FF0000038BF25F0030739
:1015E000FFF7D6FE0028D9D0042231460DEB0200C9
:1015F000FFF7F2FD01460520FFF7FAFD0128CDD1E6
:10160000A04627F00309A144C84509D100210E20B6
:10161000FFF7EEFD0128C1D13E443C44ED1BC5E778
:1016200041460D20FFF7E4FD0128B7D108F1040879
:10163000EAE700BF5200002370B50C4601460D4892
:10164000FFF7ECFE58B164250B4E21463046FFF7FC
:10165000D3FE20B12368DB0303D4013DF5D1002084
:1016600070BD21460548FFF7C7FE003818BF0120AE
:10167000F6E700BFF4ED00E0F0ED00E0F8ED00E08B
:1016800037B504460D480191FFF7C8FE88B10C48F4
:1016900044F48031FFF7C2FE58B16424094D284656
:1016A00001A9FFF7A9FE20B1019BDB0304D4013C93
:1016B000F5D1002003B030BD0120FBE7F8ED00E0DC
:1016C000F4ED00E0F0ED00E02DE9F0411E46174694
:1016D000044692B088462422002105A807F00CFB9E
:1016E000189B01970393199B0296049362792379BF
:1016F000257843EA0223A279002143EA0243E279F2
:10170000082043EA02630A93627A237A43EA0223B7
:10171000A27A43EA0243E27ACDF8408043EA0263C8
:101720000E93637845EA0325A378E47845EA0345F8
:101730004FF0807345EA04640F941193FFF7FAFDAC
:1017400008B9002060E001AD0024A846204655F805
:10175000041BFFF795FF0028F3D00134042CF5D1CA
:1017600009200A99FFF78CFF0028EAD00D242046B3
:1017700058F82410FFF784FF0028E2D00134102C21
:10178000F5D120461199FFF77BFF0028D9D02049D9
:101790002048FFF743FE0028D3D01F491D48FFF71C
:1017A0003DFE0028CDD069460420FFF7B2FD002899
:1017B000C7D0009B13F0A00FC3D1184C154D69463C
:1017C0002846FFF719FE0028BBD0009B9A0306D4D9
:1017D000013CF4D1B5E7B0FA80F0400914E041468D
:1017E0000020FFF729FF0028ABD00D490948FFF77B
:1017F00015FE0028A5D09DF868300198012BEAD18C
:101800003E44331A5842584112B0BDE8F08100BF3F
:101810000B005FA0F0ED00E009005FA040420F0068
:1018200003005FA013B5FFF7A1FC10B9002002B0C0
:1018300010BD9E238DF80430E723102001A98DF8F8
:101840000530FBF7E7FEFFF791FC0028EED00024FF
:10185000694608208DF80040FBF7DCFE204601A910
:10186000FFF757FD012818BF2046E0E70023F7B532
:101870004FF0FF32042401932D4B2E4E2E4F1A6051
:101880005A60FFF70FFD336813B19B6803B19847A7
:10189000FFF7C8FF30B9013C14F0FF0423D1204604
:1018A00003B0F0BDFFF76AFD0028F4D00021082046
:1018B000FFF740FD0028EED04FF0A0410420FFF7D5
:1018C00039FD0028E7D06425042001A9FFF721FD98
:1018D0000028E0D0019B03F02043B3F1204F13D048
:1018E000013DF1D1D7E701210020FFF723FD0120C1
:1018F00004F0F6FC022003F069F8002004F0F0FC8C
:10190000022003F063F8BCE739460420FFF712FD1C
:101910000028C0D0336813B11B6903B19847002178
:101920000820FFF707FD0028B5D00124B7E700BF66
:10193000901E00208C280020000F0050062837B58C
:10194000044600F09A80FFF7ADFC072C1CD8DFE8B6
:1019500004F004180965687F1B07012004F0C0FC2F
:10196000012059E0012004F0BBFC022003F02EF816
:10197000002004F0B5FC022003F028F8FFF710FC6B
:10198000EEE7FFF773FF08B9002045E03E4D2878E9
:10199000012804D104F0A4FC022003F017F83B490D
:1019A0003B48FFF73BFD044688B9012004F098FC52
:1019B000022003F00BF8204604F092FC022003F012
:1019C00005F832493248FFF729FD0028DCD0012113
:1019D0003048FFF723FD0028D6D02B782BB9012003
:1019E00004F07EFC022002F0F1FF002004F078FCFD
:1019F000022002F0EBFF264C204601A9FFF7FCFC79
:101A00000028C1D0019B9A03F6D500212148FFF799
:101A100005FD003818BF012003B030BD1E491C4829
:101A2000F5E7FFF7FFFE0028AED0FFF7A7FC002880
:101A3000AAD000210820FFF77DFC0028A4D04FF099
:101A4000A0410420FFF776FC00289DD00F49E6E76F
:101A5000FFF70CFF002897D010490D48FFF7DEFC78
:101A6000002891D00A4C204601A9FFF7C5FC0028A8
:101A70008AD0019B9B03F6D572E707490448FFF71C
:101A8000CDFC002880D079E7981E002001005FA0DF
:101A9000F0ED00E0FCED00E000005FA003005FA0BF
:101AA000062813B5044600F0D780FFF7FBFB072C90
:101AB0001AD8DFE804F004450A9B9EB919070120F3
:101AC00004F00EFC012002B010BD012004F008FC5F
:101AD000022002F07BFF002004F002FC022002F052
:101AE00075FFFFF7C3FE08B90020ECE7042001A949
:101AF000FFF70FFC0028F7D00199042021F0804166
:101B0000FFF718FC0028EFD0042001A9FFF701FC23
:101B10000028E9D001990029F6DB042021F080514A
:101B2000FFF708FC0028DFD0042001A9FFF7F1FB34
:101B30000028D9D0019B9800F6D4FFF731FBC1E70C
:101B4000FFF794FE0028CFD047494848FFF766FCCE
:101B5000044688B9012004F0C3FB022002F036FFDE
:101B6000204604F0BDFB022002F030FF3E493F4812
:101B7000FFF754FC0028B7D03C4C204601A9FFF7E2
:101B80003BFC0028B0D0019B9903F6D501213848D1
:101B9000FFF744FC0028A7D0364801A9FFF72CFC2A
:101BA0000028A1D0344B01991B6801F4E06119436E
:101BB00041F0BF612F4841F40031FFF72FFC0028AE
:101BC00092D0022002F002FF284C204601A9FFF724
:101BD00013FC002888D0019B9A03F6D500212448E5
:101BE000FFF71CFC003818BF01206CE723491F4891
:101BF000F6E7FFF717FE00283FF476AFFFF7BEFBCE
:101C000000283FF471AF00210820FFF793FB002864
:101C10003FF46AAF4FF0A0410420FFF78BFB002890
:101C20003FF462AF1649E2E7FFF720FE00283FF4D9
:101C30005BAF0D490D48FFF7F1FB00283FF454AFAF
:101C40000A4C204601A9FFF7D7FB00283FF44CAF10
:101C5000019B9B03F5D535E708490448FFF7DEFBF8
:101C600000283FF441AF68E703005FA0F0ED00E01B
:101C7000FCED00E00CED00E02400002000005FA07F
:101C800001005FA0024B1878431E5842584170472C
:101C9000A91E00207FB5234E05463278824228D007
:101CA000214B1C68E2B91DB394F838309B071CD453
:101CB00063782178E07841EA0321A3781B4A41EA5E
:101CC0000341002300950293019341EA00611268E9
:101CD00004F11800FFF7F8FC50B90B2004B070BDF8
:101CE00094F83830990706D528B13378002BDFD027
:101CF00035700020F2E763792179E07941EA032128
:101D0000A37941EA0341002341EA00610293019370
:101D1000009304F11800FFF7D7FC0028C3D10C2072
:101D2000DCE700BFA81E00209C1E0020A41E00208F
:101D30002DE9F04F6A4B07461B698946904689B0EA
:101D4000002B00F0C380674B1C68002C00F0C080A3
:101D5000654B1B686BB90220FFF79CFF064620B954
:101D600004F1180AB8F1000F0BD1304609B0BDE8F4
:101D7000F08F5B69002BEED098470128EBD10D2640
:101D8000F3E794F8353094F8345094F8250045EA98
:101D9000032594F83630494645EA034594F8373030
