:04000005080004BD2E
:020000040800F2
:10000000004F0020BD04000809050008F90500089C
:100010001105000815050008190500080292FFAF38
:10002000939D939B08999697010100001D05000878
:10003000210500089C720008250500086556000887
:100040000505000805050008050500080505000868
:100050000505000805050008050500080505000858
:100060000505000805050008050500080505000848
:100070000505000805050008050500080505000838
:100080000505000805050008050500080505000828
:10009000515400080505000805050008050500087D
:1000A0000505000805050008050500080505000808
:1000B00005050008050500080505000805050008F8
:1000C00005050008050500080505000805050008E8
:1000D000050500080505000805500008050500088D
:1000E000050500080505000805050008FFFFFFFFDE
:1000F000FFFFFFFFFFFFFFFFFFFFFFFFFFFFFFFF10
:10010000FFFFFFFFFFFFFFFFFFFFFFFFFFFFFFFFFF
:10011000FFFFFFFFFFFFFFFFFFFFFFFFFFFFFFFFEF
:10012000FFFFFFFFFFFFFFFFFFFFFFFFFFFFFFFFDF
:1004000010B5054C237833B9044B13B10448AFF34E
:1004100000800123237010BD400200200000000076
:10042000F484000808B5034B1BB103490348AFF33C
:10043000008008BD0000000044020020F484000891
:10044000A3F5803A704700BF174B002B08BF134B32
:100450009D46FFF7F5FF00218B460F461348144ACF
:10046000121A06F0D5FE0E4B002B00D098470D4B0C
:10047000002B00D098470020002104000D000D48FB
:10048000002802D00C48AFF3008000F083F9200070
:10049000290000F0A7F906F06FFE00BF0000080079
:1004A0000000000000000000004F0020400200207B
:1004B0002C1C0020000000000000000072B60A485A
:1004C0000A4901600A6882F3088809488047094997
:1004D000094A0A4B9A42BEBF51F8040B42F8040B7A
:1004E000F8E762B60648804708ED00E00000000823
:1004F000E94A00081C850008000000204002002096
:1005000049040008FFF7FEBF0848004708480047B5
:10051000084800470848004708480047084800477F
:1005200008480047084800470848004709050008F0
:10053000F90500081105000815050008190500084F
:100540001D0500082105000825050008655600085E
:10055000034613F8012B002AFBD1181A0138704703
:1005600008B5EFF3088400F00F030D2B01D1EFF372
:100570000984E3699A0554BF04F1200504F12405B8
:10058000C30658BF483503F0B1F9EFF3098003F013
:10059000ADF9EFF3088003F0A9F9EFF3148003F04D
:1005A000A5F9284603F0A2F9606903F09FF9A06954
:1005B00003F09CF9E0690E4C03F098F9E06A03F04F
:1005C00095F9A06A03F092F9206B03F08FF9E06BC4
:1005D00003F08CF9606B03F089F9A06B03F086F9E6
:1005E00043220020034903F065FA00F0B7F9FEE763
:1005F00000ED00E0287300087046FFF7B1FF704778
:1006000001207047002070472DE9F84F03F026F9CC
:1006100010B1642005F098F805F0AEF8484B0125BC
:100620001860002004F01CFC002004F023FC0120D2
:1006300004F022FC02F086FF06F06AF9012001F0C6
:10064000EFFC002006F072F900233E4FDFF8F8803F
:100650003E4E1A4629463E483B70C8F80030357079
:1006600005F077F8032105F079F80B24DFF8E49022
:10067000DFF8E4A04FF0FF32002140F2032005F044
:1006800073F883051FFA80FB01D504F039FF1BF0D6
:10069000010F22D05A2001F0DDFC3B78012B04D160
:1006A000D8F800304BB900233B703378042B14D8B2
:1006B000DFE803F03A2913330900013BC8F80030A2
:1006C000002BF0D0F1E73B783BB90CB1013C04D1F1
:1006D0000024002006F02AF934701BF0020FC9D064
:1006E00099F80030002BC5D09AF800305A1E012A24
:1006F0001DD805BB012B04D1002289F800208AF8FF
:100700000020012518E00CB1013CE6D1012006F0E3
:100710000DF9032300243370DFE706F029F90028E0
:10072000DBD002233370D8E700F018F9D5E70023B7
:1007300089F80030E5E70025284604F09DFB99E79D
:1007400064020020690200206C0200207002002078
:100750005D07000868020020AC01002010B50A4CBB
:100760000221206804F0E9FF084A1368591C11604F
:10077000074A5343B3F1553F05D820680121BDE82E
:10078000104004F0DABF10BD6402002060020020B7
:10079000ABAAAAAA7047002383F31488BFF36F8F14
:1007A00085460847704708B504F068FB28B904F08F
:1007B0006DFB003818BF012008BD0120FCE7704721
:1007C0000122024B1A70024B187070476802002019
:1007D000AC010020024B4FF40071186804F0ADBF6B
:1007E0006402002008B504F05FFB04F017FA02F081
:1007F00077FFFFF7E4FFFFF7D6FF10BB164B1C692E
:10080000FCB1607B237B43EA0023A07B43EA0043E7
:10081000E07B43EA006003F0D1F990B103F01EF8E9
:1008200078B9627B237B43EA0223A27B43EA02433B
:10083000E27B43EA0263094A9360D3E90001FFF7D0
:10084000AAFF04F06BFF00220548114604F06BFF7D
:1008500004F06EFFFEE700BF9C72000800ED00E0B0
:100860000906000838B50446EFF3108572B64368F0
:10087000C268D1544368826801339342436009D30C
:100880004FF030020CBF01200020094903F012F99B
:1008900000236360D4E90003C01A4FF0350218BF8B
:1008A0000120034903F006F985F3108838BD00BF25
:1008B0002873000870B50446EFF3108672B609C8B5
:1008C000C01A4FF0420218BF01200C4903F0F2F8A1
:1008D0002368E268D55CA26801339342236009D3A0
:1008E0004FF047020CBF01200020044903F0E2F85A
:1008F0000023236086F31088284670BD2873000803
:10090000EFF3108172B6426803689A4237BF80687D
:10091000D01A8018C01A81F31088704738B5EFF3E9
:10092000108572B68468FFF7EBFF85F31088013CF1
:10093000201A38BDF8B515460C460646FFF7EEFFFF
:10094000854228BF05466719BC4201D12846F8BD3B
:10095000304614F8011BFFF785FFF5E7BFF34F8F13
:100960000549064BCA6802F4E0621343CB60BFF34B
:100970004F8F00BFFDE700BF00ED00E00400FA0567
:10098000F0B54FF0FF3300240127DFF84CC08C4254
:1009900003DB93FAA3F0C043F0BD07220025065DF8
:1009A00016F0010F1CBF07FA02FE45EA0E05013AD8
:1009B0004FEA5606F4D2082283EA0563002B02F1BF
:1009C000FF324FEA4303B8BF83EA0C0312F0FF0281
:1009D000F4D10134DBE700BFB71DC104F0B500243A
:1009E0000127DFF850C0C04390FAA0F0944203DB27
:1009F00090FAA0F0C043F0BD072300250E5D16F06D
:100A0000010F1CBF07FA03FE45EA0E05013B4FEA42
:100A10005606F4D2082380EA0560002803F1FF336C
:100A20004FEA4000B8BF80EA0C0013F0FF03F4D196
:100A30000134DBE7B71DC10400F0A4BB0023F0B50F
:100A40000D46164689B0CDE906330593441C06AF22
:100A500005AB01934FF4807331460093284623463B
:100A6000029707AA00F0E2FF38B9069A1AB12146A8
:100A7000059800F085FA09B0F0BD02280CD1069A5D
:100A80001AB9079BF61A1D44E2E72146059800F0C3
:100A900077FA0028F5D0EEE7012809D1069A2AB1A5
:100AA0002146059800F06CFA0028E4D11320E2E713
:100AB00004280DD0431FDBB2012BC9D8053818BF5D
:100AC00001204FF4B072034902F0F4FF1620D2E780
:100AD0001520D0E72873000810B540F2011200215C
:100AE000044606F095FB00F07BFF00232370BDE871
:100AF000104000F013BA00F011BA08B503F072F814
:100B0000431E5842584108BD08B500231A4600F05C
:100B100013F9003818BF012008BDF0B5044690F85D
:100B200030000F462F28154685B02DD8C0F130066D
:100B3000964228BF16462044324606F041FB94F800
:100B400030103144C9B22F2984F8301027D900233E
:100B500020461A4600F0F0F820B3002203AB0093C1
:100B6000114602AB00F028F9D0B90298214694F85A
:100B70003020606300F004FA90B9636B94F8302081
:100B800037441344AD1B63632A463946606B00F05B
:100B9000F7F928B9626B14202A44626300E0002050
:100BA00005B0F0BD1C20FBE708B504F0E5FD054BE2
:100BB00062221B6804491B1A58425841BDE808408C
:100BC00002F078BF800300202873000800F0DABA32
:100BD00070B5084E044633680D46984740B929461B
:100BE00020463369984700280CBF0320012070BDC0
:100BF0000020FCE7B001002010B500F1080403223A
:100C00002146074806F01BFB40B103222146054858
:100C100006F015FB00280CBF0120032010BD00BF0B
:100C20003A7300083E73000870B5144D04462E78E0
:100C300036B185220020124902F03CFF022070BD2F
:100C4000012801D98B22F5E704F096FD0D4B4FF4F6
:100C50008272186031460C4806F0DAFA01232B70D4
:100C60000A4B094803EB0414094B1C60636898475E
:100C70000028E4D003232B70E1E700BF7C030020B1
:100C8000287300088003002078020020B0010020B3
:100C90007402002070B5154D04462B780E46012BCA
:100CA00007D0A4220020124902F004FF02242046AB
:100CB00070BDFFF779FF0F4B21461B6832469B68DA
:100CC0000D4898471328044602D102232B70EEE703
:100CD000142800D040B92878B222431E5842044953
:100CE000584102F0E7FEE2E70323EFE77C03002030
:100CF00028730008740200207802002010B5094C07
:100D0000207828B9C022084902F0D4FE022010BD84
:100D1000FFF74AFF054B06481B68DB68984700232E
:100D20002370F4E77C03002028730008740200207D
:100D3000780200200020704730B5054608461C4662
:100D40002F2894BF0020012085B04722174902F0C8
:100D5000B1FE0C2205F1200101A806F031FA0CB910
:100D6000134B1C70134B029A9A420ED103F17F73FE
:100D7000019803F5823303F28713984213D0FC3BAA
:100D8000C31A5842584105B030BD284602F016FF3C
:100D900028B114B90122064B1A700320F3E7002C86
:100DA00018BF0320EFE70220EDE700BF287300081B
:100DB000BE030020089996972DE9F047DDF82080C2
:100DC00006460D4691461F4613B1B8F1000F09D1F2
:100DD00071220020404902F06DFE4FF002094846A2
:100DE000BDE8F0874FF0000AC3F800A0C8F800A0E3
:100DF000FFF706FC0446F8B1022E0BD1B9F1000F43
:100E000002D0364B9D4256D1354B344D1C684FF0C5
:100E1000000905E0032EF1D000244FF01C092546FF
:100E200002F0ADFD08B9012E52D0B9F1000FD6D1B4
:100E3000002C49D1B822CCE7FFF7E4FB0028EBD027
:100E4000012E0AD1B9F1000F02D0B5F1006F37D1F0
:100E5000234B4FF000651C68D9E7032EDCD1214BF2
:100E60001A69002AD8D00C325378157845EA032540
:100E7000937845EA0345D37855EA03650DD1517956
:100E8000137943EA0123917943EA0143D17953EA83
:100E9000016302D1144B1C68B9E7517A137A43EA13
:100EA0000123917A43EA0143D17A43EA0163012B9A
:100EB000F0D01432D8E7544655464FF01B09AFE73F
:100EC00025464FF01A09ABE73D60C8F8004086E7B9
:100ED0004FF01C0983E700BF2873000800C000081A
:100EE0006C7300089C7200084473000870B50646D5
:100EF0000C461546FFF786FB48B1032E07D1064B7B
:100F00001B6923B129462046FFF714FF08B90020CA
:100F100070BD1D20FCE700BF9C72000838B50F4D66
:100F20002C783CB1DA2200200D4902F0C3FD0224E6
:100F3000204638BD3022FF210A4806F069F9012316
:100F40002B70094B1C70094B1C60094B1C60094B32
:100F50001C60094B1C70094B1C70E9E7C50300209D
:100F60002873000888030020BD030020B803002078
:100F7000C003002084030020BC030020C403002021
:100F80002DE9F04F724E154632780446012A0F467D
:100F900085B008D00020EF226E4902F08BFD0220C0
:100FA00005B0BDE8F08F6C4B197821B96B491A7008
:100FB00008606B490860DFF8AC8198F80030002BBE
:100FC00070D1674A13685919A342116048D1DFF8FC
:100FD00098A1DFF898B1DAF800003946C0F130097D
:100FE000A94528BFA94658444A4606F0E9F8DAF868
:100FF00000004F4448442F28CAF80000A5EB09051B
:101000004C444BD9A0F130035842584140F21112E0
:10101000504902F04FFD514A012358461268DAF850
:101020000010FFF789FE524B187002ABDFF84091B9
:101030004A4900930122096899F8000003ABFFF7C1
:10104000BBFE50B902F09FFC70B1474B47491A688C
:1010500099F80000FFF74AFF30B1032333709FE790
:101060000322434B1A70E0E798F800004FF49A729D
:1010700080F00100374902F01DFD029800F05AF996
:101080000028EAD1012388F80030374B37491A6825
:10109000324B186800F0B2F920B1DEE798F8003062
:1010A000002BF2D198F8003033B12A463946204659
:1010B00000F0A4F90028D0D12D4B1B78022B43D08F
:1010C000032B03D0012B41D0002069E7294B18786E
:1010D00000283FF465AF284B186900283FF460AF43
:1010E00000F10C025178137843EA0123917843EA26
:1010F0000143D17853EA01630BD15079137943EA64
:101100000023907943EA0043D07953EA006002D18A
:1011100046E79C420CD35379107940EA0320937937
:1011200040EA0340D37940EA03608442034601D990
:101130001432D7E700283FF433AF2C449C42C3D38A
:101140000223132033702BE70C4BF6E70C4BF4E72C
:10115000C503002028730008C4030020C00300203A
:1011600084030020BC030020B80300208803002073
:10117000BD030020BE0300209C72000800FC010893
:1011800000BC000810B50E4B1C783CB9204640F25C
:101190006B120C4902F08EFC022010BD00221A7066
:1011A000094B187808B100F0CBF9022CF5D0074BA9
:1011B0001B78032BF1D0002808BF2520EDE700BFE6
:1011C000C503002028730008BC030020BD030020D5
:1011D0002DE9F041DFF84480044698F80030104EC5
:1011E000104FCBB9104B32681B6810499B683868A8
:1011F00098470123054688F80030FF2132680B48E4
:1012000006F006F83368B4FBF3F003FB1040241A31
:101210003C602846BDE8F0810025EEE7C8070020C5
:10122000DC070020D8070020E0070020C8030020CA
:10123000F8B5384F05463B685B6998473B680646FA
:101240009B6928469847044606B140B940F23512DA
:101250000020314902F02EFC02242046F8BDB6F5EC
:10126000806F8CBF002001204FF49D722A4902F04C
:1012700021FC4FF48060B0FBF6F07043A0F5806372
:101280005842584140F23B12234902F013FCA64257
:101290008CBF002001204FF49E721F4902F00AFC0F
:1012A000B4FBF6F006FB1040B0FA80F040F23D12BD
:1012B0004009194902F0FEFBB5FBF4F0174BB4F5F9
:1012C000806F04FB10501C6028BF4FF48064144BE7
:1012D000281A18603B68134E134D1B6A30602C604F
:1012E00033B19847044618B13B685B689847B4E748
:1012F0000E4B1B7833B13B683068DB689847044677
:101300000028F1D1FF212A68094805F081FF002457
:10131000A3E700BFE007002028730008D0070020E3
:10132000D8070020CC070020DC070020E8070020B9
:10133000C8030020F8B5254F04463D7835B1472253
:101340000020234902F0B6FB02242AE000282AD01C
:10135000436843B3836833B3C36823B3036913B3E8
:10136000436903B38369F3B1C369E3B14FF48062A6
:10137000FF21184805F04CFF0122174B174E1A7039
:10138000174B34601D70174B1D60174B1D60174BBA
:101390001D60174B1D60174B1D602368984704465E
:1013A00018B12046F8BD4D22CAE7134B1B784BB944
:1013B00033681B699847054620B133682C465B6843
:1013C0009847EEE701233B70EBE700BFE9070020F9
:1013D00028730008C8030020C8070020E007002089
:1013E000D4070020D8070020DC070020CC0700200D
:1013F000D0070020E4070020E80700202DE9F74F80
:10140000454D834695F800800E46B8F1010F14460D
:1014100008D000207B22414902F04CFB022003B09F
:10142000BDE8F08F3E4F3A7852B9FFF701FF10B197
:1014300002232B70F3E73B4A87F80080C2F800B024
:10144000DFF8E480374FD8F800003A68BBFBF0F1D2
:10145000B2FBF0FC00FB11B100FB1C20ABEB010167
:10146000121A914204D05846FFF7B2FE0028DFD18D
:10147000DFF8B8A03A68DAF80000BBFBF0F1B2FB85
:10148000F0FC00FB11B100FB1C20ABEB0101121AB8
:10149000914236D1DFF89890D9F80020D8F80010A2
:1014A0000A445A4504D85846FFF792FE0028BFD197
:1014B0006CB3204BDAF800101A680A445A4504D875
:1014C0005846FFF7B5FE0028B2D1D9F80000D8F889
:1014D0000020194B0244A2EB0B02A24228BF224675
:1014E000ABEB000031461844019205F069FE019A09
:1014F0001248B2FA82F14909017093441644A41AC1
:10150000CAE75846FFF794FE0028C3D090E720466C
:10151000C7F800B083E700BFE90700202873000880
:10152000D4070020E4070020DC070020D0070020BB
:10153000D8070020CC070020C8030020C8070020DF
:1015400070B5194E307830B9CC22184902F0B2FA91
:101550000224204670BD012823D10020FFF738FE69
:101560000546134B1B685B6898474FF4806204463E
:10157000FF21104805F04CFE01220F4B1A7000238A
:101580000E4A9C4208BF2C4613700D4A33701360FC
:101590000C4A13600C4A13600C4A13600C4A136027
:1015A000D7E70025DDE700BFE90700202873000822
:1015B000E0070020C8030020C8070020D40700204F
:1015C000D8070020DC070020CC070020D00700202F
:1015D000E40700204FF4806070470000024B187849
:1015E000431E584258417047090C002008B50D4B66
:1015F000187828B983220C4902F05CFA022008BD51
:101600000020187003F0C4FA50B9084B1B780BB1D6
:101610000020F4E7FEF7F4FF0028F9D12520EEE7DB
:101620001F20ECE7090C0020287300080A0C00209A
:1016300038B5174D2C783CB162220020154902F0D4
:1016400039FA0224204638BD22462146204603F0BE
:101650009DFAD0B9104B4FF480621C700F4B21469D
:101660001C700F4B0F481C700F4B1C600F4B1C6005
:101670000F4B1C700F4B1C600F4B1C600F4B1C6002
:1016800005F0C6FD01232B70DCE71E24DAE700BF5E
:10169000090C0020287300080A0C0020080800200C
:1016A0000008002009080020FC0700200408002092
:1016B000F4070020F0070020F8070020EC070020C6
:1016C0002DE9F843644D06462B780C46012B08D0D3
:1016D000A2220020614902F0EDF902242046BDE873
:1016E000F883C0F309031BB1AB2200205B490CE077
:1016F000B2F5806F02D3C2F3090008B1B222F4E759
:10170000B2F5806F06D0B9225449022402F0D2F912
:101710002C70E3E7524B1B787BB9524B187808B911
:10172000C122F1E7504B1B689E4204D34F4A126816
:1017300013449E4201D3C722D7E74D4A137843B1E1
:101740004C4B4D491B6809680B449E4201D0CF2287
:10175000CBE74BF6FE7306F1784808F2FF31994269
:1017600003D8022320242B70B8E701234FF48067AD
:101770001370404BA8F540481E603F4BB8F59E3FA4
:101780001F604ED2FEF73EFF002850D03B4ADFF8E4
:10179000F090921BBA4228BF3A462146D9F8000081
:1017A000FFF71CF9374BC9F800009E4207D23648B4
:1017B0003A462146404405F003FD00248EE7334BB2
:1017C0009E4234D194F8FD2394F8FC3343EA02237B
:1017D00094F8FE2343EA024394F8FF2343EA0263AA
:1017E000984220D122463946304601F0F4FDE0B956
:1017F000274801F0E7FD90B93946234A244801F013
:10180000EAFD00280CBF0024202401F061FE012223
:10181000204B1A70002CD0D002232B705EE71024CE
:10182000F3E72324F8E72724F6E72024F4E7224609
:101830004FF48061304601F0CEFD0446002890D17F
:10184000154B06F580669E42B7D301F041FE01229A
:10185000104B1A7042E700BF090C002028730008E3
:101860000808002000080020FC07002004080020D1
:10187000F4070020F0070020F8070020FCFB010817
:10188000EC07002000C400080908002000F8010847
:1018900000C000080A0C002000FC01084FF4806022
:1018A0007047000070B52E4D04462B78012B06D0F2
:1018B0000020FF222B4902F0FDF8022070BDC0F38A
:1018C000090040B140F207120020264902F0F2F868
:1018D00002202870F2E7244A137853B1234B24499D
:1018E0001B6809680B449C4203D04FF487721D4962
:1018F000ECE704F17843B3F53C4F03D202232120F7
:101900002B70DBE701214FF480661170174AA3F5B5
:1019100040431460164AB3F59E3F166017D2FEF797
:1019200071FE70B1134B9C420BD1204601F04AFD71
:1019300088B922463146204601F04DFD68B90020A5
:10194000BCE7204601F03EFD0028F8D0D6E7232072
:1019500002232B70B2E71020FAE72020F8E700BF3F
:10196000090C00202873000800080020FC07002054
:101970000408002000C00008F8B5144D2B78012B96
:1019800007D0002040F23712114902F093F80220EC
:10199000F8BD104E337843B1002040F23D120C499F
:1019A00002F088F802202870F2E70B4C0B4F20461B
:1019B000FFF778FF18B1022322202B70E8E704F527
:1019C0008064BC42F3D101233370E1E7090C0020AD
:1019D000287300080808002000C0000800FC010867
:1019E000252208B50021094805F012FC0023084A09
:1019F0001360084A1370084A1370084A1370084AA3
:101A00001370084A1380084A137008BD130C002095
:101A10003C0C0020390C0020120C0020400C00204F
:101A2000380C00200C0C0020410C00202DE9F74F51
:101A3000984600239246954A89460E9F451811788C
:101A400006463B6021B101783A2940F0D6801370F8
:101A50008F4B1A78C2B18F4C002221461A70404633
:101A600011F8042B05F0ACFB22783B688A4913443B
:101A70003B600B686078A4781B0C1B0440EA0420D0
:101A80000343134490440B60824C0196019EAE4286
:101A900000F0B380019B13F8012B0D2A0193F5D0C0
:101AA0003A2A1DD00A2AF1D07C497D4B09781B784F
:101AB000002900F0DC80D00602F00F0158BF093188
:101AC000E25C01F00F011143E15422780133DBB2F3
:101AD0007348111D9942037040DA0023184610E044
:101AE00025220021204605F093FB00236B4A13704A
:101AF0006B4A13706B4A1370C8E714F80CC060444B
:101B0000C0B25FFA83FC614503F10103F5DA0028F6
:101B100040F0B880634B197801BB012119706378DC
:101B2000A17894F803B043EA01235BBA98B26370DA
:101B3000C3F30723A370BBF10D0F0FD8DFE80BF041
:101B4000142F600E7C0E0E0E0E0E070E0E14627910
:101B5000237943EA0223544A5BBA13804F4A13782D
:101B6000B3FA83F35B09C6E74F4B1B883BB14F4980
:101B70000988994203D04E49098899423AD1DFF841
:101B800018B14C4BDBF800C00CEA030101438C4553
:101B90003F4917D001234FF0020B0B701E440C9BE2
:101BA0003A68FF219A1A404605F032FB3A4B3A68F0
:101BB0001B68AD1B9B1A0D9AA9EB05051360CAF8AB
:101BC000005035E00020087040463B4905F0F8FA27
:101BD00021783A68374B0A443A60DBF80020A07855
:101BE00013406278884442EA002213430B44CBF846
:101BF0000030B3E70122254B1A704FF0000BCEE7FF
:101C00000C9B3A68FF219A1A404605F001FB224AD4
:101C100039681368AD1B5B1A0D99A9EB05050B60BC
:101C2000637921791B0143EA0133CAF8005013603C
:101C3000584603B0BDE8F08F0C9B3A68FF219A1A12
:101C4000404605F0E5FA144A39681368AD1B5B1A83
:101C50000D99A9EB05050B60637921791B0443EA13
:101C600001634FF0020BCAF800501360E0E7242B29
:101C70003FF674AF02F00F01D20658BF09310901D7
:101C8000E1546BE74FF0040B89E700BF410C0020E3
:101C9000380C0020130C00203C0C0020390C0020D4
:101CA000120C0020400C00200C0C0020100C002016
:101CB0000E0C00200000FFFF170C0020024B00213B
:101CC000186803F055BD00BF6C0C0020014B18686C
:101CD00003F050BD6C0C002008B503F04DFD064B21
:101CE00040F269121B6805491B1A58425841BDE869
:101CF000084001F0DFBE00BF700C00202873000810
:101D000038B5104C104D0FCD0FC40FCD0FC495E852
:101D1000030084E8030000F03FFB0C4801F094F955
:101D200001F030F94FF40072094B1860094B400A7A
:101D30001A600122084B1A60084B094A1860094BC7
:101D40001A6038BD440C002070730008351F00086D
:101D5000001C0020C81B0020C41B0020C01B00204A
:101D6000780C0020BC1B00207047000008B5FFF76E
:101D7000A5FF074B1978074B1A788A4203D1022A2C
:101D800004BF01221A70BDE80840FFF79FBF00BFE3
:101D9000780E0020790E00202DE9F843064613380E
:101DA0000128454C94BF002001204FF43A7243496A
:101DB00001F080FE94F82030032B07D1BDE8F843F2
:101DC0004FF43B7200203D4901F074BE2368002BA4
:101DD00050D0A569E269AA424CD325B16568A268D2
:101DE000AA1A5542554105F0010294F8269084F84C
:101DF0002520002B40D194F82770033F18BF0127FE
:101E0000002D3BD094F8248094F82330002B2369D4
:101E100008BF0025013333D0606840F20A32013038
:101E200018BF0120254901F045FE626823699B1A0D
:101E30006269B2EB432F8CBF0123002316B3032347
:101E400084F8203094F82030032B0CD194F8213002
:101E50003BB1FEF753FF00239E4208BF064684F8BD
:101E60002130174B1E70B9F1000F23D1BDE8F843A4
:101E7000FFF77CBF0025B6E70127C1E7A846C3E707
:101E80000023DBE7B9F1000F09D033B9002FD6D01A
:101E9000B8F1000F08BF0426D1E70626CFE7002DD2
:101EA000CDD1B8F1000F01D00223C9E7002FC9D06E
:101EB0000123C5E7BDE8F883440C0020287300081F
:101EC000420C002030B4194C94F82050032D06D158
:101ED00030BC40F235220020154901F0EBBD2568E9
:101EE00005B92060A068013094F8270008BFA16000
:101EF0000328A06908BF84F82730904207D9E06919
:101F0000904204D91AB1032030BCFFF745BF481CEA
:101F100002D0A0688842F6D1032B03D094F8271092
:101F20009942F0D10020A261EEE700BF440C0020EE
:101F3000287300082DE9F041354C1D4607468846B8
:101F4000164600F0ADFA94F82030032B1FD0B8F1FC
:101F5000020F16D1D4F80080B04518D1284601F000
:101F600065F80646284601F03DF804463846FEF777
:101F700043FE3246034621464046BDE8F041FFF7A6
:101F8000A1BFB8F1000F04D0B8F1010F1BD0BDE81C
:101F9000F0813846FEF730FE0328F8D0284601F0DD
:101FA00050F88307F3D43846FEF726FE0746284646
:101FB00001F03CF80446284601F014F83B4601467F
:101FC00022463046D9E72368B342E0D194F8223064
:101FD00033B100234FF0FF322360A260A361D6E744
:101FE0000C4D0FCD0FC40FCD0FC495E8030084E84E
:101FF0000300FFF763FE084B1A78012A04D1074A51
:102000001278022A08BF1A70BDE8F041FFF75EBEE1
:10201000440C002070730008790E0020780E002018
:1020200010B50446FFF758FEFFF76AFE0649074A57
:10203000074B2CB102201070012208701A6010BDED
:102040000C7014701C60FAE7780E0020790E0020E6
:10205000F81B0020F8B5414E414C0546FFF73CFE09
:10206000FFF72CFE327823789A4203D1BDE8F8407E
:10207000FFF72CBE40F2F91201203A4901F01AFD97
:102080003378022B11D1384B93F82030012B55D0E7
:1020900008D9023B012B05D940F20B22002031491F
:1020A00001F008FD4FF4FA7304E0002B37D12278D9
:1020B000022A3BD14EF65F202C4A1168814203D898
:1020C0000D4499421560D1D925783778012D08BF84
:1020D000022335704FF0000608BF23701660FFF72B
:1020E000F5FD022F16D1204C94F82030032B05D09B
:1020F0000123304684F82630FFF74EFE94F8200086
:1021000040F21112C31E58421649584101F0D2FC48
:1021100000F068FA012D17D9022D19D0F8BD012B56
:1021200004D12378022B0CD0002BC3D040F21B2209
:1021300000200C4901F0BEFC0023BBE744F62063FD
:10214000B8E740F6C413B5E70022094B1A60E5E78B
:10215000FFF7D6FD0122064BF8E700BF780E0020FE
:10216000790E002028730008440C0020740C002015
:10217000F81B002008B5FFF7AFFD014B187808BD2C
:10218000420C002008B503F0F7FA094B1860002054
:1021900003F0ECFA074B1860FFF7B2FD0023064A84
:1021A0001370064A1370064A1360064A136008BD8E
:1021B000700C00206C0C0020780E0020790E00209E
:1021C000740C0020F81B002070B504460D4616461E
:1021D000FFF782FD064B1B684BB10120FEF7F0FABA
:1021E000324629462046BDE8704000F033BF70BD3E
:1021F000F81B00202DE9F041054688461646FFF7FA
:102200006BFD534B1B68CBB10022524B524C1A60F2
:1022100094F82030032B11D00120FEF7D1FA32467A
:102220004146284600F042FF94F82030032B05D0A9
:1022300094F8223023B163689D423ED2BDE8F0811C
:1022400040467102FEF7C4FC0328074620D094F8EC
:10225000210040F28522414980F0010001F02AFC72
:10226000681C18BF012040F286223C4901F022FC84
:102270006368013394F8273008BF6560032B6368F7
:1022800008BF84F827709D4207D00320FFF784FD24
:1022900094F82230002BD1D0CDE794F82730BB4200
:1022A000F3D13846FEF7C0FC0028EFD10123E560EA
:1022B00084F8213084F82230E8E7E3689D420AD0B0
:1022C000BCD22369013308BF25612369AB4294BFA7
:1022D00023612561B2E7E369354403EB46237702C6
:1022E00094F82360E361E56026B10020BDE8F04189
:1022F000FFF752BD4FF431720120184901F0DAFBAB
:1023000040F2C522154994F8210001F0D3FB39466B
:102310004046FEF7BFFC1328054610D1FEF7EEFC41
:102320000123054684F8216084F8233084F82430A2
:10233000FFF71AFD636928463B446361D6E714281A
:1023400003BF0123354684F8243084F82460F1E784
:10235000F81B0020740C0020440C00202873000897
:1023600000220346114610461847000070B5064685
:1023700007480D46FEF7ECF804462DB136B9024683
:102380000349284604F01CFF204670BD0024FBE7EB
:10239000987300087047000037B5304C304A234628
:1023A00013F81F0F4FF08061002814BF1846104625
:1023B00000F0FEFC2B48FFF7D3FF0022034614F881
:1023C000145F29482749954218BF204600F032FF84
:1023D0002648FFF7C5FF002203462449244800F0A1
:1023E00029FFFFF7C7FE40B12248FFF7B9FF0022DF
:1023F00003462049204800F01DFF41211F4B204A81
:10240000204801F033FA58B11F48FFF7A9FF1E49D1
:10241000034600221D4800F00DFF002100F0E0FD02
:102420004FF00063009303F540430193FEF7EAF891
:1024300080B100984FF48062019904F0B1FE044627
:1024400040B91348FFF78CFF224603461049114854
:1024500000F0F0FEFFF79EFF03B030BD9C72000855
:10246000047400088127000810740008F52A000889
:102470001C7400084528000828740008BE0E0020BF
:10248000BC0E00207A0E00207D2900084878000844
:102490006D23000834740008002070470020704746
:1024A000F7B507460C46FFF7F7FF20B902F0E6FC48
:1024B00018B1022C0AD103B0F0BD02F0E7FC0028ED
:1024C000F7D101F05CFA0028F3D1F4E7002C6FD1CA
:1024D000012338460DF107018DF80730FFF7DEFFC5
:1024E00010BB4FF0FF353B4E0B223846316804F0ED
:1024F00057FE00B935790134102C06F10806F3D1E6
:102500006B1C1DD00F2D4CD8DFE805F008150E1EF2
:10251000272B2D313337393D3F434549FEF772F8BC
:1025200010B1012001F04AF99DF80730002BC2D00C
:10253000FFF71CFCBFE7E2220020274901F0BAFAAE
:1025400000238DF80730EFE7244B1C682368984779
:102550002369984763689847E6E7012001F009FA84
:10256000E2E70020FAE7012001F004FADCE70020AE
:10257000FAE7012001F0FFF9D6E70020FAE7002092
:1025800001F0DAF9D0E70120FAE7012001F0F4F9CF
:10259000CAE70020FAE7012001F0DAF9C4E70020D9
:1025A000FAE74FF4887200200B4901F083FABBE789
:1025B000012C80D10B223846094904F0F1FD002896
:1025C0007FF479AF01F092FA03B0BDE8F040FFF775
:1025D000CDBB00BF6878000828730008447300086A
:1025E0004878000808B5FEF70BF820B1FFF7C2FDE8
:1025F00008B9FEF7B3F9FEF705F820B101F026F9A6
:1026000030B1FEF7ABF9054A13680133136008BD1A
:1026100001F098F90128F6D1F3E700BFC00E0020C1
:102620002DE9F04FA5B004AE07468846914600213B
:10263000802230462E9C9A4604F0EAFD3146631E05
:102640007E3413F8012F1AB19C4201F8012BF8D106
:102650003546DFF81CB12B78402B0ED05BB9AD1B93
:1026600053464A46414638460195009601F0EDF939
:1026700025B0BDE8F08F0135EDE76B78562B33D8E8
:10268000412B01D83B4C37E0423B142BFAD801A236
:1026900052F823F03D270008852600084F27000840
:1026A000852600088526000885260008432700089F
:1026B000852600088526000885260008852600084E
:1026C000F3260008852600088526000885260008D0
:1026D000852600085B270008852600084927000892
:1026E0003727000855270008623BDAB2142ACCD9F4
:1026F000C8E700F0A3FE04462846FDF729FF039033
:102700002046FDF725FF039A034611180239294494
:1027100024A8884229D9023AA91CE818039304F096
:102720005DFD039B21461A46284604F049FD2B789F
:10273000002B90D193E700F069FEDCE700F06AFE21
:10274000D9E700F06BFED6E700F06CFED3E700F0AF
:102750006DFED0E700F06EFECDE79BF82A30064C08
:10276000064A002B08BF1446C6E7154477E700BFAA
:102770009C72000840740008C67200084674000885
:10278000F7B50F4600B1F1B9104B4502560231467C
:102790002A4600933846002301F075F90C4B044695
:1027A0002A463146009303463846FFF739FF094B66
:1027B000044400932A4623463146384601F063F923
:1027C000204403B0F0BD0020FBE700BF7F74000889
:1027D0004F750008527500082DE9F7430A9C98468A
:1027E000009405460E4617464FF0020901F04BF9DA
:1027F000124B3A4631460093044608EB0003CDF8ED
:102800000490284601F021F90B9B04443A463146D6
:102810000093284608EB040301F035F9084B044403
:1028200000933A4631462846CDF8049008EB04035D
:1028300001F00BF9204403B0BDE8F0837F75000878
:102840001B7600082DE9F74F0D4692460446FFF728
:1028500091FC064600F09AFD0746304600F0AAFDBE
:1028600006460CB1002D4BD1264B4FEA442B4FEAC4
:102870004A2A5A4651460197009328460023FFF7FB
:10288000ABFF214B044600935A4603465146284667
:1028900001F0F9F84FF001081C4F044407F1140946
:1028A0006EB9022301931A4B5A46009351462346B0
:1028B000284601F0CAF8204403B0BDE8F08F4F4528
:1028C000EFD0B8F1000F0AD102230193114B5A4601
:1028D000009351462346284601F0B7F80444F30715
:1028E0000AD53B685A46009351462346284601F0D4
:1028F000CAF84FF000080444C6F347060437CFE790
:102900000020D9E7757500087B7500085478000829
:102910001B7600088275000870B4049E044D054CB7
:10292000002E08BF2C46049470BCFFF755BF00BFB3
:1029300085750008088400082DE9F04186B00DF186
:102940000C0804460D4640460D991F46164601F0F8
:1029500042F800F118030DEB0300002300F80C3CD3
:102960000C9B3246009329463B462046CDF8048016
:10297000FFF732FF06B0BDE8F081000000232DE92B
:10298000F04F87B00E46029308B1002975D13C4B39
:102990001B78012B6ED0022B3A4B14BF4FF000086E
:1029A0009846394B44025502294622460093304648
:1029B000002301F068F8354B07460193344B22465B
:1029C0002946009303463046FFF706FF314B074484
:1029D0001B8822460193304B2946009330463B46E4
:1029E000FFF7AAFF07EB000AB8F1000F0AD02B4A45
:1029F00053460092294622463046CDF80480FFF720
:102A0000EBFE824402A800F08DFF804670B3029A6C
:102A100062B3234A5346009229462246304601F0CB
:102A200032F80027DFF87CB082440DF10C090AF17E
:102A30000A02B2F5007F19D20A225946484604F02C
:102A4000BFFB029A484652F8271000F0ABFF0A235A
:102A500022460193294653463046CDF8009000F0B7
:102A6000F4FF0137FAB290458244E0D8504607B0EF
:102A7000BDE8F08FDFF8308093E79A46F6E700BFB5
:102A8000BE0E0020927500089E7500087A0E002088
:102A9000A7750008BC0E0020AC750008B1750008D1
:102AA000B87500086C720008877500082DE9F041C0
:102AB0000024984647F6300305460E46174686B072
:102AC0000D990DF10E0003930494ADF814408DF8A8
:102AD000164000F067FF03AB01930C9B3A4600934E
:102AE0003146434628468DF81640FFF775FE06B07E
:102AF000BDE8F0812DE9F0430D46664B85B05602E6
:102B000047023A46314600932846002300F0BBFFB7
:102B1000614B04463A463146009303462846FFF788
:102B20007FFD5E4B04443A463146009328462346D7
:102B3000FFF776FD044400F020FF594B3A4631463A
:102B40000190009328462346FFF7E6FE044400F078
:102B500016FF544B3A4631460190009328462346CF
:102B6000FFF7DAFE044400F00CFF4F4B3A463146C3
:102B70000190009328462346FFF7CEFE044400F060
:102B800002FF4A4B3A4631460190009328462346BD
:102B9000FFF7C2FE044400F0E1FE454B3A463146E1
:102BA0000190009328462346FFF7B6FE414B0444AC
:102BB0003A46314600932846234600F064FF3E4BD8
:102BC000044400933A46234631462846FFF728FD41
:102BD000044400F055FC08B34FF006090DF1080855
:102BE0004A463649404604F0EBFA354B3A46314600
:102BF00000932846234600F046FF044400F066FD9B
:102C000004220146404600F00AFF23463A46314678
:102C10002846CDE9008900F018FF0444294B3A46C4
:102C2000009331462346284600F02DFF044400F06F
:102C30000DFC58B100F040FC234B019000933A4644
:102C4000234631462846FFF731FF044400F03AFCA2
:102C50001E4B3A4631460190009328462346FFF723
:102C600025FF1B4B04441B683A460193194B314620
:102C7000009328462346FFF75FFE174B044400935A
:102C80003A46234631462846FFF7CAFC204405B0A1
:102C9000BDE8F083C37500081E7600082E76000894
:102CA0003B76000846760008597600086C760008E6
:102CB0008976000896760008B176000876720008DA
:102CC000CA760008DE7600083677000845770008E7
:102CD000C00E0020537700086177000870477047E6
:102CE00010B5540208462246002104F091FA20460D
:102CF00010BD000008B5034608463BB94FF400720A
:102D0000034904F05DFA4FF4007008BD0020FCE7B1
:102D1000CC12002008B5034608463BB94FF40072B8
:102D2000034904F04DFA4FF4007008BD0020FCE7A1
:102D3000D514002083185B02B3F5806F70B506468A
:102D40000D46144607D9002040F263220A4900F0DC
:102D5000B1FE002070BD4FF400720021284604F03F
:102D600057FA36B9054B28461A680549520104F04E
:102D700027FA6002EEE700BF28730008C81200209F
:102D8000C80E002043000133B3F5007F05D340F2A5
:102D900039120020044900F08DBE044A02F81010D8
:102DA000090AD154704700BF28730008CC120020D4
:102DB0002DE9F84F4FF0000B8A46DFF88C914FF465
:102DC000007200210646484604F022FA5F4D4FF497
:102DD000007200215E4804F01BFAC02259465D488B
:102DE000C5F800B004F014FA4FF4806259465A480E
:102DF00004F00EFA594B5A4A83F800B0594B5A4C1A
:102E0000DFF868815A4F1A605A494FF400724846F9
:102E1000C4F800B0C8F800B0C7F800B004F0D0F9AA
:102E200099F80C3099F80B200AF5803A42EA03220F
:102E3000BAFBF2F341F25A0A99F80D200AFB02F1AB
:102E400099426AD94FF4AB7258464B4900F032FEB2
:102E500099F80D300AFB03F3B3F5803F4FF0000201
:102E600064D389F8132089F81420C3F3072289F862
:102E70002120C3F3074289F8222089F820301A0E56
:102E800089F8232099F80D20DFF8C8A0B3FBF2F3EE
:102E90005B0003F2FF13C3F347223849C3F34743F0
:102EA00089F816205046302289F8173004F088F946
:102EB00099F8172099F81630012043EA02230422DA
:102EC000C8F80020DAF808205B02CAF81430CAF803
:102ED000203002EB4302DAF82C304FF6FF711A442F
:102EE0003A60F8221A4B28601A70FF225A70FFF7D6
:102EF00049FF2B68202201332B600023204916480C
:102F0000236004F05DF90B223146134804F058F9B0
:102F1000236801332360BDE8F88F4FF6917A0AFBEE
:102F200002F29A4298D240F259128DE7C3F3072178
:102F300089F8133089F8141089F8202089F82120A5
:102F400089F822209CE700BFD5140020CC14002073
:102F5000CC120020D8160020C80E0020D414002067
:102F6000DF2C0008D0140020C81200209817002081
:102F7000C40E002019790008287300083C7B000863
:102F8000197B000810B5144BDC7C187D54EA002036
:102F900006D0DC7A1B7B44EA03244443204610BD60
:102FA00093F8210093F8204044EA002493F822008B
:102FB00044EA004493F8230054EA006405D0DA7A26
:102FC0001B7B42EA03235C43E8E740F28912204678
:102FD000024900F06FFDE1E7D514002028730008D6
:102FE000C1727047427F037F43EA0223827F43EA34
:102FF0000243C27F53EA026311D0837EC07E094A36
:1030000043EA0020517B831ED07A127B40EA0222E1
:1030100005480068B0FBF2F001FB030070474FF079
:10302000FF307047D5140020C40E0020427F037F7C
:1030300043EA0223827FC07F43EA024343EA0060FF
:103040007047C07A70470000014B1860704700BF9E
:10305000D01400202DE9F04789460446154600218A
:103060004846520204F0D4F800270F4E06F1C00A79
:103070003846B368844207EB53270ED3A7420CD9D6
:10308000A7EB0408A84528BFA846201A424649468F
:10309000336898474444A5EB080515B10C365645EE
:1030A000E6D1BDE8F08700BFD81600202DE9F74F24
:1030B0004FF000080446154640464FF00C0BDFF871
:1030C0005090DFF850A0D9F800205FFA88F39A42B8
:1030D00002D803B0BDE8F08F0BFB03A39E688442C7
:1030E00000EB56260DD3B4420BD2371BAF4228BF9C
:1030F0002F46201A3A465B680191984701993C4453
:10310000ED1B08F10108002DE3D03046DBE700BFDE
:1031100098170020D8160020F0B50346007885B037
:10312000E52811D088B120280ED0114F5E1E03F182
:103130000A0416F8015F10223946684604F040F888
:10314000A5F16103192B02D8002005B0F0BD1F2D99
:1031500001D8052DF8D16A46002312F8011B8D42D3
:10316000F2D00133102BF8D1B442E2D10120ECE7C8
:10317000E878000883185B02B3F5806F2DE9F74FFC
:10318000884608D94FF41F720020274903B0BDE8D4
:10319000F04F00F08FBCB0FA80F4244B6409560263
:1031A00003EB402ADFF88890770901EB441B0AEB18
:1031B0004415BC4207D332464146504603B0BDE8F1
:1031C000F04F03F0FDBF20225946284603F0E8FFE8
:1031D000B8B10B225946284603F0E2FF2A46019077
:1031E0005B4602215846D9F800C0E0479BF8002012
:1031F000E52A0BD15B462A4601212846D9F800C0B2
:10320000E04701340BF1200B2035D2E7019B002B66
:10321000F7D05846FFF780FF0028F2D05B462A46D9
:1032200000215846EAE700BF28730008C80E0020B6
:10323000D01400202DE9F74F1C46DFF824818A4680
:1032400091468346FFF768FF40F29512454900F02A
:1032500031FC98F80C2098F80B7047EA022798F890
:103260000D207A43531E2344B3FBF2F74CB30023E3
:103270003D4D7A1E2E689A42286815D84FF6FF7188
:10328000FFF780FD2B6801332B60384A13681F2B32
:1032900019D94FF4D5720020324900F00BFC0025FB
:1032A000284603B0BDE8F08F411C89B2019200931B
:1032B000FFF768FD2968009B0131019A29600133FD
:1032C000D9E72646E1E72A4D2A4905EB43150133A4
:1032D00013602846202203F073FF0B22594628462C
:1032E00003F06EFFC6F3074123482975310E697557
:1032F0000168C4F307222C776A77AE76C4F30742DD
:10330000C6F30726240E0F29AA77EC77EE7602D9AA
:103310004FF4DC72BFE70C24184E194ABAF1000FC3
:1033200018BF5646B9F1000F18BF4A464C43154B1B
:10333000013103EB040CCCF804201E5198F80C402A
:1033400098F80B30104A43EA042398F80D400160C6
:1033500063437B43CCF808301378013313709FE745
:10336000D514002028730008CC140020C8120020B7
:10337000C80E0020F978000898170020E12C0008FA
:10338000DD2C0008D8160020D4140020272808B50A
:1033900003D8054B53F8200028B90020F722034931
:1033A00000F088FB024808BDE0820008287300088E
:1033B0001D76000827289ABF014B185C0120704732
:1033C0008083000810B5EFF3108472B601F0E2FBC1
:1033D00084F3108810BD10B5EFF3108472B601F0BD
:1033E000F5FB84F3108810BD00F17843B3F5003F7E
:1033F00009D201F1784101390844B0F5003F2CBFF2
:1034000000200120704700207047000000487047EE
:103410001A18002000487047B8170020004870476D
:10342000CB17002000487047F9170020004870476C
:10343000C2170020004870474B1800200048704712
:10344000EC170020004870476018002008B50C21D8
:103450000848FFF7C9FF50B14FF00063064A196AE8
:10346000914205D1586A054BC31A5842584108BDCC
:103470000020FCE720000008939D939B08999697F5
:1034800008B50C210848FFF7AFFF48B1074B084AC1
:10349000196A914205D1586A064BC31A58425841DD
:1034A00008BD0020FCE700BF20C0000800C00008E5
:1034B0008F9E939B08999697014B1868704700BFA1
:1034C0009C170020014B1868704700BFA41700200C
:1034D000002370B5154E164D164C4BF6FC314FF0CF
:1034E000006033602B602360FFF77EFF30B14BF646
:1034F000FC314FF00060FDF743FA30600E490F4891
:10350000FFF772FF20B10C490C48FDF739FA28602B
:103510004FF480610A48FFF767FF28B14FF48061DC
:103520000748FDF72DFA206070BD00BF9C170020F2
:10353000A4170020A0170020FC3B010000C00008D9
:1035400000FC01082DE9F041FFF7C2FF544801F0EB
:103550009FFC02F045F9052200210446514803F082
:1035600057FE21220021504803F052FE2122002163
:103570004E4803F04DFE092200214D4803F048FE5D
:1035800005220021474803F043FE04250026DFF80A
:103590001081454FB81958F8041B00F003FA013D9B
:1035A000064415F0FF05F6B2F4D1BD550426DFF848
:1035B00004813E4F781958F8041B00F0F3F9013EDE
:1035C000054416F0FF06EDB2F4D17E55384D3A4968
:1035D000284600F0E7F9C0B22E5402F0CFF8314D82
:1035E00001460422284603F0EBFDC4F30F32C4F376
:1035F0000733092A88BF5733304A98BF3033DBB2CC
:103600001370C4F30323092B8CBF5733303353702B
:10361000C4F30313092B04F00F048CBF573330336A
:10362000092C8CBF57343034D4700024937014713B
:103630003022234B21461A7032225A7035229A705A
:1036400037221C71DA702E7131221E4803F0E0FD22
:1036500014491C4803F0E4FD18491A4803F0E0FD42
:103660001149184803F0DCFD1149164803F0D8FD54
:103670001448FCF76DFFC0B2134B421C52001A7085
:10368000032225465A700F4AE1B2884201D8BDE8AC
:10369000F08112F8011BDD70997001340233F3E7F9
:1036A000A8170020B8170020CB170020F91700201A
:1036B000C21700205018002008999697BD170020C7
:1036C0004B1800201A1800206018002008B5FFF7DA
:1036D000D7FE08B1014B986A08BD00BF00C00008C2
:1036E00070B52F4D2F4C8E220021284603F090FDFF
:1036F0006278237843EA0223A27843EA0243E2781D
:1037000043EA0263284A934247D1637922792146EA
:1037100042EA03228E2A164638BF8E268E2A28BFFA
:103720008E22284603F04CFD002385F847308E2278
:1037300000211C4803F06CFD642323706C2363702C
:103740007623A3706B23267141221849360A184844
:10375000E370667103F034FD95F8483095F84B201E
:1037600084F8483095F8493084F84B2084F8493083
:1037700095F84A300F491048920084F84A3003F017
:103780001FFD95F88C3084F88C3095F88D3084F8D6
:103790008D30BDE8704000F0EBB88E26C7E700BF63
:1037A000C4180020004F0020646C766BCB180020FA
:1037B000074F0020101900204C4F0020014B98713A
:1037C000704700BF004F0020F8B50D460646FCF7D5
:1037D000BFFE0446471C41220021114803F018FD9A
:1037E000412F82BF4127403C36190E4C3A463146A4
:1037F000E01D03F0E5FC84F848502D0A84F8495098
:10380000FCF7FEFE18B1012384F84A30F8BDFCF73E
:10381000F9FE08B10223F7E784F84A00F6E700BF93
:10382000074F0020004F002010B5074C4122002117
:10383000E01D03F0EDFC002384F8483084F84930A3
:1038400084F84B3010BD00BF004F0020024B987928
:10385000003818BF01207047004F0020024B9879B4
:10386000003818BF01207047C41800202DE9F84324
:1038700006461C48884617461D46FCF769FE044666
:1038800026B142460021304603F0C2FC0FB10023AE
:103890003B800DB100232B70DFF84C9099F80700A6
:1038A000E8B1621C90453FBFC8F10701891849443F
:1038B000424628BF09F1070156B199F8483099F8F6
:1038C000490043EA00233B80304603F079FC01E0E5
:1038D000002FF9D115B199F84A302B700120BDE8BD
:1038E000F88300BF074F0020004F00200C4B02461A
:1038F00093F84B100F2910D8481CC0B2123183F82E
:103900004B0003EB8103C2F307211A715971C2F313
:103910000741120E9971DA7170470020704700BF9D
:10392000004F0020034B024693F84B0008B14C3384
:1039300013607047004F0020014B83F88C007047E4
:10394000004F0020014B93F88C007047004F00207F
:10395000014B83F88D007047004F0020034B93F814
:103960008D00003818BF0120704700BF004F0020B5
:1039700070477047704770477047002070470120BC
:10398000704700207047002070470000044B0A0970
:1039900001F00F019A5C5B5C02704370022070477B
:1039A000A883000870B50D46090E0646FFF7EEFF26
:1039B000C5F3074104463018FFF7E8FF0444C5F398
:1039C00007213019FFF7E2FF0444E9B23019FFF78D
:1039D000DDFF204470BDF0B5054600200A460346D1
:1039E0000A24B2B950EA030404BF012013460A2690
:1039F00000272C18B1FBF6F206FB1211303104F847
:103A0000011D11462A1B0244824277EB0302F1D3C7
:103A1000F0BD0130B2FBF4F243F10003E1E7F8B589
:103A2000154606460F46FFF7D6FF854204460AD9DB
:103A30002A4630212C1B304603F0EAFB3019394668
:103A4000FFF7C9FF2C462046F8BD70B5059DC0B1F3
:103A50005E19964215D354189C4212D3934227BF45
:103A60009B1A2A46D11AAA1A36BFD218002100235F
:103A7000A64284BFA41B1219049C1844214403F0DD
:103A80009FFB284670BD2DE9F341DDF820800446F8
:103A900040460D4616461F46FCF75AFD3B46019030
:103AA000324629462046CDF80080FFF7CEFF02B00F
:103AB000BDE8F081F8B503460D461646A8B9EFF308
:103AC000108772B602460146FFF7D0FE044618B9C9
:103AD00031462846FFF778FE87F310882CB9EFF3BC
:103AE0000383DB0601D1FEF741F9F8BD10B5EFF312
:103AF000108472B6FFF798FE84F3108810BD0000A2
:103B00002D4BF7B51C6905460CB304220023014672
:103B10000DEB0200019303F053FB019804F1D40371
:103B20005A7819785E7941EA02219A7841EA02418D
:103B3000DA7841EA02611A7942EA06229E7942EA7B
:103B40000642DE7942EA066251EA020602D100200C
:103B500003B0F0BD884201D3904201D91433DFE7AE
:103B600004260422A9190DEB020003F029FB019899
:103B700004F10C035A7819785F7941EA02219A78A6
:103B800041EA0241DA7841EA02611A7942EA0722FF
:103B90009F7942EA0742DF7942EA076251EA020767
:103BA000D5D0884201D3904201D91433E2E70436DC
:103BB000102ED6D10120CBE79C720008084A08B528
:103BC000126803460AB1126A22B91846BDE80840D5
:103BD000FFF796BF9047003818BF012008BD00BF0F
:103BE0005C0200200B4A0346126812B1526A02B10D
:103BF00010471A783A2A08D1187A302807D0323874
:103C000003288CBF0020012070470020704701204E
:103C1000704700BF5C02002070470000074A08B5EB
:103C20001368032043F01003136000F017F80F200F
:103C300001F084F9FFF7F0FF002008BD00200240EA
:103C400013B5019001F0C8F9044601F0C5F9019AD5
:103C5000031B9342F9D302B010BD000007490302D1
:103C6000CA6803F4E06322F4E0621204120C134306
:103C700043F0BF6343F40033CB60704700ED00E0D6
:103C8000104AD368D80641BF0F49CB6943F00203FD
:103C9000CB61D368590741BF0B4AD36943F0010395
:103CA000D361084BDA69D20708D50749CA6942F0DF
:103CB0000402CA61DA6922F00102DA611422DA60D0
:103CC000704700BF0020024058190020064B1A69B7
:103CD000120641BF054A00205A6002F1883254BFE3
:103CE00001205A60704700BF002002402301674551
:103CF000034A0020136943F080031361704700BF3B
:103D00000020024070B5054601F066F90646114CE8
:103D1000E368D80712D4E368990644BF2023E36020
:103D2000E368DA0606D4E369DB0703D4E06810F041
:103D3000040007D0FFF7A4FF012003E06B1CE7D0CD
:103D40000DB9032070BD01F047F9801BA842DFD9EF
:103D5000F7E700BF002002402DE9F84FDFF8909010
:103D60001E4699F818300446012B0F4690463DD068
:103D700001234CF2503089F81830FFF7C3FF80BBA5
:103D8000012C03D0022C0CBF022404240025AB46D6
:103D9000DFF860A02801C0F12002A0F1200306FA9C
:103DA00002F228FA00F0C9F81CB0104326FA03F317
:103DB0001843DAF8103080B243F00103CAF810302B
:103DC00027F815004CF25030FFF79CFFDAF810305E
:103DD00023F00103CAF8103018B90135EBB29C4248
:103DE000D8D8002389F81830BDE8F88F0220FBE707
:103DF00058190020002002400022064BDA61064BD1
:103E00001A6942F002021A6158611A6942F04002CE
:103E10001A61704758190020002002402DE9F04136
:103E2000264F05463B7E8846012B44D001243C7634
:103E300003684CF25030022B1AD1FFF763FF20B118
:103E4000012000233B76BDE8F0811D4CF861236919
:103E50004CF2503043F004032361236943F04003E4
:103E60002361FFF74FFF236923F004032361E8E791
:103E7000FFF748FF0028E3D14FF0FF33C8F80030C8
:103E80002046AE680E4CEA68AB6803EB8223B3426F
:103E9000D7D93046FFF7B0FF4CF25030FFF732FF72
:103EA000236923F00203236110B1C8F80060C8E75A
:103EB00006F58066E7E70220C5E700BF5819002035
:103EC000002002402DE9F74F00221646644F654B53
:103ED000DFF894C1DFF894E14FF001080D6808FAAB
:103EE00006F808EA050438EA05057BD14D68032D7C
:103EF00007D8013D022D00F28E80DFE805F09CA17D
:103F0000A700122D00F09F8073D8112D00F095802E
:103F1000FF2C98BF82464FF00F0988BF00F1040ABA
:103F20004FEA8605DAF8008088BF203D09FA05FBD4
:103F300028EA0B0802FA05F548EA0505CAF8005018
:103F4000D1F804A01AF0805F4CD0BD6926F00308B8
:103F500045F00105BD61BD6908F1804805F0010526
:103F6000019508F5803806F0030B019D4FEA8B0B95
:103F7000D8F8085009FA0BF925EA09093C4DA8427E
:103F800068D005F58065A84266D005F58065A84231
:103F900064D005F58065A8420CBF0325042505FA09
:103FA0000BF545EA0905C8F808501D681AF4803F6A
:103FB00014BF2543A5431D605D681AF4003F14BF7C
:103FC0002543A5435D609D681AF4801F14BF2543F7
:103FD000A5439D60DD681AF4001F14BF2C4325EA39
:103FE0000404DC600136102E7FF476AF03B0BDE828
:103FF000F08FDFF880904D450DD018D8A9F58019C5
:104000004D4508D009F570294D4504D0A9F5801912
:104010004D457FF47DAF8A68D2B1012A08BFC0F850
:1040200010804FF0080218BFC0F8148070E7654593
:10403000F1D07545EDE7CA686AE7CA68043267E7F8
:10404000CA68083264E7CA680C3261E700225FE799
:1040500004225DE70025A2E70125A0E702259EE7EF
:104060000010024000040140000031100000321036
:1040700000080140000022100AB1016170470904E4
:10408000FBE7000003682DE9F743DE07054634D45B
:104090002B689C0700F1A7802B681A0723D5A96914
:1040A000012393FAA3F3964EB3FA83F3954A0029BA
:1040B00000F00A81012142F8231000F08DFF022454
:1040C00094FAA4F40746B4FA84F8002C14BF4246CC
:1040D0002022736A02F01F02D340DB0740F1ED801B
:1040E0000120FFF7ADFD2B68590700F10D81EA694A
:1040F000002A40F0888100201EE0814C636803F0B4
:104100000C03042B07D0636803F00C03082B16D1B3
:104110006368D80313D54FF4003393FAA3F3B3FACB
:1041200083F3226803F01F0322FA03F3D907AFD504
:104130006B68002BACD1012003B0BDE8F0836B6845
:10414000B3F5803F1DD1236843F48033236000F032
:1041500043FF4FF4003696FAA6F60746B6FA86F8FD
:10416000002E14BF42462022236802F01F02D340D3
:10417000DA078DD400F030FFC01B6428F0D903208B
:10418000DAE70BBB23684FF4003696FAA6F623F461
:10419000803323602368B6FA86F823F480232360F3
:1041A00000F01AFF0746002E14BF42462022236863
:1041B00002F01F02D340DB077FF56AAF00F00CFF6F
:1041C000C01B6428EFD9DAE7B3F5A02F236803D129
:1041D00043F480232360B6E723F48033236023680D
:1041E00023F48023B2E7464C636813F00C0F07D02A
:1041F000636803F00C03082B1ED16368DF031BD434
:10420000022393FAA3F3B3FA83F3226803F01F03A4
:1042100022FA03F3DE0702D52B69012B8BD1F8229A
:1042200092FAA2F2B2FA82F221686B6921F0F801E7
:1042300093400B4323602FE7012393FAA3F3B3FAD0
:1042400083F32A699B0003F1844303F58403CAB115
:1042500001221A6000F0C0FE022696FAA6F6074672
:10426000B6FA86F8002E14BF42462022236802F0D8
:104270001F02D340D807D2D400F0AEFEC01B0228E4
:10428000F0D97CE700221A6000F0A6FE022696FA1A
:10429000A6F60746B6FA86F8002E14BF424620223C
:1042A000236802F01F02D340D9077FF5F5AE00F076
:1042B00093FEC01B0228EFD961E700F08DFEC01B02
:1042C00002287FF602AF5AE7002142F8231000F0DF
:1042D00083FE022494FAA4F40746B4FA84F8002C6E
:1042E00014BF42462022736A02F01F02D340D8074F
:1042F0007FF5F9AE00F070FEC01B0228EFD93EE753
:104300000010024080044242824C834EE36943F035
:104310008053E361E36903F080530193019B3368A9
:1043200043F48073336000F057FE07463368DA05C4
:1043300027D5EB68012B2AD1236A43F001032362BE
:1043400000F04AFE022797FAA7F80646B8FA88F95D
:1043500097FAA7F3002B00F0D980236AB8F1000F79
:104360004DD05FFA89F202F01F02D340DB073FF520
:10437000BEAE00F031FE41F28833801B9842E7D98F
:10438000FDE600F029FEC01B6428CFD9F7E643BB49
:10439000236A022797FAA7F823F001032362236A0E
:1043A000B8FA88F923F00403236200F015FE0646EC
:1043B00097FAA7F3002B00F0AB80236AB8F1000F47
:1043C0001FD05FFA89F202F01F02D340D8077FF5B1
:1043D0008EAE00F001FE41F28833801B9842E7D98F
:1043E000CDE6052B236A03D143F004032362A3E740
:1043F00023F001032362236A23F004039FE72022B2
:10440000B1E72022DFE7434C636803F00C03082B7D
:104410003FF491AE4FF0807393FAA3F3B3FA83F3B2
:10442000022A4FF000024FEA830303F1844303F5AD
:1044300084031A6050D100F0CFFD4FF0007696FA59
:10444000A6F60746B6FA86F8002E14BF424620228A
:10445000236802F01F02D340D90737D42B6AB3F583
:10446000803F05D16268A96822F400320A43626085
:10447000696A62680B4322F47412134363604FF05D
:10448000807393FAA3F3B3FA83F301229B0003F141
:10449000844303F584031A6000F09EFD4FF000751D
:1044A00095FAA5F50646B5FA85F7002D14BF3A46EC
:1044B0002022236802F01F02D340DA073FF51BAE2B
:1044C00000F08AFD801B0228EFD958E600F084FD39
:1044D000C01B0228B8D952E600F07EFD4FF00075EF
:1044E00095FAA5F50646B5FA85F7002D14BF3A46AC
:1044F0002022236802F01F02D340DB077FF5FBADCB
:1045000000F06AFD801B0228EFD938E6636A25E7D0
:10451000636A53E7001002400070004010B586B097
:104520001A49102202A802F04BFE40F20123184C57
:10453000ADF80430616801F00C03082B24D14FF46E
:10454000701292FAA2F2B2FA82F201F47013D3401E
:1045500018336B4413F8100CCB0313D54FF400320F
:1045600092FAA2F2B2FA82F2636803F40033D34003
:1045700018336B4413F8142C064BB3FBF2F3584377
:1045800006B010BD044BFAE70248F9E7B98300080A
:104590000010024000127A0000093D00534A2DE944
:1045A000F0411368044603F007038B420D462ED3F7
:1045B0002268960738D4D0073ED44C4A136803F0DB
:1045C0000703AB427FD82268494D12F0040F40F038
:1045D0008580130706D56B68226923F4605343EA8C
:1045E000C2036B60FFF79AFFF02292FAA2F2B2FACE
:1045F00082F26B6803F0F003D3403E4AD35CD840AC
:104600003D4B18600F2000F099FC00200AE0136871
:1046100023F007030B431360136803F007038B4277
:10462000C6D00120BDE8F0813149A0684B6823F075
:10463000F00303434B60BEE762682D4E012A3168E8
:1046400024D14FF4003393FAA3F3B3FA83F303F0C6
:104650001F0321FA03F3D907E3D5736841F28838C1
:1046600023F003031A43726000F0B6FC6368074648
:10467000012B11D1736803F00C03042B9DD000F0C3
:10468000ABFCC01B4045F5D90320CBE7022A0CBF89
:104690004FF000730223D6E7022B0FD1736803F0AB
:1046A0000C03082B89D000F097FCC01B4045F5D9BE
:1046B000EAE700F091FCC01B4045E5D8736813F0B1
:1046C0000C0FF6D179E7136823F007032B4313602F
:1046D000136803F00703AB42A3D174E76B68E1688A
:1046E00023F4E0630B436B6073E700BF00200240DC
:1046F00000100240CA830008D00100200F2303608D
:104700000B4B5A6802F0030242605A6802F0F00252
:1047100082605A6802F4E062C2605B68DB0803F4FE
:10472000E0630361034B1B6803F007030B607047F2
:104730000010024000200240036A70B523F001031C
:104740000362036A446882690D6822F073022A4397
:104750008D6823F002032B430A4DA8420BD1CD688C
:1047600023F008032B438E694D6924F440743543CC
:1047700023F004032C43446082614A68426303626D
:1047800070BD00BF002C0140036A70B523F4807334
:104790000362036A4468C2690D6822F073022A4307
:1047A0008D6823F4007343EA05230B4DA8420DD115
:1047B000CD6823F4006343EA05238E694D6924F430
:1047C0004054354323F4806344EA05144460C261D5
:1047D0004A68C263036270BD002C0140036A30B5B1
:1047E00023F480530362036A4468C2690D6822F4AB
:1047F000E64242EA05228D6823F4005343EA05337A
:10480000064DA84202BF4D6924F4804444EA851451
:104810004460C2614A680264036230BD002C0140FA
:1048200070477047022341F2111210B580F83930F9
:1048300003680446196A114208D140F24442196AD9
:10484000114202BF1A6822F001021A602046FFF7E7
:10485000E8FF002084F8390084F8380010BD0223F6
:10486000026880F83930136843F0010313600123B4
:1048700080F839300020704770477047022341F2BA
:10488000111210B580F8393003680446196A1142D4
:1048900008D140F24442196A114202BF1A6822F05C
:1048A00001021A602046FFF7E8FF002084F8390073
:1048B00084F8380010BD0000184A036890420AD0FE
:1048C000B0F1804F07D0A2F59432904203D002F5A8
:1048D0008062904215D14A6823F0700313430F4A57
:1048E00090420AD0B0F1804F07D0A2F594329042A6
:1048F00003D002F58062904203D1CA6823F440736A
:10490000134303608B68C3620B688362034B984256
:1049100004BF0B690363012343617047002C01400E
:1049200010B50446A0B190F8393003F0FF021BB96E
:1049300080F83820FFF774FF0223206884F83930AC
:10494000211DFFF7B9FF0123002084F8393010BD85
:104950000120FCE710B50446A0B190F8393003F00F
:10496000FF021BB980F83820FFF786FF022320687A
:1049700084F83930211DFFF79FFF0123002084F8C0
:10498000393010BD0120FCE7036A70B523F0100335
:104990000362036A446882690D6822F4E64242EACF
:1049A00005228D6823F0200343EA05130B4DA8422E
:1049B0000DD1CD6823F0800343EA05138E694D695C
:1049C00024F44064354323F0400344EA8504446002
:1049D00082614A688263036270BD00BF002C01409F
:1049E00038B590F838300446012B4FF0020010D053
:1049F0000123082A84F8383084F839003FD009D8D8
:104A0000DAB1042A2AD00123002084F8393084F84E
:104A1000380038BD0C2AF6D12068FFF7DFFE236886
:104A20000969DA6942F40062DA61DA6922F48062C3
:104A3000DA61DA6942EA012230E02068FFF77CFEA1
:104A4000236809699A6942F008029A619A6922F01A
:104A500004029A619A690A439A61D4E72068FFF7D1
:104A600093FF236809699A6942F400629A619A691E
:104A700022F480629A619A6942EA0122ECE7206896
:104A8000FFF782FE23680969DA6942F00802DA61F9
:104A9000DA6922F00402DA61DA690A43DA61B2E71C
:104AA00010B50124036A8C4023EA04030362036AFD
:104AB0008A401A43026210BD10B504460122006804
:104AC000FFF7EEFF2368064A0020934202BF5A6CAC
:104AD00042F400425A641A6842F001021A6010BDA2
:104AE000002C0140FFF7E8BF0F4B1A6842F00102AB
:104AF0001A6059680D4A0A405A601A6822F0847296
:104B000022F480321A601A6822F480221A605A68ED
:104B100022F4FE025A604FF41F029A604FF00062C6
:104B2000034B9A60704700BF001002400000FFF87E
:104B300000ED00E01049114A4B6803F00C03082B0C
:104B40000AD00F4B13604B680E49C3F30313C95CC3
:104B50001368CB40136070474B684868C3F38343C6
:104B6000C00303F1020302D407484343EAE748685D
:104B70008003F9D40248F8E700100240D001002079
:104B800000127A00CA83000800093D000020704727
:104B90000020704710B586B00446FFF797F8102242
:104BA000002102A802F034FB00230293012301A993
:104BB00002A804940593FFF731F90446FFF798F82B
:104BC000201E18BF012006B010BD000070B50D46B4
:104BD00014460646FFF77AF815F0030F4FF06E0201
:104BE0000CBF012000200C49FEF764FF25F00305EF
:104BF0002544361BAC4204D10024FFF779F8204647
:104C000070BD31190023022054F8042BFFF7A4F8DB
:104C10000028EFD00124F0E7287300082DE9F043C5
:104C2000854C99B0A3694FF4004943F00403A36194
:104C3000A369012503F004030093009BA3690326E5
:104C400043F00803A361A3694FF4007803F008035D
:104C50000193019BA369794A43F01003A361A369FF
:104C6000774F03F010030293029BA369384643F089
:104C70002003A361A36908A903F020030393039B06
:104C8000A36943F00103A361A36903F00103049343
:104C9000049B536823F0E06343F000735360A369FF
:104CA00043F00403A361A36903F004030593059B88
:104CB000C7F814900B96CDF820900995FFF702F9EC
:104CC0002A464FF400713846FFF7D6F9384608A94E
:104CD0000B96CDF820800995FFF7F4F82A4640217D
:104CE0005848FFF7C9F94023564808A908930B967E
:104CF0000995FFF7E7F82A4641463846FFF7BCF921
:104D0000384608A90B96CDF820800995FFF7DAF808
:104D10002A4641463846FFF7AFF9384608A90B96B0
:104D2000CDF820800995FFF7CDF82A462946454859
:104D3000FFF7A2F91123434808A9099308950A959A
:104D4000FFF7C0F8002249463E48FFF795F93D4875
:104D500008A90B96CDF820900995FFF7B3F84FF40A
:104D600080730B960226384608A908930996FFF728
:104D7000A9F806A90CA8FFF7C1FC109A324BB2F5AE
:104D8000205F1B6804D0B2F5405F14BF2E46042696
:104D9000B3FBF6F62D4B0027B6FBF3F62C4D2D4B4F
:104DA000013EEE606F602F61AF606F612B60A369A1
:104DB000284643F40063A361A36903F400630793E7
:104DC000079BFFF75BFD804618B152223846224907
:104DD00007E02846FFF7BEFD044658B1582240467A
:104DE0001D49FEF767FE1D4B1193119B03BB19B0C4
:104DF000BDE8F08370230246129013901490159032
:104E00001690179011A928461193FFF7E9FD074660
:104E100018B1652220461049E3E72B687608014661
:104E20005E632846FFF75EFE0028DCD06C22CDE7EB
:104E3000119B013BD8E700BF001002400000014079
:104E400000080140000C0140D001002000127A004F
:104E500078190020002C01402873000840420F0000
:104E6000B0FA80F24FF4007101485209FFF704B91B
:104E700000080140FFF7F4BFFFF7F2BF024B98684C
:104E8000C04300F001007047000C01400020704753
:104E9000044B03F5FD610EC980E80E004FF0A53309
:104EA000C360704700F0FF1F10B590B014220021BE
:104EB00001A802F0ADF90021282206A802F0A8F905
:104EC0000024FFF737FEFEF7A9FE012101A801919A
:104ED0000294FFF763FB20B1402220461649FEF7FB
:104EE000E9FD4FF4803301220E93CDE9062302231E
:104EF00000240D934FF4E01306A808940F93FFF7D6
:104F0000C1F820B14C2220460B49FEF7D3FD0F23F8
:104F10000024022101934FF4806301A802910394BD
:104F200004930594FFF73AFB20B15722204602492B
:104F3000FEF7C0FD10B010BD2873000810B588B092
:104F400001A903A8FFF7DAFB069A204BB2F5C06F60
:104F50001B6836D0B2F5E06F35D0B2F5A06F14BF44
:104F600001220222B3FBF2F34FF47A62B3FBF2F3B5
:104F70004FF08041164C013B6360002321604FF6E7
:104F8000FF712361A360636103F18043E16003F576
:104F90000433DA69204642F00102DA61DB6903F08A
:104FA00001030293029BFFF73DFC40B9094B1860D7
:104FB0002046FFF7B5FC10B92046FFF750FC08B0BB
:104FC00010BD0422CEE70822CCE700BFD0010020AC
:104FD000B8190020B4190020EFF3108072B6074B07
:104FE000074A1B6811685B6AC1EB9303C3F30D03A7
:104FF0000B44136080F3108810687047B8190020C4
:10500000B419002038B5144B1C68A2060AD5134801
:105010005D68FBF783FC132802460FD90F48E9B2FD
:10502000FBF720FC230608D50D48FBF769FC0A4C6A
:1050300050B10B48FBF73EFC606038BDF2D1094926
:105040000648FBF777FCEDE7E36823F0805323F095
:105050008003E360F1E700BF00440040F419002042
:10506000041A0020DA8300080020704700207047EF
:1050700000207047002070470020704770470020D4
:105080007047002070470000F0B50925114F87B028
:105090002A4639461726684602F092F82A46002525
:1050A0000D4C6946204602F08BF80C4B324607F156
:1050B000090168461D7002F083F83246694604F122
:1050C000090002F07DF8E57207B0BDE8F040FDF799
:1050D00059B800BF7C720008151A00205E1B002022
:1050E00010B5EFF3108472B60749084A0B6842F80E
:1050F000230007220133B3FBF2F2C2EBC2029B1A78
:105100000B6084F3108810BD881B0020681B0020F2
:1051100000F00F0303F1805303F5B8539B001A68A6
:1051200001064CBF22F4E04222F4415222F0300248
:105130001204120C1A60704710F0800F00F00F027A
:1051400040F60F7002F1805202F5B8524FEA820227
:10515000136881EA030100EA030014BF01F0300381
:1051600001F44053034343F4004343F080031360CE
:10517000704700004FF48012014B1A60704700BF67
:1051800000E100E0064A08B5D36943F40003D361A7
:10519000FFF7F0FF4FF40042024B5A6108BD00BF19
:1051A00000100240000801400C4B0D4A78B101216B
:1051B000C3F8401C0021C3F8401CC3F8441C4FF442
:1051C000E051C3F8401C4FF40043136170470321C2
:1051D000C3F8401C4FF40043536170470050004037
:1051E000000801404FF480101F4930B5C1F880001D
:1051F000BFF34F8FBFF36F8F00241C4B1C4A1B68FB
:10520000C2F8444CA34213BF4FF43C454FF41C4535
:1052100023464FF480432B43164D2D68A5420CBF07
:1052200025464FF4007543EA05030CBF25464FF4AD
:1052300080752B43C2F8403CC2F8504C30240E4BD2
:10524000B0251B681C6070249C600C4C258048F2C3
:10525000FF74DC604FF44853C2F8003C8023C2F86E
:105260004C3C086030BD00BF00E100E068840008ED
:10527000005000407C840008DC010020601B0020FE
:10528000064BD3F8402C42F00802C3F8402CD3F868
:10529000402C42F00402C3F8402C704700500040FC
:1052A000034AD2F8403C23F00803C2F8403C704760
:1052B000005000407047000021B9034B40F08000CF
:1052C000C3F84C0C704700BF0050004010B9B0222A
:1052D000014B1A80704700BF601B0020F0B51F4CC7
:1052E0008778417903791E4E246807F00F023F0644
:1052F00043EA01234FEA021C318804EB02151AD558
:10530000013344F80C1023F001030B443380C378BD
:1053100003F00303013BDBB2022B8EBF4FF400739B
:10532000104931F81330134302F1805202F5B8529C
:1053300092001360F0BD3E2B83BF1F3323F01F0389
:105340005C0101338BBF04F1FF3423F0010344F40B
:1053500000445C02A960EC60D7E700BFDC010020DC
:10536000601B0020EA840008704743F22001FFF729
:10537000E3BE0021FFF7E0BEFFF7CABE41F2100115
:10538000FFF7DABE08B5FFF7C3FEBDE8084043F2F9
:105390003001FFF7D1BE0000F8B5144C00F00F0348
:1053A000276807EB0317FD68BB68C5F3090595423D
:1053B00028BF154603F100566B1C5B0806F54056E6
:1053C0009B00740003EB46039C4205D14FF440510F
:1053D000FFF7B2FE2846F8BD54F8042B023101F85D
:1053E000022CC2F3072201F8012CEDE7DC010020BA
:1053F000F8B51546154B00F00F041B68220103EBAE
:1054000004179B586A1C03F1005303F5405322F024
:1054100001025B000A4491420FD104F1805303F56D
:10542000B8539B001B687D6003F03003102B02D043
:105430003021FFF781FE2846F8BD0E7891F801C0B3
:10544000023146EA0C2643F8046BE4E7DC01002055
:105450002DE9F843264E2749D6F8443C086823F046
:105460001F0202430A6003F4FE42D2431904C6F845
:10547000442C06D5204FDFF88480D6F8440C030472
:1054800003D4BDE8F843FBF7A5B900F00F0000F125
:10549000805505F5B855AD002C6804F0800918BB9F
:1054A00004F40843B3F5004F1ED13B68DB68C3F337
:1054B0000903CBB9B9F1000F03D008EA0440FFF7A4
:1054C0000FFE220441BF40F60F73234043F08003D8
:1054D0002B60B9F1000FD0D024F0F0042405240D86
:1054E00044F400442C60C6E740EA0440E7E700BF0C
:1054F00000500040641B0020DC0100200000FF7F02
:105500002DE9F843EFF3108272B60021364B1C6888
:10551000196082F31088630507D5FFF763FE01F079
:1055200007FA324B1B6803B19847270505D5FFF7EB
:10553000A7FE2F4B1B6803B19847E60405D5FFF77C
:10554000AFFE2C4B1B6803B19847A50503D52A4B2A
:105550001B6803B19847600404D5284B1B680BB146
:1055600002209847A10404D5244B1B680BB10120ED
:105570009847234F234D244E230408D5EFF3108181
:1055800072B63A682B6881F310889A4201D1BDE85F
:10559000F883EFF3108072B607223B6856F82310A9
:1055A0000133B3FBF2F2C2EBC2029B1A3B6080F301
:1055B00010880A021FFA81F94FEA114805D5134BEA
:1055C00053F829300BB10820984718F4004FD3D076
:1055D0000E4B53F82930002BCED018F4006F14BFB7
:1055E000022004209847C7E7641B00207484000849
:1055F00080840008788400087C840008688400089F
:10560000841B0020881B0020681B002028840008C1
:1056100000230C4AF02013600B4A0C4913600C4A1B
:1056200013600C4A13600C4A13600C4A13604FF06D
:10563000E02251610A4981F8230093610723136135
:10564000704700BF9C1B00208C1B00207EFC0A00C2
:10565000A01B0020941B0020981B0020901B002002
:1056600000ED00E00C4B10B51A680C4C4AB10C4B25
:105670001B6833B12068B0FBF3F103FB110000B9E4
:105680009047236801332360064B1A6812B11A68E9
:10569000013A1A6010BD00BF941B00209C1B002023
:1056A000981B0020A01B0020014B1860704700BF12
:1056B000941B0020014B1860704700BF981B00200E
:1056C000024B18601A68002AFCD17047A01B00200A
:1056D00072B6034A13681843106062B6704700BF81
:1056E0008C1B0020054B1A680242FCD0186872B669
:1056F0001A6822EA00021A6062B670478C1B00200A
:10570000014B1860704700BF901B0020024B1B68C4
:105710000BB1002018477047901B002008B5FFF719
:1057200077FF002008BD08B5FFF7EAFF012008BD9C
:1057300008B5FFF7EBFF002008BD10B50C46084682
:10574000FFF7C6FF204610BD08B5FFF7B9FF0020E0
:1057500008BD08B5FFF7A8FF012008BD08B5084639
:10576000FFF7A8FF002008BDFFF7BCBF002070476F
:1057700000207047002070470120704780B400AFC0
:10578000154B1B69002B22D0134B1B6993F89C21EE
:1057900093F89D1109020A4393F89E1109040A43E4
:1057A00093F89F311B061343002B10D00A4B1B6943
:1057B00093F89C2193F89D1109020A4393F89E11D6
:1057C00009040A4393F89F311B06134300E0034B7F
:1057D0001846BD4680BC70479C720008A072000845
:1057E00080B400AF0F4B1B69002B14D00D4B1B690D
:1057F00093F8A02193F8A1311B0213439BB2002B15
:1058000009D0084B1B6993F8A02193F8A1311B0222
:1058100013439BB201E0034B5B881846BD4680BC36
:10582000704700BF9C72000800F056B810B51A4BC4
:105830001A4A19791278914201D0002015E05A785D
:10584000FE2A13D0FF2AF8D1DA78997841EA0221AA
:105850009A79DB7942EA03230B43EED100F070F82A
:105860000028EAD001F0C0F8012010BD9A78D9785C
:1058700052EA0122E1D19879DC7940EA0424012C32
:10588000DBD100F071F80028D7D0054B054A1A602B
:1058900001F07EF8E8E700BF221C00205E1B00201C
:1058A0000C1C0020DE1A00207047000010B50446D2
:1058B000FFF764FD23064CBF4FF480300120054BF9
:1058C00048BF04F00F0400FA04F4186804431C6095
:1058D00010BD00BF141C0020144B1B791A0603F0E6
:1058E0008F0045BF03F00F024FF480330123934034
:1058F0000F4A58BF8340127842F08002824214D18E
:105900000C4A1268134210D00B494A780B7843EACC
:1059100002238A7843EA0243CA7843EA0263074AC9
:10592000934202D10D22FFF763BD7047221C002075
:10593000E1840008141C0020EB1B00205553425347
:105940000023064A01201360054A137053709370B8
:10595000D3700722034B1A70704700BF1C1C002035
:10596000EB1B0020AC1B00200022024B01201A7010
:10597000704700BFDE1A002010B51A4A1A4C517A3F
:10598000137A43EA0123917AD27A43EA014343EA44
:10599000026322681549934296BF236004230323C0
:1059A000134A1370134B2268187840F08000FFF7F9
:1059B0001FFD114A517A137A43EA0123917A43EA8F
:1059C0000143D17A43EA016321685B1AC3F30721DB
:1059D00013725172C3F307411B0ED372002313736A
:1059E000917210BDCC1B0020A81B00201E1B0020A4
:1059F000AC1B0020E1840008EB1B002008B55523F8
:105A0000084942220B7053234B70CB70064B8A70AF
:105A100018780D2240F08000FFF7EAFC0522034BC6
:105A20001A7008BDEB1B0020E1840008AC1B0020AD
:105A300038B51A4B1D681A4B1D606DBB194B1A4CBB
:105A4000597A1A7A42EA0122997A42EA0142D97ACB
:105A500052EA016209D093F90C30002B0BDA134B98
:105A6000187840F08000FFF721FF01232373FFF730
:105A7000C5FF284638BD627A237A43EA0223A27A18
:105A800043EA0243E27A43EA0263094A1268934214
:105A9000EBD0084B1878E6E70125EAE7F81B002071
:105AA000FC1B0020CC1B0020EB1B0020E184000825
:105AB000A81B0020E28400082DE9F8433E4F3F4B2D
:105AC0003A681B683E4D9A423DD300243D4B1878FE
:105AD00040F08000FFF7EAFE2C73FFF78FFFFFF71F
:105AE000A7FF394E0028336808BF0024DFF8DC80A8
:105AF000DFF8DC90002B31D1002C31D0354BD8F8B9
:105B000000201B6838681344013BB3FBF2F3D9F85B
:105B100000209A4228BF1A462F4B1968FCF754FB05
:105B20002D4B31681868274B01441878224640F005
:105B30008000FFF75DFC3368264A23443360136816
:105B40001B1B13600CE0254B1A78254B33F81240D1
:105B5000204B1B689C4228BF1C46C0E7002CDFD1AD
:105B6000D9F80010D8F8002033684A439A4204D18B
:105B7000002333603B680B443B606A7A2B7A43EA2C
:105B80000223AA7A43EA0243EA7A43EA02631B1B2E
:105B9000C3F307222B726A72C3F307421B0EAA7269
:105BA000EB7234B10B4B1B681BB903210D4A2B73ED
:105BB0001170BDE8F88300BFA41B0020C01B0020AB
:105BC000EB1B0020E1840008B81B0020C81B00204C
:105BD000C41B0020B01B0020BC1B0020201C002088
:105BE000E4840008AC1B00202DE9F047484B494EE7
:105BF0001B683268484F9A4209D30024474B3C60E7
:105C00001878FFF753FE464B1C73FFF7F7FEFFF7BC
:105C10000FFF00B93860DFF80C813A68D8F800301F
:105C2000414813440268934250D800213F4C404DF4
:105C30003A68D8F800308A424FD83E4DD1182B68C8
:105C4000C8F80010A3EB0209C5F80090DAB1DFF83C
:105C5000E8A00468DAF80020B9F1000F45D1002966
:105C600043D0631E0B44B3FBF4F4944228BF1446A4
:105C70002F4B224619683068FCF7BCFA3268C8F826
:105C8000009022443260264A3968507A137A43EAF7
:105C90000023907A43EA0043D07A43EA00635B1A18
:105CA000C3F3072013725072C3F307401B0E9072A8
:105CB000D37259B32B681BB1204B1B78052B25D110
:105CC00000231373BDE8F047FFF798BEFE22BDE83E
:105CD000F04700201A49FDF7EDBE2A6814F801CB01
:105CE0000A4402F803C00131A2E75443A142CAD1D9
:105CF0000F4B30681968FCF77DFA0023DAF80020B2
:105D0000C8F80030336813443360BCE7BDE8F0875F
:105D1000C01B0020A41B0020A81B0020E284000858
:105D2000EB1B0020B81B0020C81B00201E1B0020FE
:105D3000BC1B0020B01B0020C41B0020AC1B00209B
:105D400028730008F8B53E4E3E4B32681B683E4D46
:105D50009A4209D300243D4B2C601878FFF7A6FD2A
:105D60003B4B1C73FFF74AFEFFF762FE394C0028DD
:105D70003AD12860384A286811682368091A1160E6
:105D8000364A03441568364A236012686A439342D0
:105D900004D10023236033682B4433602C4A547AA7
