:020000040800F2
:20000000A84F002099010008DB0B0008650B0008D90B000863030008670F000800000000E9
:20002000000000000000000000000000FD0E00086503000800000000DD0B0008010F000835
:20004000B3010008B3010008B3010008B3010008B3010008B3010008B3010008B3010008C0
:20006000B3010008B3010008B3010008B3010008B3010008B3010008B3010008B3010008A0
:20008000B3010008B3010008B3010008B3010008B3010008B3010008B3010008B301000880
:2000A000B3010008B3010008B3010008B3010008B3010008B3010008B3010008B301000860
:2000C000B3010008B3010008B3010008B3010008B3010008B3010008B3010008B301000840
:2000E000B3010008B3010008B3010008DFF80CD000F0FAF800480047651A0008A84F00200A
:20010000224B19680868B0E8F00F80F30988BFF36F8F4FF0000080F311884EF00D0E7047DB
:200120000000000006480068006880F3088862B661B6BFF34F8FBFF36F8F00DF00BF00BFD2
:2001400008ED00E0EFF30980BFF36F8F0F4B1A6820E9F00F106008B54FF0BF0080F3118894
:20016000BFF34F8FBFF36F8F02F024F94FF0000080F31188BDE8084019680868B0E8F00F70
:2001800080F30988BFF36F8F704700BFD0000020EFF305807047000006488047064800477D
:2001A000FEE7FEE7FEE7FEE7FEE7FEE7FEE7FEE7FEE7FEE7650F0008ED00000840EA0103AE
:2001C0009B0703D009E008C9121F08C0042AFAD203E011F8013B00F8013B521EF9D27047AF
:2001E000D2B201E000F8012B491EFBD270470022F6E710B513460A4604461946FFF7F0FF90
:20020000204610BD421C10F8011B0029FBD1801A704710B5002200E0521C835C8C5CA34202
:2002200001D1002BF8D1D8B2E1B2401A10BD034611F8012B00F8012B002AF9D11846704709
:2002400070B50F4D00B92868002412E00A4602E09E4203D0521C1378002BF9D1DAB22243FA
:2002600005D02BB124B1002100F8011B04E00446401C0678002EE9D12860204670BD0000B8
:20028000340100202DE9F0410E460546002400E0641C285D00F021F80746305D00F01DF832
:2002A000381A02D1295D0029F2D1BDE8F08130B50B46014600202022012409E021FA02F592
:2002C0009D4205D303FA02F5491B04FA02F52844151EA2F10102F1DC30BDA0F14101192916
:2002E00000D8203070470000064C074D06E0E06840F0010394E8070098471034AC42F6D3BA
:20030000FFF7F8FE042700082427000870B58C1810F8015B15F0070301D110F8013B2A11DE
:2003200006D110F8012B03E010F8016B01F8016B5B1EF9D12B0705D40023521E0DD401F83B
:20034000013BFAE710F8013BCB1A921C03E013F8015B01F8015B521EF9D5A142D8D300201E
:2003600070BDFEE7704700002DE9F84FDFF8B891002409F1040A0AF1040B23460F270BF166
:20038000040EC9E00125A5402A40AA427DD1674ED1F804C0ACEB0608B44532D014DCBCF174
:2003A000030F3AD009DCBCF1000F2AD0BCF1010F1CD0BCF1020F31D11DE0BCF1110F17D06C
:2003C000BCF1120F2AD119E0B8F5881F19D006DCB8F5803F15D0B8F5801F1FD111E0B8F511
:2003E000001F0ED0B8F5041F18D10AE0CB6815E0CB681B1D12E0CB6808330FE0CB680C3309
:200400000CE08B682BB1012B4FF0080303D0456104E0042302E0056100E00023FF2A01D8DA
:20042000064601E000F104064FEA840501D9A5F12005D6F8008007FA05FC28EA0C0803FACA
:2004400005F548EA0508C6F800804D68ED0062D5374DAE6946F00106AE61AD6924F0030632
:2004600005F001050095334D06EB050CDCF80850A607360F07FA06F825EA0805DFF8B88022
:20048000404503D14FF0000817E044E0DFF8AC80404502D14FF001080FE0DFF8A48040458F
:2004A00002D14FF0020808E0DFF89880404502D14FF0030801E04FF0040808FA06F848EA49
:2004C0000508CCF808804D68D9F80060ED034D4601D5164300E096432E604D68DAF80060FD
:2004E000AD03554601D5164300E096432E604D68DBF80060ED025D4601D5164300E09643D9
:200500002E604D68DEF80060AD02754601D5164300E096432E60641C0D682A46E5407FF485
:2005200031AFBDE8F88F00000004014000001110001002400000014000080140000C014020
:200540000010014000140140C26821EA02030A4043EA0241016170470AB101617047090407
:20056000FBE700000148806870470000C0000020024881680278114481607047C000002057
:20058000074810B5016841F010010160032000F067F8002000F006F800F024F8002010BDC2
:2005A0000020024070B50D4D04464FF47A712878B1FBF0F00A490968B1FBF0F000F0BEFABE
:2005C00048B9102C07D200222146501E00F028F800206C6070BD012070BD0000C0000020B7
:2005E000CC0000200C4808B5816941F001018161816901F001010091C16941F08051C16143
:20060000C06900F0805000900448416821F0E06141F00071416008BD00100240000001407F
:20062000F0B40E4B1B680C46C3F30223C3F10705042D00D90425191D072901D2002300E0DE
:20064000DB1E012606FA05F1491E214099409E40761E16403143F0BC00F018BE0CED00E05C
:20066000064900F0070208684FF6FF03184040EA0220034A10430860704700000CED00E03F
:200680000000FA052DE9F0470F46050061D0434E306800F00700B84209D2306820F00700DF
:2006A00038433060306800F00700B84251D128683B4C810712D5400703D5606840F4E060A3
:2006C00060602878000703D5606840F4605060606068A96820F0F000084360602878C00724
:2006E00028D06868012810D02168022810D0890700292EDA616821F0030101436160FFF7FC
:2007000031FF804641F288390DE021688903EFE78901EDE7FFF726FFA0EB0801494502D9A1
:200720000320BDE8F0876068696800F00C00B0EB810FEFD1306800F00700B8420BD93068F5
:2007400020F0070038433060306800F00700B84201D00120E5E72878400705D56068E96856
:2007600020F4E060084360602878000706D56068296920F4605040EAC100606000F018F8CF
:200780006168084AC1F30311515CC8400649086006480068FFF706FF0020C2E7002002402E
:2007A0000010024053260008CC000020C400002012A185B00FC98DE80F0014A0144A0068D8
:2007C00004905168134801F00C03042B10D0082B0ED1C1F38343C9031DF803000AD551685A
:2007E00004AAC1F34041515C0A4A5043B0FBF1F005B0704708494843FAE7000002030405BF
:20080000060708090A0B0C0D0E0F1010010200000010024000127A0000093D002DE9F84FCB
:20082000040070D02078C04DC00749D06868C0F38100012807D06868C0F38100022809D1E3
:200840006868C00306D52868800339D560680028E7D035E06068B0F5803F0BD010B1B0F5E0
:20086000A02F11D0286820F480302860286820F4802002E0286840F480302860606890B1C1
:20088000FFF770FE06460AE0286840F480202860F0E700BFFFF766FE801B642873D82868E0
:2008A0008003F7D50CE0FFF75DFE064605E000BFFFF758FE801B6428F0D828688003F7D4A3
:2008C00020789A4E80074FF001094FF0000839D5686810F00C0F07D06868C0F38100022883
:2008E00009D16868C00306D42868800714D52069012808D110E02069B0B1C6F80090FFF708
:2009000031FE074605E00AE1FFF72CFEC01B0228C4D828688007F7D52868616920F0F80085
:2009200040EAC10028600DE0C6F80080FFF71AFE074604E0FFF716FEC01B022823D8286840
:200940008007F7D4207800072CD57948A169D9B1C0F80090FFF706FE074604E0FFF702FEE7
:20096000C01B02280FD8686A8007F7D571484FF4FA510068B0FBF1F0009000BF0098411EE5
:200980000091FAD20EE080E0C0F80080FFF7EAFD074604E0FFF7E6FDC01B022875D8686A69
:2009A0008007F7D42078400760D5E8690027C00008D4E86940F08050E861E869012700F0BA
:2009C000805000905C480168C90513D40168834641F480710160FFF7C5FD824606E000BF17
:2009E000FFF7C0FDA0EB0A0064284ED8DBF80000C005F5D5E06801280AD008B1052813D087
:200A0000286A20F001002862286A20F0040002E0286A40F001002862E06841F2883B98B14D
:200A2000FFF7A0FD82460BE0286A40F004002862EEE700BFFFF796FDA0EB0A0159455AD89D
:200A4000286A8007F6D50CE0FFF78CFD824605E0FFF788FDA0EB0A0159454CD8286A8007AE
:200A6000F6D41FB1E86920F08050E861E06988B36968C1F38101022944D00228C6F86080D0
:200A800004D0FFF76FFD044638E034E0FFF76AFD074604E0FFF766FDC01B02282BD828682B
:200AA0008001F7D4206AB0F5803F05D16868A16820F4003008436860D4E908010843696814
:200AC00021F4741108436860C6F86090FFF74AFD044606E025E000BFFFF744FD001B02280E
:200AE00009D828688001F7D51BE000BFFFF73AFD001B022802D90320BDE8F88F28688001D1
:200B0000F4D40EE00128F7D06868226A00F48031914204D1616A00F47010884201D001208B
:200B2000EAE70020E8E70000001002400000424280044242CC0000200070004010B5401E58
:200B4000B0F1807F01D3012010BD4FF0E02460610F21601700F09AFB0020A061072020613A
:200B6000002010BDFEE7000070B586B0002418480094019402940394816941F01001816160
:200B8000816901F010010491816941F020018161816901F020010491816941F00401816123
:200BA00080690C4E00F004004FF400550490002229463046FFF7D0FC01200095CDE9010498
:200BC0000220039069463046FFF7CEFB06B070BD0010024000100140FEE77047FFF7B2BAF8
:200BE00008B501226946002000F018F8012802D04FF0FF3008BD9DF8000008BD10B5064CA7
:200C0000207808B900F0B0F9D4E91B10814201D0012010BD002010BD0046002010B5EFF37E
:200C20001184202383F3118800F004F8E1B281F3118810BD2DE9F0471B4D07461646287876
:200C40000C4608B900F090F907EB470005EBC007A046D7E91B95002460374D4511D9B8686B
:200C6000441BB44200D334467868224641194046FFF7A4FAB868361B2544A044A84200D19D
:200C80000025A9EB0500B04200D206463EB17868324641194046FFF791FA3444354404B138
:200CA0003D612046BDE8F087004600202DE91040FFF796FF0028FBDB10BD00002DE9F041AB
:200CC00007460B4815460E46007808B900F04CF9EFF31184202080F311882A46314638462F
:200CE00000F008F8E1B281F31188BDE8F08100000046002070B50E46144900EB400001EBFB
:200D0000C0051446E86A183520B101280FD0022805D113E0284600F05DF9A04201D20024BC
:200D200011E022463146284600F07AFA0BE0284600F050F9A042F4D20446F2E731462846CF
:200D400000F041FA0446204670BD0000004600200FB408B504A900916A46039900F003F830
:200D600001B05DF814FB2DE9F04198B0064607A8029040200025CDE90305CDE90556904618
:200D80000C4614F8011B002973D0252908D002A800F0FAF905980028F3DA18B0BDE8F0814A
:200DA000002001212278232A1ED02B2A19D02D2A02D0302A08D102E040F0010001E040F05E
:200DC0000200641C0029EDD100222178A1F130030A2B0CD202EB820201EB4202303A641C8C
:200DE000F3E740F00400ECE740F00800E9E70023CFB22E2F0BD114F8011FA1F130070A2FFF
:200E000005D203EB830301EB4303303BF3E76C290DD068290BD0702954D00BDC252916D05A
:200E2000582931D063290CD0642913D114E014F8011FECE7732934D075291BD0782909D1C0
:200E400022E0D8F80000011DC8F80010017802A800F09AF9641C9DE7D8F800100F1DC8F85C
:200E600000700968CDE900200A2202A800F0BEF8F0E733E0D8F800100F1DC8F800700968A8
:200E8000CDE900200A2208E0D8F800100F1DC8F800700968CDE90020102202A800F00AF916
:200EA000D8E7D8F80000011DC8F80010076817F8011B0029CED002A800F066F90598002896
:200EC000F5DAC7E7D8F80000011DC8F8001001680820CDE9000503461022DEE70598002886
:200EE0007FF75BAF049820B1024607A93046FFF7E5FEDDE90410084405904EE7FFF700B91F
:200F000010B501F0D9FA012801D001F093FABDE81040FFF72DBB30B58FB028216846FFF7EC
:200F200066F914210AA8FFF762F901210804CDE900100024029402250491CDE907504FF460
:200F4000E01009906846FFF769FC0F20CDE90A056802CDE90C4002210AA80E94FFF792FBA5
:200F60000FB030BD7047FEE710B5134C03202061606112A0A06104F1A800E0614FF48060EC
:200F800020620020A06260620CA12166E06204F5956161664FF480712067C4E91A10606766
:200FA00009A1E01DFFF743F908A12046FFF73FF92020A07110BD0000004600205465726DFF
:200FC000696E616C000000005254540053454747455200000269C1688A4203D88068401A39
:200FE000104400E0501A401E704700002DE9FC5F0E008146DDE90C47C6F100009846934671
:20100000824600D40846012503E000BF90FBFBF06D1C5845FADAA84500D9454624B1002E5A
:2010200001DB780700D5641EB80702D5B8F1000F0FD0F8070DD164B1A5420AD2202148464D
:20104000641E00F0A1F8D9F80C000028F3DABDE8FC9FD9F80C000028F9DB002E02DA5646F4
:201060002D2102E0780707D52B21484600F08CF8D9F80C000028EADB07F0030002280FD1C9
:20108000B8F1000F0CD15CB1A54209D230214846641E00F079F8D9F80C000028F3DAD6E79B
:2010A000CDE9004743465A463146484600F002F8CDE700002DE9F84F8246DDE90A4B012600
:2010C000984691460D460846374602E0B0FBF9F07F1C4845FAD2B84500D947465FEACB70EC
:2010E00017D1B4B15FEA8B7002D5B8F1000F02D0202000900BE03020FBE75046641E009960
:2011000000F042F8DAF80C00002838DB0CB1A742F3D3DAF80C00002831DB00BFB8F1010F96
:2011200002D9A8F1010803E0B5FBF6F0484502D306FB09F6F2E7DFF84C8000BFB5FBF6F086
:2011400000FB165518F80010504600F01DF8DAF80C00002803DBB6FBF9F6002EEED15FEAB4
:20116000CB700CD0002C0AD0A74208D220215046641E00F009F8DAF80C000028F2DABDE8CE
:20118000F88F00006326000810B50446D4E90130421C934205D323681954A260E068401C91
:2011A000E060D4E90102824209D121682069FFF785FDA168884203D04FF0FF30E06010BDE6
:2011C0000020A06010BD2DE9F047C4681746894606464FF000083069A04201D9051B02E093
:2011E000B168201A0D1AB0686D1E001BA84200D80546BD4200D33D4670682A46204449461A
:20120000FEF7DCFFB0687F1B2C44A844A944A04200D10024F460002FDDD14046BDE8F08759
:201220002DE9F04104468846D4E90207C51BE168606816460844B54206D94146FEF7BEFFE1
:20124000B819E060BDE8F0812A464146FEF7B6FF761B08EB050132466068FEF7AFFFE66013
:20126000F0E700000FB4084B10B504A902AA039800F022FA044602A9002000F0F9FA20465E
:2012800010BC5DF814FB0000711800080907090E002804DB00F1E02080F80014704700F03B
:2012A0000F0000F1E02080F8141D704702E008C8121F08C1002AFAD170477047002001E0BE
:2012C00001C1121F002AFBD17047000070B50C4E002400BF06EB04150AA100202A68FFF7AF
:2012E00037FD09A10020FFF733FD09A100206A68FFF72EFD641CE4B2042CEBD370BD0000DC
:20130000000000202573000009202D200900000025730A0010B509A10020FFF719FD4FF416
:20132000884208A10020FFF713FD01F065F80246BDE8104006A10020FFF70ABD4865617087
:201340003A0A000009546F74616C3A2025640A0009467265653A202025640A0010B5402092
:2013600000F0A6FD04000FD000F092FF0AA10020FFF7EEFC224614A10020FFF7E9FC20464D
:20138000BDE8104000F0B0BEBDE810400F4A10A10020FFF7DDBC00007461736B5F6E616DFE
:2013A00065202020737461746520207072696F72697479202020737461636B202074617387
:2013C0006B5F6E756D0A000025730A003C2600082573207076506F72744D616C6C6F632022
:2013E0006572726F72210A0010B506A20AA10020FFF7AEFCBDE810400CA30FA211A1002099
:20140000FFF7A6BC5631302E342E33204C54532050617463682032004F533A204672656507
:2014200052544F532025730A0000000030303A31333A3139000000004D6179202034203213
:20144000303232004275696C642074696D653A2025732025730A00000AA10020FFF778FC50
:201460004FF4FA7000F06EFEBFF34F8F0A4801680A4A01F4E06111430160BFF34F8F00BF8A
:20148000FDE700005265626F6F7421204279657E427965210A0A0A000CED00E00400FA05E3
:2014A00002A204A10020FFF753BC00001B5B324A0000000025730A240A00000010B50C46E5
:2014C00030B136A12068FEF7DDFE002821D025E034A237A10020FFF73BFC38A23AA100200E
:2014E000FFF736FC3AA23DA10020FFF731FC3EA240A10020FFF72CFC41A244A10020FFF7EA
:2015000027FC44A246A10020FFF722FC47A249A13EE024A24AA10020FFF71AFC4BA1206865
:20152000FEF7B0FE20B925A249A10020FFF710FC49A12068FEF7A6FE20B925A248A10020A8
:20154000FFF706FC49A12068FEF79CFE20B926A248A10020FFF7FCFB49A12068FEF792FE04
:2015600020B927A248A10020FFF7F2FB48A12068FEF788FE20B927A247A10020FFF7E8FB6E
:2015800048A12068FEF77EFE002806D127A247A1BDE810400020FFF7DBBB10BD424C414339
:2015A0004B0000001B5B32343B34306D000000002573424C41434B20000000001B5B323407
:2015C0003B34316D0000000025735245442000001B5B32343B34326D000000002573475250
:2015E00045454E20000000001B5B32343B34336D00000000257359454C4C4F572000000074
:201600001B5B32343B34346D000000002573424C554520001B5B32343B34376D000000000F
:201620002573574849544520000000001B5B306D0000000025735245534554200A00000019
:201640002573424C41434B0A000000005245440025735245440A0000475245454E000000C2
:201660002573475245454E0A0000000059454C4C4F570000257359454C4C4F570A000000FD
:20168000424C5545000000002573424C55450A005748495445000000257357484954450AB4
:2016A000000000005245534554000000257352455345540A000000002DE9FF4F8BB09A4603
:2016C0000F460546002606E025280BD052460D9990476D1C761C28780028F5D10FB0304643
:2016E000BDE8F08F0024A0460122604900E0044315F8013F203B02FA03F00842F7D1287880
:201700002E2817D115F8010F44F004042A280ED06FF02F022878A0F1300109290AD808EB09
:20172000880102EB410100EB01086D1CF2E757F8048B6D1C287869283ED006DC0028CDD04E
:2017400063280BD0642804D136E0732810D075284BD052460D999047761C85E017F8040B4F
:201760008DF8000000208DF80100E946012003E057F8049B4FF0FF3061074FF0000401D42F
:201780000AE0641C44450DDA8442FADB19F804100029F6D106E0641C8442FCDB19F8041097
:2017A0000029F8D1264404E019F8010B52460D999047641EF8D257E001CF4FF00A0B0028E8
:2017C00002DA40422D2102E0210504D52B218DF82410012103E0E10705D02021F7E70DF198
:2017E000200908910CE00021F9E701CF4FF00A0BF9E75946FEF75BFD01F1300209F8012DF7
:201800000028F6D1ADEB090000F1200B600701D44FF00108D84502DDA8EB0B0000E00020FE
:201820008046002406E009A85246005D0D999047641C761C08988442F5DB04E030205246A1
:201840000D999047761CB8F10001A8F10108F5DC05E019F8010B52460D999047761CBBF107
:201860000001ABF1010BF4DC6D1C34E7092801000A68531C0B601070704700007CB5002540
:2018800004242B46802209A10B48CDE9004500F0E7FD0023E20109A10B48CDE9004500F053
:2018A000DFFDBDE87C40002000F064BC4C45445F746F67676C650000451A0008636C695F07
:2018C0007461736B00000000151900081CB500210420CDE900010B46802205A1084800F079
:2018E000BFFDBDE81C4007A10020FFF731BA0000626F6172645F696E69745F7461736B0055
:201900007D18000852544F53205374617274210A00000000ADF5407D4FF4807180A8FEF7D9
:2019200066FC4FF4007A002451466846FEF75FFC244A25A10020FFF70BFAA14680AFE8463C
:20194000FFF75CF920B1FFF7B1F93855641CA4B29CB33E1916F8010C0A282ED1002580AA27
:201960001CA12846FFF7F4F9A41E484606F8019C002C05DD16F8021C0D2901D106F8020C20
:2019800051466846FEF733FC14A180A8FEF758FC0090444658F8250007E06D1CEDB20FA16A
:2019A0000020FEF74DFC44F825000028F5D100240B4A6946284600F061F8642000F0C2FB6A
:2019C000BEE700004A26000825732073746172740A000000242025730000000020000000FE
:2019E000000000202DE9F041144E04463068844202D10020BDE8F08100F05EFB6569B76B34
:201A0000F66B00F067FBBD4201D0B54201D10220F0E70B48854208D1A06A0028F7D194F808
:201A2000501003200129F2D0E4E705481438854202D00DB10120DDE70420DBE7D0000020C1
:201A4000EC010020064D4FF400544FF4FA7621462846FEF779FD304600F074FBF7E70000E9
:201A600000100140FEF78CFDFFF755FAFFF77CF8FFF72CFF00F06EFCFEE700002DE9F04141
:201A800016460F468046002406EB0410006810B1641CE4B2F8E7B8F1000F4FF0000513D0A9
:201AA0001FE000BF06EB05171BA100203A68FFF74FF91AA10020FFF74BF91AA100207A68CD
:201AC000FFF746F96D1CEDB2A542EBD322E000BF06EB051039680068FEF79BFB60B16D1C0F
:201AE000EDB2A542F4D310A311A213A10020FFF72FF90120BDE8F08106EB0511A8F1010069
:201B0000CA68C0B21AB1391DFFF7B8FF02E08A68391D90470020EDE72573000009202D2050
:201B20000900000025730A001B5B306D000000001B5B323B33316D002573556E6B6E6F7719
:201B400020636F6D6D616E6421212125730A00002DE9F041184C0F460546E6682068001D43
:201B600000F010FA38B9206890F82C1001208840216981432161681C07D137B12168BDE803
:201B8000F0410E48091D00F08BBA20683544B5424560216805D2E06BBDE8F041091D00F02F
:201BA00067BAA06B091D00F063FAA06A854200D2A562BDE8F0810000D0000020EC010020C9
:201BC0002DE9F041054600F077FA2E4CA068401CA06020682C4F10B1606940B32DE0256022
:201BE000A068012829D1002606EB860007EB800000F030FA761C052EF6D32348643000F014
:201C000029FA2148783000F025FA1F488C3000F021FA1D48A03000F01DFA1B48B43000F0E0
:201C200019FA19486430A0631430E06305E02068E96AC06A884200D82560606A401C606219
:201C40006864E96A0120226988401043206101EB810007EB8000291D00F022FA00F03AFAC8
:201C6000606900280CD02068E96AC06A884207D206494FF080500860BFF34F8FBFF36F8FE9
:201C8000BDE8F081D00000203801002004ED00E010B50446006B00F027FA2046BDE810402E
:201CA00000F022BA10484FF48841420706D0C01D0D4920F00700411AC1F588410B4A002339
:201CC0000144C2E900030839183A21F0070111604B600B600B1AC0E9001393604FF000408B
:201CE0005360506170470000000200202C010020144E154CA6F1A0074FF08058DFF84C908F
:201D000012E000BF00F0D8F9F068C568281D00F039F9A068401EA0606068401E606000F029
:201D2000D9F92846FFF7B4FF60680028EAD138680128F9D9C9F80080BFF34F8FBFF36F8FF3
:201D4000F2E70000D8010020D000002004ED00E02DE9F05F0E46DDE90B941546834691001D
:201D60009A460A9FA522206BFEF73AFA6FF0030101EB8501206B0025084420F0070866B158
:201D800000202218315C82F83410315C11B1401C1028F6D384F8435001E084F83450052FCE
:201DA00000D30427201DE76200F05FF904F1180000F05BF92461C7F105006462A061E564B4
:201DC00084F8505052465946404600F0C9F82060B9F1000F01D0C9F80040BDE8F09F00003A
:201DE00030B5114900E011460A688242FBD34B685C18844203D14068184448600846436803
:201E00001C18944209D1084C183C2468A24209D052681A4442600A6812680260814200D052
:201E2000086030BD0460F9E72C0100202DE9F0478146086892460C46002600B3606804F178
:201E4000080540686060A84201D1416861606068D0F80C80606840686060A84201D1416836
:201E60006160606806EBC60109EB8101C76853460122384600F0CCF9761C4745EAD130463E
:201E8000BDE8F0870548816B096821B1816BC9680968816270474FF0FF31FAE7D000002042
:201EA000BF2080F31188BFF34F8FBFF36F8FFEE72DE9F0410546002700F074FA274E3068EE
:201EC00008B9FFF7EFFE7069054241D1F5B305F10804AC423CD9600707D004F00700C0F195
:201EE00008002044A04233D904467CB3706884422ED81A48183001460D6801E028460D4663
:201F00006968A14202D229680029F7D131688D421ED007682968016068680837011B10299C
:201F200004D9281941606C60FFF75AFF69687068401A7060B268904200D2B0607069014309
:201F40000020C5E90001F068401C00E000E0F06000F01AFB3846BDE8F08100001401002020
:201F600010B5031F4FF080741C601B1F21F001011960191F024B0B60143940380A6010BD19
:201F8000A11E0008D0E9013201699A60D0E901235A604A68824201D182684A600022026132
:201FA0000868401E08600868704700002DE9F04717460A4605460024052600F0F3F9DFF87D
:201FC0008C80D8F8080082423BD3DFF88490761E06EB860104EBC40009EB810105EB8000BB
:201FE0000122FFF723FF0444002EF0D104EBC40005EB800002224646D8F83810FFF716FF79
:020000040800F2
:20200000044404EBC40005EB80000222F16BFFF70DFF04440E4904EBC40005EB80000422EB
:20202000A031FFF703FF0444094904EBC40005EB80000322B431FFF7F9FE04440FB10020FB
:20204000386000F0A1FA2046BDE8F087D00000203801002000F108014FF0FF32C0E901126C
:20206000C160016100210160704700210161704730B50B685A1C02D000F1080202E0026982
:2020800004E02246546825689D42FAD953684B6099608A60516008610168491C016030BD7A
:2020A00042684A6093688B6093685960916008610168491C01607047BF2080F31188BFF355
:2020C0004F8FBFF36F8F02480168491C016070471001002003490868401E086001D180F34A
:2020E000118870471001002070B500281BD00E4DA0F1080461686869014214D02268002ABA
:2021000011D18143616000F04DF960686968084468602046FFF764FE2869401C2861BDE89C
:20212000704000F031BA70BD140100204FF0E02000210161816102494161072101617047E0
:202140003F19010010B5020009D000F02BF900211046FFF7FDFC00F017FA002807D10449BE
:202160004FF080500860BFF34F8FBFF36F8F10BD04ED00E070B50546FFF79EFF214C05B9DC
:202180002568281DFFF7FEFE58B9E86A1E4A00EB800152F8211021B90121814020698843B8
:2021A0002061A86A18B105F11800FFF7EBFE606A401C60622068854208D11348291DA03055
:2021C000FFF76EFF6068401C606004E0A068401EA060FFF757FEFFF77DFF2068854202D090
:2021E0002846FFF755FD606900280AD02068854207D106494FF080500860BFF34F8FBFF32F
:202200006F8F70BDD00000203801002004ED00E02DE9F0410C461D491646A8B14FEA000587
:2022200005F13400C4E90050E86A2061286BE0610027686C6761A761A060052B12D0086883
:20224000854203D1277311E00D68E9E72373032B0CD100F0A7F8A86A08B10220207300F073
:2022600093F903E02846FFF7BDFB20735EB10021286B01E0401C491C0278A52AFAD0880838
:202280002084BDE8F0812784FBE70000D00000202DE9FC474FF00009044680F800902848A4
:2022A0008568806800EBC0008000FFF701FE070044D000222946FFF779FE8046002536E00F
:2022C00005EBC50007EB8006307B052817D2DFE800F0030510121400582000E05220824689
:2022E00020467168FDF7A3FF2046FDF78BFF202109E04220F3E75320F1E74420EFE700201A
:20230000EDE72154401C0F28FBD304F800900444B168308CCDE9000152460AA1204633696E
:20232000FEF7A0FF2046FDF76DFF04446D1C4545C6D33846BDE8FC47FFF7D6BEBDE8FC8737
:20234000D00000200925630925750925750925750D0A00007CB50F480025CDE900502B46D8
:2023600080220DA10E4800F07BF80A4C2C3C01280ED1BF2080F31188BFF34F8FBFF36F8F63
:202380004FF0FF30A06201206061E56000F03AF8206B7CBDFC00002049444C450000000086
:2023A000F11C00080248416B491C416370470000D00000200E48416B11B10121C1617047A3
:2023C0000021C16101690B4AB1FA81F1C1F11F0101EB810102EB810101F108034A685268C6
:2023E0004A609A4201D152684A60D16801607047D0000020380100200148406870470000DF
:2024000014010020094810B5016841F47F010160016841F07F410160FFF788FE044900204E
:202420000860FDF77FFE002010BD000020ED00E01001002010B5BF2080F31188BFF34F8F78
:20244000BFF36F8F00F046F818B104494FF080500860002080F3118810BD000004ED00E047
:202460002DE9FF5F8346DDE90E87994616468A469000FFF71DFD05001AD05420FFF718FDAB
:20248000040012D025630021CDE90241CDE900874B46324651465846FFF75AFC2046FFF791
:2024A0008FFB012004B0BDE8F09F2846FFF71CFE4FF0FF30F6E700000548416919B1406B54
:2024C00018B10020704701207047022070470000D00000202DE9F041294C0027606B28B134
:2024E000A069401CA0613846BDE8F081E668761CE66008D1A06BE16BA163E063206A401C5F
:202500002062FFF7BFFCA06ADFF87880864209D3A06B0068A0B1A06BC068C568686886424F
:2025200011D2A0622068C06A00EB800158F82100012800D90127E0690028D4D00127D2E707
:202540004FF0FF30EDE7281DFFF71CFDA86A18B105F11800FFF716FDE86A01212269814033
:202560001143216100EB800108EB8100291DFFF797FDE86A2168C96A8842C9D30127C7E78B
:20258000D0000020380100202DE9F04700242646FFF792FD264D686B401E6863686BE0BBB3
:2025A000A968244F0120C1B3A7F18C0980463868E8B1F868C46804F11800FFF7E3FC201D2B
:2025C000FFF7E0FCE06A2A6908FA00F11143296100EB800109EB8100211DFFF761FDE06ABE
:2025E0002968C96A8842E2D3C5F81C80DFE70CB1FFF748FCAC694CB14FEA0807FFF76AFFC9
:2026000000B1EF61641EF9D10020A861E86920B1094901263007086000E003E0BFF34F8FB7
:20262000BFF36F8FFFF756FD3046BDE8F0870000D0000020C401002004ED00E05F636C69D2
:202640005F6F735F7461736B5F00636C695F7461736B00000000000000000001020304066E
:2026600007080930313233343536373839414243444546003F00000064756D7020616C6C52
:202680002066756E6300000052545420636F6E66696700006F7320696E666F006F7300004E
:2026A0007265626F6F74000072747400636C65617220636F6E736F6C65000000636C656186
:2026C0007200000073657420636F6C6F720000007461736B000000006D656D006F73207693
:2026E000657273696F6E00007461736B7320696E666F000076657200476574206D656D6F1D
:20270000727900002427000800000020380100000C0300089027000838010020704E000035
:20272000BC1200081374261B08780413CD1242081AA00C29044B5914101AA80C1A880441CB
:2027400022501B209C0C5A94101A801001101ABC1C1AAC045AA1401AC80C1AC4045ABD107D
:2027600001101AF41C1ADC044BE913201AD00C1AE8045A5D101AD80C1AF8045A1510011056
:2027800032018210033124F4F2041AAA01012400FFFFFFFFFFFFFFFFFFFFFFFFFFFFFFFF58
:2027A000FFFFFFFFFFFFFFFFFFFFFFFFFFFFFFFFFFFFFFFFFFFFFFFFFFFFFFFFFFFFFFFF39
:2027C000FFFFFFFFFFFFFFFFFFFFFFFFFFFFFFFFFFFFFFFFFFFFFFFFFFFFFFFFFFFFFFFF19
:2027E000FFFFFFFFFFFFFFFFFFFFFFFFFFFFFFFFFFFFFFFFFFFFFFFFFFFFFFFFFFFFFFFFF9
:20280000FFFFFFFFFFFFFFFFFFFFFFFFFFFFFFFFFFFFFFFFFFFFFFFFFFFFFFFFFFFFFFFFD8
:020000040801F1
:00000001FF
